{
  "transactions": [
    {
      "hash": "0xefbbd9be171dbb098150549c996385d697ca2eda5738f7f3f9730959c8003d9f",
      "transactionType": "CALL",
      "contractName": null,
      "contractAddress": "0x04e7e8e929c80d4262ce7dc8077d4f080b90288f",
      "function": "createPool(string,uint256,uint256,uint256,address)",
      "arguments": [
        "Arabica House Blend Coffee Beans",
        "10000000",
        "100",
        "1775431900",
        "0xbc9C188330a7536147375Acb6A1e0c7C6897b302"
      ],
      "transaction": {
        "from": "0x7ecb39c481487f9826e2a4457599ba2f86af0342",
        "to": "0x04e7e8e929c80d4262ce7dc8077d4f080b90288f",
        "gas": "0x38b14",
        "value": "0x0",
        "input": "0x8ed4f90c00000000000000000000000000000000000000000000000000000000000000a0000000000000000000000000000000000000000000000000000000000098968000000000000000000000000000000000000000000000000000000000000000640000000000000000000000000000000000000000000000000000000069d2f0dc000000000000000000000000bc9c188330a7536147375acb6a1e0c7c6897b30200000000000000000000000000000000000000000000000000000000000000204172616269636120486f75736520426c656e6420436f66666565204265616e73",
        "nonce": "0x9",
        "chainId": "0x66eee"
      },
      "additionalContracts": [],
      "isFixedGasLimit": false
    },
    {
      "hash": "0xb3b0cf9d2522744a5ecb15f3542f8fdf03c26a3a17ed7e8802dbfd962881bc67",
      "transactionType": "CALL",
      "contractName": null,
      "contractAddress": "0x04e7e8e929c80d4262ce7dc8077d4f080b90288f",
      "function": "createPool(string,uint256,uint256,uint256,address)",
      "arguments": [
        "Arabica Espresso Blend Coffee Beans",
        "11000000",
        "90",
        "1775431900",
        "0xbc9C188330a7536147375Acb6A1e0c7C6897b302"
      ],
      "transaction": {
        "from": "0x7ecb39c481487f9826e2a4457599ba2f86af0342",
        "to": "0x04e7e8e929c80d4262ce7dc8077d4f080b90288f",
        "gas": "0x3ff2e",
        "value": "0x0",
        "input": "0x8ed4f90c00000000000000000000000000000000000000000000000000000000000000a00000000000000000000000000000000000000000000000000000000000a7d8c0000000000000000000000000000000000000000000000000000000000000005a0000000000000000000000000000000000000000000000000000000069d2f0dc000000000000000000000000bc9c188330a7536147375acb6a1e0c7c6897b30200000000000000000000000000000000000000000000000000000000000000234172616269636120457370726573736f20426c656e6420436f66666565204265616e730000000000000000000000000000000000000000000000000000000000",
        "nonce": "0xa",
        "chainId": "0x66eee"
      },
      "additionalContracts": [],
      "isFixedGasLimit": false
    },
    {
      "hash": "0xa600c9ce10472b3529f83fac4f988671b2480c978c123aed1f3be10118bc3e2a",
      "transactionType": "CALL",
      "contractName": null,
      "contractAddress": "0x04e7e8e929c80d4262ce7dc8077d4f080b90288f",
      "function": "createPool(string,uint256,uint256,uint256,address)",
      "arguments": [
        "Ethiopian Single-Origin Coffee Beans",
        "18000000",
        "50",
        "1775431900",
        "0xbc9C188330a7536147375Acb6A1e0c7C6897b302"
      ],
      "transaction": {
        "from": "0x7ecb39c481487f9826e2a4457599ba2f86af0342",
        "to": "0x04e7e8e929c80d4262ce7dc8077d4f080b90288f",
        "gas": "0x3ff4d",
        "value": "0x0",
        "input": "0x8ed4f90c00000000000000000000000000000000000000000000000000000000000000a0000000000000000000000000000000000000000000000000000000000112a88000000000000000000000000000000000000000000000000000000000000000320000000000000000000000000000000000000000000000000000000069d2f0dc000000000000000000000000bc9c188330a7536147375acb6a1e0c7c6897b3020000000000000000000000000000000000000000000000000000000000000024457468696f7069616e2053696e676c652d4f726967696e20436f66666565204265616e7300000000000000000000000000000000000000000000000000000000",
        "nonce": "0xb",
        "chainId": "0x66eee"
      },
      "additionalContracts": [],
      "isFixedGasLimit": false
    },
    {
      "hash": "0x26f8a23feaf64cfa3ffde75c28c5b8a6723290008dd175ba99ce6d026a53364d",
      "transactionType": "CALL",
      "contractName": null,
      "contractAddress": "0x04e7e8e929c80d4262ce7dc8077d4f080b90288f",
      "function": "createPool(string,uint256,uint256,uint256,address)",
      "arguments": [
        "Colombian Single-Origin Coffee Beans",
        "14000000",
        "60",
        "1775431900",
        "0xbc9C188330a7536147375Acb6A1e0c7C6897b302"
      ],
      "transaction": {
        "from": "0x7ecb39c481487f9826e2a4457599ba2f86af0342",
        "to": "0x04e7e8e929c80d4262ce7dc8077d4f080b90288f",
        "gas": "0x3ff3e",
        "value": "0x0",
        "input": "0x8ed4f90c00000000000000000000000000000000000000000000000000000000000000a00000000000000000000000000000000000000000000000000000000000d59f80000000000000000000000000000000000000000000000000000000000000003c0000000000000000000000000000000000000000000000000000000069d2f0dc000000000000000000000000bc9c188330a7536147375acb6a1e0c7c6897b3020000000000000000000000000000000000000000000000000000000000000024436f6c6f6d6269616e2053696e676c652d4f726967696e20436f66666565204265616e7300000000000000000000000000000000000000000000000000000000",
        "nonce": "0xc",
        "chainId": "0x66eee"
      },
      "additionalContracts": [],
      "isFixedGasLimit": false
    },
    {
      "hash": "0x50fda392272f39201189deebaa8f2b74c407e41c05aa3caab5ff8cfb74087e76",
      "transactionType": "CALL",
      "contractName": null,
      "contractAddress": "0x04e7e8e929c80d4262ce7dc8077d4f080b90288f",
      "function": "createPool(string,uint256,uint256,uint256,address)",
      "arguments": [
        "Guatemalan Single-Origin Coffee Beans",
        "13000000",
        "60",
        "1775431900",
        "0xbc9C188330a7536147375Acb6A1e0c7C6897b302"
      ],
      "transaction": {
        "from": "0x7ecb39c481487f9826e2a4457599ba2f86af0342",
        "to": "0x04e7e8e929c80d4262ce7dc8077d4f080b90288f",
        "gas": "0x3ff4d",
        "value": "0x0",
        "input": "0x8ed4f90c00000000000000000000000000000000000000000000000000000000000000a00000000000000000000000000000000000000000000000000000000000c65d40000000000000000000000000000000000000000000000000000000000000003c0000000000000000000000000000000000000000000000000000000069d2f0dc000000000000000000000000bc9c188330a7536147375acb6a1e0c7c6897b302000000000000000000000000000000000000000000000000000000000000002547756174656d616c616e2053696e676c652d4f726967696e20436f66666565204265616e73000000000000000000000000000000000000000000000000000000",
        "nonce": "0xd",
        "chainId": "0x66eee"
      },
      "additionalContracts": [],
      "isFixedGasLimit": false
    },
    {
      "hash": "0xacba446d1054129864ccbbe039ef7883c54fbaad1e7ee7837b3d611a4b5cff68",
      "transactionType": "CALL",
      "contractName": null,
      "contractAddress": "0x04e7e8e929c80d4262ce7dc8077d4f080b90288f",
      "function": "createPool(string,uint256,uint256,uint256,address)",
      "arguments": [
        "Kenyan Single-Origin Coffee Beans",
        "18000000",
        "50",
        "1775431900",
        "0xbc9C188330a7536147375Acb6A1e0c7C6897b302"
      ],
      "transaction": {
        "from": "0x7ecb39c481487f9826e2a4457599ba2f86af0342",
        "to": "0x04e7e8e929c80d4262ce7dc8077d4f080b90288f",
        "gas": "0x3ff1d",
        "value": "0x0",
        "input": "0x8ed4f90c00000000000000000000000000000000000000000000000000000000000000a0000000000000000000000000000000000000000000000000000000000112a88000000000000000000000000000000000000000000000000000000000000000320000000000000000000000000000000000000000000000000000000069d2f0dc000000000000000000000000bc9c188330a7536147375acb6a1e0c7c6897b30200000000000000000000000000000000000000000000000000000000000000214b656e79616e2053696e676c652d4f726967696e20436f66666565204265616e7300000000000000000000000000000000000000000000000000000000000000",
        "nonce": "0xe",
        "chainId": "0x66eee"
      },
      "additionalContracts": [],
      "isFixedGasLimit": false
    },
    {
      "hash": "0xc57a1b53ffd162a88535884edbef8deb794df2f4e2c4008655775ce1de0e23a5",
      "transactionType": "CALL",
      "contractName": null,
      "contractAddress": "0x04e7e8e929c80d4262ce7dc8077d4f080b90288f",
      "function": "createPool(string,uint256,uint256,uint256,address)",
      "arguments": [
        "Costa Rican Single-Origin Coffee Beans",
        "16000000",
        "50",
        "1775431900",
        "0xbc9C188330a7536147375Acb6A1e0c7C6897b302"
      ],
      "transaction": {
        "from": "0x7ecb39c481487f9826e2a4457599ba2f86af0342",
        "to": "0x04e7e8e929c80d4262ce7dc8077d4f080b90288f",
        "gas": "0x3ff4d",
        "value": "0x0",
        "input": "0x8ed4f90c00000000000000000000000000000000000000000000000000000000000000a00000000000000000000000000000000000000000000000000000000000f4240000000000000000000000000000000000000000000000000000000000000000320000000000000000000000000000000000000000000000000000000069d2f0dc000000000000000000000000bc9c188330a7536147375acb6a1e0c7c6897b3020000000000000000000000000000000000000000000000000000000000000026436f73746120526963616e2053696e676c652d4f726967696e20436f66666565204265616e730000000000000000000000000000000000000000000000000000",
        "nonce": "0xf",
        "chainId": "0x66eee"
      },
      "additionalContracts": [],
      "isFixedGasLimit": false
    },
    {
      "hash": "0x0dcfe20cabb117ddc1ae6f3499de3714d6363e51a4ed38408e81b1d1373ba71b",
      "transactionType": "CALL",
      "contractName": null,
      "contractAddress": "0x04e7e8e929c80d4262ce7dc8077d4f080b90288f",
      "function": "createPool(string,uint256,uint256,uint256,address)",
      "arguments": [
        "Light Roast Coffee Beans",
        "12000000",
        "75",
        "1775431900",
        "0xbc9C188330a7536147375Acb6A1e0c7C6897b302"
      ],
      "transaction": {
        "from": "0x7ecb39c481487f9826e2a4457599ba2f86af0342",
        "to": "0x04e7e8e929c80d4262ce7dc8077d4f080b90288f",
        "gas": "0x31327",
        "value": "0x0",
        "input": "0x8ed4f90c00000000000000000000000000000000000000000000000000000000000000a00000000000000000000000000000000000000000000000000000000000b71b00000000000000000000000000000000000000000000000000000000000000004b0000000000000000000000000000000000000000000000000000000069d2f0dc000000000000000000000000bc9c188330a7536147375acb6a1e0c7c6897b30200000000000000000000000000000000000000000000000000000000000000184c6967687420526f61737420436f66666565204265616e730000000000000000",
        "nonce": "0x10",
        "chainId": "0x66eee"
      },
      "additionalContracts": [],
      "isFixedGasLimit": false
    },
    {
      "hash": "0x205a31a695364fa5fb8ba34dfde90113c331d93909490529bd763fe1fd553d77",
      "transactionType": "CALL",
      "contractName": null,
      "contractAddress": "0x04e7e8e929c80d4262ce7dc8077d4f080b90288f",
      "function": "createPool(string,uint256,uint256,uint256,address)",
      "arguments": [
        "Medium Roast Coffee Beans",
        "10000000",
        "100",
        "1775431900",
        "0xbc9C188330a7536147375Acb6A1e0c7C6897b302"
      ],
      "transaction": {
        "from": "0x7ecb39c481487f9826e2a4457599ba2f86af0342",
        "to": "0x04e7e8e929c80d4262ce7dc8077d4f080b90288f",
        "gas": "0x31346",
        "value": "0x0",
        "input": "0x8ed4f90c00000000000000000000000000000000000000000000000000000000000000a0000000000000000000000000000000000000000000000000000000000098968000000000000000000000000000000000000000000000000000000000000000640000000000000000000000000000000000000000000000000000000069d2f0dc000000000000000000000000bc9c188330a7536147375acb6a1e0c7c6897b30200000000000000000000000000000000000000000000000000000000000000194d656469756d20526f61737420436f66666565204265616e7300000000000000",
        "nonce": "0x11",
        "chainId": "0x66eee"
      },
      "additionalContracts": [],
      "isFixedGasLimit": false
    },
    {
      "hash": "0xf21d578f58849f4b013bbaa66800a22a5abc3bf930f1300f9203884730c980e6",
      "transactionType": "CALL",
      "contractName": null,
      "contractAddress": "0x04e7e8e929c80d4262ce7dc8077d4f080b90288f",
      "function": "createPool(string,uint256,uint256,uint256,address)",
      "arguments": [
        "Dark / French Roast Coffee Beans",
        "10000000",
        "100",
        "1775431900",
        "0xbc9C188330a7536147375Acb6A1e0c7C6897b302"
      ],
      "transaction": {
        "from": "0x7ecb39c481487f9826e2a4457599ba2f86af0342",
        "to": "0x04e7e8e929c80d4262ce7dc8077d4f080b90288f",
        "gas": "0x38b14",
        "value": "0x0",
        "input": "0x8ed4f90c00000000000000000000000000000000000000000000000000000000000000a0000000000000000000000000000000000000000000000000000000000098968000000000000000000000000000000000000000000000000000000000000000640000000000000000000000000000000000000000000000000000000069d2f0dc000000000000000000000000bc9c188330a7536147375acb6a1e0c7c6897b30200000000000000000000000000000000000000000000000000000000000000204461726b202f204672656e636820526f61737420436f66666565204265616e73",
        "nonce": "0x12",
        "chainId": "0x66eee"
      },
      "additionalContracts": [],
      "isFixedGasLimit": false
    },
    {
      "hash": "0xcbbd833dc213d37f412caf395694ceeb6d28430916b90aa0179ad48f7a0f11fb",
      "transactionType": "CALL",
      "contractName": null,
      "contractAddress": "0x04e7e8e929c80d4262ce7dc8077d4f080b90288f",
      "function": "createPool(string,uint256,uint256,uint256,address)",
      "arguments": [
        "Decaf Swiss Water Process Coffee Beans",
        "16000000",
        "50",
        "1775431900",
        "0xbc9C188330a7536147375Acb6A1e0c7C6897b302"
      ],
      "transaction": {
        "from": "0x7ecb39c481487f9826e2a4457599ba2f86af0342",
        "to": "0x04e7e8e929c80d4262ce7dc8077d4f080b90288f",
        "gas": "0x3ff4d",
        "value": "0x0",
        "input": "0x8ed4f90c00000000000000000000000000000000000000000000000000000000000000a00000000000000000000000000000000000000000000000000000000000f4240000000000000000000000000000000000000000000000000000000000000000320000000000000000000000000000000000000000000000000000000069d2f0dc000000000000000000000000bc9c188330a7536147375acb6a1e0c7c6897b302000000000000000000000000000000000000000000000000000000000000002644656361662053776973732057617465722050726f6365737320436f66666565204265616e730000000000000000000000000000000000000000000000000000",
        "nonce": "0x13",
        "chainId": "0x66eee"
      },
      "additionalContracts": [],
      "isFixedGasLimit": false
    },
    {
      "hash": "0x6eb9ad1c2242e958abac7707f71a6bc7a32b0932b2c0efdfd284c3b170537812",
      "transactionType": "CALL",
      "contractName": null,
      "contractAddress": "0x04e7e8e929c80d4262ce7dc8077d4f080b90288f",
      "function": "createPool(string,uint256,uint256,uint256,address)",
      "arguments": [
        "Green Unroasted Coffee Beans",
        "6000000",
        "200",
        "1775431900",
        "0xbc9C188330a7536147375Acb6A1e0c7C6897b302"
      ],
      "transaction": {
        "from": "0x7ecb39c481487f9826e2a4457599ba2f86af0342",
        "to": "0x04e7e8e929c80d4262ce7dc8077d4f080b90288f",
        "gas": "0x31375",
        "value": "0x0",
        "input": "0x8ed4f90c00000000000000000000000000000000000000000000000000000000000000a000000000000000000000000000000000000000000000000000000000005b8d8000000000000000000000000000000000000000000000000000000000000000c80000000000000000000000000000000000000000000000000000000069d2f0dc000000000000000000000000bc9c188330a7536147375acb6a1e0c7c6897b302000000000000000000000000000000000000000000000000000000000000001c477265656e20556e726f617374656420436f66666565204265616e7300000000",
        "nonce": "0x14",
        "chainId": "0x66eee"
      },
      "additionalContracts": [],
      "isFixedGasLimit": false
    },
    {
      "hash": "0x013b5aa76ac4c1f9cbf5dd363d7e4c9bf0ea502431939e3dfcff7e214b0f787f",
      "transactionType": "CALL",
      "contractName": null,
      "contractAddress": "0x04e7e8e929c80d4262ce7dc8077d4f080b90288f",
      "function": "createPool(string,uint256,uint256,uint256,address)",
      "arguments": [
        "Hot Paper Cups 12oz (1000/case)",
        "80000000",
        "25",
        "1774654300",
        "0xbc9C188330a7536147375Acb6A1e0c7C6897b302"
      ],
      "transaction": {
        "from": "0x7ecb39c481487f9826e2a4457599ba2f86af0342",
        "to": "0x04e7e8e929c80d4262ce7dc8077d4f080b90288f",
        "gas": "0x313a5",
        "value": "0x0",
        "input": "0x8ed4f90c00000000000000000000000000000000000000000000000000000000000000a00000000000000000000000000000000000000000000000000000000004c4b40000000000000000000000000000000000000000000000000000000000000000190000000000000000000000000000000000000000000000000000000069c7135c000000000000000000000000bc9c188330a7536147375acb6a1e0c7c6897b302000000000000000000000000000000000000000000000000000000000000001f486f7420506170657220437570732031326f7a2028313030302f636173652900",
        "nonce": "0x15",
        "chainId": "0x66eee"
      },
      "additionalContracts": [],
      "isFixedGasLimit": false
    },
    {
      "hash": "0xbb39d4e7cf0686a20f8685d28735327c4bc27b17d429564f97177bcca27e4c71",
      "transactionType": "CALL",
      "contractName": null,
      "contractAddress": "0x04e7e8e929c80d4262ce7dc8077d4f080b90288f",
      "function": "createPool(string,uint256,uint256,uint256,address)",
      "arguments": [
        "Hot Paper Cups 16oz (1000/case)",
        "95000000",
        "20",
        "1774654300",
        "0xbc9C188330a7536147375Acb6A1e0c7C6897b302"
      ],
      "transaction": {
        "from": "0x7ecb39c481487f9826e2a4457599ba2f86af0342",
        "to": "0x04e7e8e929c80d4262ce7dc8077d4f080b90288f",
        "gas": "0x313b5",
        "value": "0x0",
        "input": "0x8ed4f90c00000000000000000000000000000000000000000000000000000000000000a00000000000000000000000000000000000000000000000000000000005a995c000000000000000000000000000000000000000000000000000000000000000140000000000000000000000000000000000000000000000000000000069c7135c000000000000000000000000bc9c188330a7536147375acb6a1e0c7c6897b302000000000000000000000000000000000000000000000000000000000000001f486f7420506170657220437570732031366f7a2028313030302f636173652900",
        "nonce": "0x16",
        "chainId": "0x66eee"
      },
      "additionalContracts": [],
      "isFixedGasLimit": false
    },
    {
      "hash": "0x7e31e86b400ceac1d9b3e83502104f084c59fa65156174375171da68531f6b8e",
      "transactionType": "CALL",
      "contractName": null,
      "contractAddress": "0x04e7e8e929c80d4262ce7dc8077d4f080b90288f",
      "function": "createPool(string,uint256,uint256,uint256,address)",
      "arguments": [
        "Cold Clear Cups 16oz (1000/case)",
        "70000000",
        "25",
        "1774654300",
        "0xbc9C188330a7536147375Acb6A1e0c7C6897b302"
      ],
      "transaction": {
        "from": "0x7ecb39c481487f9826e2a4457599ba2f86af0342",
        "to": "0x04e7e8e929c80d4262ce7dc8077d4f080b90288f",
        "gas": "0x38b24",
        "value": "0x0",
        "input": "0x8ed4f90c00000000000000000000000000000000000000000000000000000000000000a000000000000000000000000000000000000000000000000000000000042c1d8000000000000000000000000000000000000000000000000000000000000000190000000000000000000000000000000000000000000000000000000069c7135c000000000000000000000000bc9c188330a7536147375acb6a1e0c7c6897b3020000000000000000000000000000000000000000000000000000000000000020436f6c6420436c65617220437570732031366f7a2028313030302f6361736529",
        "nonce": "0x17",
        "chainId": "0x66eee"
      },
      "additionalContracts": [],
      "isFixedGasLimit": false
    },
    {
      "hash": "0xba1d7e0a1548833afed5ac00f0f10aca3b2836f81d82293b1a2189c95133ccc3",
      "transactionType": "CALL",
      "contractName": null,
      "contractAddress": "0x04e7e8e929c80d4262ce7dc8077d4f080b90288f",
      "function": "createPool(string,uint256,uint256,uint256,address)",
      "arguments": [
        "Compostable Hot Cups 12oz (500/case)",
        "90000000",
        "20",
        "1774654300",
        "0xbc9C188330a7536147375Acb6A1e0c7C6897b302"
      ],
      "transaction": {
        "from": "0x7ecb39c481487f9826e2a4457599ba2f86af0342",
        "to": "0x04e7e8e929c80d4262ce7dc8077d4f080b90288f",
        "gas": "0x3ff4d",
        "value": "0x0",
        "input": "0x8ed4f90c00000000000000000000000000000000000000000000000000000000000000a000000000000000000000000000000000000000000000000000000000055d4a8000000000000000000000000000000000000000000000000000000000000000140000000000000000000000000000000000000000000000000000000069c7135c000000000000000000000000bc9c188330a7536147375acb6a1e0c7c6897b3020000000000000000000000000000000000000000000000000000000000000024436f6d706f737461626c6520486f7420437570732031326f7a20283530302f636173652900000000000000000000000000000000000000000000000000000000",
        "nonce": "0x18",
        "chainId": "0x66eee"
      },
      "additionalContracts": [],
      "isFixedGasLimit": false
    },
    {
      "hash": "0xb62d2bfd729017c717921f16d80c026e4bf89d77d1722584ea42fff239cea8ce",
      "transactionType": "CALL",
      "contractName": null,
      "contractAddress": "0x04e7e8e929c80d4262ce7dc8077d4f080b90288f",
      "function": "createPool(string,uint256,uint256,uint256,address)",
      "arguments": [
        "Flat Lids for 12-16oz Cups (1000/case)",
        "40000000",
        "40",
        "1774654300",
        "0xbc9C188330a7536147375Acb6A1e0c7C6897b302"
      ],
      "transaction": {
        "from": "0x7ecb39c481487f9826e2a4457599ba2f86af0342",
        "to": "0x04e7e8e929c80d4262ce7dc8077d4f080b90288f",
        "gas": "0x3ff5d",
        "value": "0x0",
        "input": "0x8ed4f90c00000000000000000000000000000000000000000000000000000000000000a00000000000000000000000000000000000000000000000000000000002625a0000000000000000000000000000000000000000000000000000000000000000280000000000000000000000000000000000000000000000000000000069c7135c000000000000000000000000bc9c188330a7536147375acb6a1e0c7c6897b3020000000000000000000000000000000000000000000000000000000000000026466c6174204c69647320666f722031322d31366f7a20437570732028313030302f63617365290000000000000000000000000000000000000000000000000000",
        "nonce": "0x19",
        "chainId": "0x66eee"
      },
      "additionalContracts": [],
      "isFixedGasLimit": false
    },
    {
      "hash": "0x71e403842e6f753e20b6cbba0b109234314bcf3ca80c98dd71420d136e0f6d7d",
      "transactionType": "CALL",
      "contractName": null,
      "contractAddress": "0x04e7e8e929c80d4262ce7dc8077d4f080b90288f",
      "function": "createPool(string,uint256,uint256,uint256,address)",
      "arguments": [
        "3-Compartment Clamshell Boxes (200/case)",
        "35000000",
        "50",
        "1774654300",
        "0xbc9C188330a7536147375Acb6A1e0c7C6897b302"
      ],
      "transaction": {
        "from": "0x7ecb39c481487f9826e2a4457599ba2f86af0342",
        "to": "0x04e7e8e929c80d4262ce7dc8077d4f080b90288f",
        "gas": "0x3ff8c",
        "value": "0x0",
        "input": "0x8ed4f90c00000000000000000000000000000000000000000000000000000000000000a00000000000000000000000000000000000000000000000000000000002160ec000000000000000000000000000000000000000000000000000000000000000320000000000000000000000000000000000000000000000000000000069c7135c000000000000000000000000bc9c188330a7536147375acb6a1e0c7c6897b3020000000000000000000000000000000000000000000000000000000000000028332d436f6d706172746d656e7420436c616d7368656c6c20426f78657320283230302f6361736529000000000000000000000000000000000000000000000000",
        "nonce": "0x1a",
        "chainId": "0x66eee"
      },
      "additionalContracts": [],
      "isFixedGasLimit": false
    },
    {
      "hash": "0xb9e4709b981519bba5fa08608217cc577ffef519b30c3f904949a6c485b40c0c",
      "transactionType": "CALL",
      "contractName": null,
      "contractAddress": "0x04e7e8e929c80d4262ce7dc8077d4f080b90288f",
      "function": "createPool(string,uint256,uint256,uint256,address)",
      "arguments": [
        "Deli Soup Containers 32oz w/Lids (250/case)",
        "30000000",
        "50",
        "1774654300",
        "0xbc9C188330a7536147375Acb6A1e0c7C6897b302"
      ],
      "transaction": {
        "from": "0x7ecb39c481487f9826e2a4457599ba2f86af0342",
        "to": "0x04e7e8e929c80d4262ce7dc8077d4f080b90288f",
        "gas": "0x3ffba",
        "value": "0x0",
        "input": "0x8ed4f90c00000000000000000000000000000000000000000000000000000000000000a00000000000000000000000000000000000000000000000000000000001c9c38000000000000000000000000000000000000000000000000000000000000000320000000000000000000000000000000000000000000000000000000069c7135c000000000000000000000000bc9c188330a7536147375acb6a1e0c7c6897b302000000000000000000000000000000000000000000000000000000000000002b44656c6920536f757020436f6e7461696e6572732033326f7a20772f4c69647320283235302f6361736529000000000000000000000000000000000000000000",
        "nonce": "0x1b",
        "chainId": "0x66eee"
      },
      "additionalContracts": [],
      "isFixedGasLimit": false
    },
    {
      "hash": "0x1535cb031194580e856fc2cf3d64c5a5c38d6e215cb509e2906c77af25d00938",
      "transactionType": "CALL",
      "contractName": null,
      "contractAddress": "0x04e7e8e929c80d4262ce7dc8077d4f080b90288f",
      "function": "createPool(string,uint256,uint256,uint256,address)",
      "arguments": [
        "Aluminum Foil Pans Half-Size (100/case)",
        "25000000",
        "60",
        "1774654300",
        "0xbc9C188330a7536147375Acb6A1e0c7C6897b302"
      ],
      "transaction": {
        "from": "0x7ecb39c481487f9826e2a4457599ba2f86af0342",
        "to": "0x04e7e8e929c80d4262ce7dc8077d4f080b90288f",
        "gas": "0x3ff7c",
        "value": "0x0",
        "input": "0x8ed4f90c00000000000000000000000000000000000000000000000000000000000000a000000000000000000000000000000000000000000000000000000000017d7840000000000000000000000000000000000000000000000000000000000000003c0000000000000000000000000000000000000000000000000000000069c7135c000000000000000000000000bc9c188330a7536147375acb6a1e0c7c6897b3020000000000000000000000000000000000000000000000000000000000000027416c756d696e756d20466f696c2050616e732048616c662d53697a6520283130302f636173652900000000000000000000000000000000000000000000000000",
        "nonce": "0x1c",
        "chainId": "0x66eee"
      },
      "additionalContracts": [],
      "isFixedGasLimit": false
    },
    {
      "hash": "0xd081d421f09f975d1327b6ac7c9a01c1a52b5a8db8fbbf7c7cd5c944c6dd9fbb",
      "transactionType": "CALL",
      "contractName": null,
      "contractAddress": "0x04e7e8e929c80d4262ce7dc8077d4f080b90288f",
      "function": "createPool(string,uint256,uint256,uint256,address)",
      "arguments": [
        "Compostable Cutlery Kits (250/case)",
        "20000000",
        "75",
        "1774654300",
        "0xbc9C188330a7536147375Acb6A1e0c7C6897b302"
      ],
      "transaction": {
        "from": "0x7ecb39c481487f9826e2a4457599ba2f86af0342",
        "to": "0x04e7e8e929c80d4262ce7dc8077d4f080b90288f",
        "gas": "0x3ff2e",
        "value": "0x0",
        "input": "0x8ed4f90c00000000000000000000000000000000000000000000000000000000000000a00000000000000000000000000000000000000000000000000000000001312d00000000000000000000000000000000000000000000000000000000000000004b0000000000000000000000000000000000000000000000000000000069c7135c000000000000000000000000bc9c188330a7536147375acb6a1e0c7c6897b3020000000000000000000000000000000000000000000000000000000000000023436f6d706f737461626c65204375746c657279204b69747320283235302f63617365290000000000000000000000000000000000000000000000000000000000",
        "nonce": "0x1d",
        "chainId": "0x66eee"
      },
      "additionalContracts": [],
      "isFixedGasLimit": false
    },
    {
      "hash": "0x929b6afaef58e1e8005f21fa7c711e1be2e5c7b1f989dd2df52fb0b76554a083",
      "transactionType": "CALL",
      "contractName": null,
      "contractAddress": "0x04e7e8e929c80d4262ce7dc8077d4f080b90288f",
      "function": "createPool(string,uint256,uint256,uint256,address)",
      "arguments": [
        "Bulk Napkins (8000/case)",
        "35000000",
        "50",
        "1774654300",
        "0xbc9C188330a7536147375Acb6A1e0c7C6897b302"
      ],
      "transaction": {
        "from": "0x7ecb39c481487f9826e2a4457599ba2f86af0342",
        "to": "0x04e7e8e929c80d4262ce7dc8077d4f080b90288f",
        "gas": "0x31346",
        "value": "0x0",
        "input": "0x8ed4f90c00000000000000000000000000000000000000000000000000000000000000a00000000000000000000000000000000000000000000000000000000002160ec000000000000000000000000000000000000000000000000000000000000000320000000000000000000000000000000000000000000000000000000069c7135c000000000000000000000000bc9c188330a7536147375acb6a1e0c7c6897b302000000000000000000000000000000000000000000000000000000000000001842756c6b204e61706b696e732028383030302f63617365290000000000000000",
        "nonce": "0x1e",
        "chainId": "0x66eee"
      },
      "additionalContracts": [],
      "isFixedGasLimit": false
    },
    {
      "hash": "0xd016e4793094535166a26ac98ebdef5486615ded6f7dc4dbe061a752b7334fd3",
      "transactionType": "CALL",
      "contractName": null,
      "contractAddress": "0x04e7e8e929c80d4262ce7dc8077d4f080b90288f",
      "function": "createPool(string,uint256,uint256,uint256,address)",
      "arguments": [
        "Eco Paper Straws (500/case)",
        "15000000",
        "100",
        "1774654300",
        "0xbc9C188330a7536147375Acb6A1e0c7C6897b302"
      ],
      "transaction": {
        "from": "0x7ecb39c481487f9826e2a4457599ba2f86af0342",
        "to": "0x04e7e8e929c80d4262ce7dc8077d4f080b90288f",
        "gas": "0x31366",
        "value": "0x0",
        "input": "0x8ed4f90c00000000000000000000000000000000000000000000000000000000000000a00000000000000000000000000000000000000000000000000000000000e4e1c000000000000000000000000000000000000000000000000000000000000000640000000000000000000000000000000000000000000000000000000069c7135c000000000000000000000000bc9c188330a7536147375acb6a1e0c7c6897b302000000000000000000000000000000000000000000000000000000000000001b45636f2050617065722053747261777320283530302f63617365290000000000",
        "nonce": "0x1f",
        "chainId": "0x66eee"
      },
      "additionalContracts": [],
      "isFixedGasLimit": false
    },
    {
      "hash": "0xa842febdddd557069f8042f76b8e15233084fa4324952b3cfe30ef78844041a4",
      "transactionType": "CALL",
      "contractName": null,
      "contractAddress": "0x04e7e8e929c80d4262ce7dc8077d4f080b90288f",
      "function": "createPool(string,uint256,uint256,uint256,address)",
      "arguments": [
        "Kraft Paper Carry-Out Bags (500/case)",
        "40000000",
        "40",
        "1774654300",
        "0xbc9C188330a7536147375Acb6A1e0c7C6897b302"
      ],
      "transaction": {
        "from": "0x7ecb39c481487f9826e2a4457599ba2f86af0342",
        "to": "0x04e7e8e929c80d4262ce7dc8077d4f080b90288f",
        "gas": "0x3ff4d",
        "value": "0x0",
        "input": "0x8ed4f90c00000000000000000000000000000000000000000000000000000000000000a00000000000000000000000000000000000000000000000000000000002625a0000000000000000000000000000000000000000000000000000000000000000280000000000000000000000000000000000000000000000000000000069c7135c000000000000000000000000bc9c188330a7536147375acb6a1e0c7c6897b30200000000000000000000000000000000000000000000000000000000000000254b726166742050617065722043617272792d4f7574204261677320283530302f6361736529000000000000000000000000000000000000000000000000000000",
        "nonce": "0x20",
        "chainId": "0x66eee"
      },
      "additionalContracts": [],
      "isFixedGasLimit": false
    },
    {
      "hash": "0xaa565eaea3d3971f7cca19592bcde489cd724ccdbcc328a5e607006b17234bfd",
      "transactionType": "CALL",
      "contractName": null,
      "contractAddress": "0x04e7e8e929c80d4262ce7dc8077d4f080b90288f",
      "function": "createPool(string,uint256,uint256,uint256,address)",
      "arguments": [
        "Takeout Bags with Handles (250/case)",
        "25000000",
        "60",
        "1774654300",
        "0xbc9C188330a7536147375Acb6A1e0c7C6897b302"
      ],
      "transaction": {
        "from": "0x7ecb39c481487f9826e2a4457599ba2f86af0342",
        "to": "0x04e7e8e929c80d4262ce7dc8077d4f080b90288f",
        "gas": "0x3ff4d",
        "value": "0x0",
        "input": "0x8ed4f90c00000000000000000000000000000000000000000000000000000000000000a000000000000000000000000000000000000000000000000000000000017d7840000000000000000000000000000000000000000000000000000000000000003c0000000000000000000000000000000000000000000000000000000069c7135c000000000000000000000000bc9c188330a7536147375acb6a1e0c7c6897b302000000000000000000000000000000000000000000000000000000000000002454616b656f7574204261677320776974682048616e646c657320283235302f636173652900000000000000000000000000000000000000000000000000000000",
        "nonce": "0x21",
        "chainId": "0x66eee"
      },
      "additionalContracts": [],
      "isFixedGasLimit": false
    },
    {
      "hash": "0xa26912f894909de2d38eca2411a4c16abaf78c9093e6a91f7d2447e16885ed44",
      "transactionType": "CALL",
      "contractName": null,
      "contractAddress": "0x04e7e8e929c80d4262ce7dc8077d4f080b90288f",
      "function": "createPool(string,uint256,uint256,uint256,address)",
      "arguments": [
        "Foil & Parchment Food Wrap Rolls",
        "20000000",
        "80",
        "1774654300",
        "0xbc9C188330a7536147375Acb6A1e0c7C6897b302"
      ],
      "transaction": {
        "from": "0x7ecb39c481487f9826e2a4457599ba2f86af0342",
        "to": "0x04e7e8e929c80d4262ce7dc8077d4f080b90288f",
        "gas": "0x38b14",
        "value": "0x0",
        "input": "0x8ed4f90c00000000000000000000000000000000000000000000000000000000000000a00000000000000000000000000000000000000000000000000000000001312d0000000000000000000000000000000000000000000000000000000000000000500000000000000000000000000000000000000000000000000000000069c7135c000000000000000000000000bc9c188330a7536147375acb6a1e0c7c6897b3020000000000000000000000000000000000000000000000000000000000000020466f696c20262050617263686d656e7420466f6f64205772617020526f6c6c73",
        "nonce": "0x22",
        "chainId": "0x66eee"
      },
      "additionalContracts": [],
      "isFixedGasLimit": false
    }
  ],
  "receipts": [
    {
      "status": "0x1",
      "cumulativeGasUsed": "0x2afbc",
      "logs": [
        {
          "address": "0x04e7e8e929c80d4262ce7dc8077d4f080b90288f",
          "topics": [
            "0x55bd16033ae8e80a1af8547b62c6fd40fbffbf5d4470d72387ea1872f854587b",
            "0x0000000000000000000000000000000000000000000000000000000000000007"
          ],
          "data": "0x00000000000000000000000000000000000000000000000000000000000000a0000000000000000000000000000000000000000000000000000000000098968000000000000000000000000000000000000000000000000000000000000000640000000000000000000000000000000000000000000000000000000069d2f0dc000000000000000000000000bc9c188330a7536147375acb6a1e0c7c6897b30200000000000000000000000000000000000000000000000000000000000000204172616269636120486f75736520426c656e6420436f66666565204265616e73",
          "blockHash": "0x38ca3fcd619744073645ab27c7da898793c14797e59a3b54344dc1d952f04b6c",
          "blockNumber": "0xec2ae2d",
          "blockTimestamp": "0x69ab63e7",
          "transactionHash": "0xefbbd9be171dbb098150549c996385d697ca2eda5738f7f3f9730959c8003d9f",
          "transactionIndex": "0x1",
          "logIndex": "0x0",
          "removed": false
        }
      ],
      "logsBloom": "0x00000000000000000000008000000000000000000100000000000000000000000000000000000000000000000000000000001000000000000000000000000000000020000000000000000000000000000000000000000000000000000000000000000000000000000000000000000000000000000000000000000000000000000000000000000000000000000000000200000000000000000000000000000008000000000000010000000000000000000000000000000000000000000000000000000000000000000000000000000000000000000000000000000100800000000000000000000000000000000000000000000000000000000000000000000000",
      "type": "0x2",
      "transactionHash": "0xefbbd9be171dbb098150549c996385d697ca2eda5738f7f3f9730959c8003d9f",
      "transactionIndex": "0x1",
      "blockHash": "0x38ca3fcd619744073645ab27c7da898793c14797e59a3b54344dc1d952f04b6c",
      "blockNumber": "0xec2ae2d",
      "gasUsed": "0x2afbc",
      "effectiveGasPrice": "0x13134d0",
      "from": "0x7ecb39c481487f9826e2a4457599ba2f86af0342",
      "to": "0x04e7e8e929c80d4262ce7dc8077d4f080b90288f",
      "contractAddress": null,
      "gasUsedForL1": "0x0",
      "l1BlockNumber": "0x9ead78",
      "timeboosted": false
    },
    {
      "status": "0x1",
      "cumulativeGasUsed": "0x30857",
      "logs": [
        {
          "address": "0x04e7e8e929c80d4262ce7dc8077d4f080b90288f",
          "topics": [
            "0x55bd16033ae8e80a1af8547b62c6fd40fbffbf5d4470d72387ea1872f854587b",
            "0x0000000000000000000000000000000000000000000000000000000000000008"
          ],
          "data": "0x00000000000000000000000000000000000000000000000000000000000000a00000000000000000000000000000000000000000000000000000000000a7d8c0000000000000000000000000000000000000000000000000000000000000005a0000000000000000000000000000000000000000000000000000000069d2f0dc000000000000000000000000bc9c188330a7536147375acb6a1e0c7c6897b30200000000000000000000000000000000000000000000000000000000000000234172616269636120457370726573736f20426c656e6420436f66666565204265616e730000000000000000000000000000000000000000000000000000000000",
          "blockHash": "0x206ec121351cb38c2e0cfec28e6e60df51241c4f89a265324e5bfdc39d26f104",
          "blockNumber": "0xec2ae32",
          "blockTimestamp": "0x69ab63e8",
          "transactionHash": "0xb3b0cf9d2522744a5ecb15f3542f8fdf03c26a3a17ed7e8802dbfd962881bc67",
          "transactionIndex": "0x1",
          "logIndex": "0x0",
          "removed": false
        }
      ],
      "logsBloom": "0x00000000000000000000008000000000000000000100000000000000000000000000000000000000000000000000000000000000000080000000000000000000000000000000000000000000000000000000000000000000000000000000000000000000000000000000000000000000000000000000000000000000000000000080000000000000000000000000000200000000000000000000000000000008000000000000010000000000000000000000000000000000000000000000000040000000000000000000000000000000000000000000000000000000800000000000000000000000000000000000000000000000000000000000000000000000",
      "type": "0x2",
      "transactionHash": "0xb3b0cf9d2522744a5ecb15f3542f8fdf03c26a3a17ed7e8802dbfd962881bc67",
      "transactionIndex": "0x1",
      "blockHash": "0x206ec121351cb38c2e0cfec28e6e60df51241c4f89a265324e5bfdc39d26f104",
      "blockNumber": "0xec2ae32",
      "gasUsed": "0x30857",
      "effectiveGasPrice": "0x1315be0",
      "from": "0x7ecb39c481487f9826e2a4457599ba2f86af0342",
      "to": "0x04e7e8e929c80d4262ce7dc8077d4f080b90288f",
      "contractAddress": null,
      "gasUsedForL1": "0x0",
      "l1BlockNumber": "0x9ead78",
      "timeboosted": false
    },
    {
      "status": "0x1",
      "cumulativeGasUsed": "0x3c854",
      "logs": [
        {
          "address": "0x04e7e8e929c80d4262ce7dc8077d4f080b90288f",
          "topics": [
            "0x55bd16033ae8e80a1af8547b62c6fd40fbffbf5d4470d72387ea1872f854587b",
            "0x0000000000000000000000000000000000000000000000000000000000000009"
          ],
          "data": "0x00000000000000000000000000000000000000000000000000000000000000a0000000000000000000000000000000000000000000000000000000000112a88000000000000000000000000000000000000000000000000000000000000000320000000000000000000000000000000000000000000000000000000069d2f0dc000000000000000000000000bc9c188330a7536147375acb6a1e0c7c6897b3020000000000000000000000000000000000000000000000000000000000000024457468696f7069616e2053696e676c652d4f726967696e20436f66666565204265616e7300000000000000000000000000000000000000000000000000000000",
          "blockHash": "0x4b53bd325a3002ce384171ccd96a8ef9e39a0e3c677fd6d602a3e708739a3508",
          "blockNumber": "0xec2ae33",
          "blockTimestamp": "0x69ab63e9",
          "transactionHash": "0xa600c9ce10472b3529f83fac4f988671b2480c978c123aed1f3be10118bc3e2a",
          "transactionIndex": "0x2",
          "logIndex": "0x1",
          "removed": false
        }
      ],
      "logsBloom": "0x00000000000000000000008000000000000000000100000000000000000000000000000000000000000000000000000000000000000000000000000000200000000000000000000000000000000000000000000000000000000000000000000000000000000000000000000000000000000000000000000000000000000000000000000000000000000000000000000200001000000000000000000000000008000000000000010000000000000000000000000000000000000000000000000000000000000000000000000000000000000000000000000000000000800000000000000000000000000000000000000000000000000000000000000000800000",
      "type": "0x2",
      "transactionHash": "0xa600c9ce10472b3529f83fac4f988671b2480c978c123aed1f3be10118bc3e2a",
      "transactionIndex": "0x2",
      "blockHash": "0x4b53bd325a3002ce384171ccd96a8ef9e39a0e3c677fd6d602a3e708739a3508",
      "blockNumber": "0xec2ae33",
      "gasUsed": "0x3086f",
      "effectiveGasPrice": "0x134e620",
      "from": "0x7ecb39c481487f9826e2a4457599ba2f86af0342",
      "to": "0x04e7e8e929c80d4262ce7dc8077d4f080b90288f",
      "contractAddress": null,
      "gasUsedForL1": "0x0",
      "l1BlockNumber": "0x9ead78",
      "timeboosted": false
    },
    {
      "status": "0x1",
      "cumulativeGasUsed": "0x4faf71",
      "logs": [
        {
          "address": "0x04e7e8e929c80d4262ce7dc8077d4f080b90288f",
          "topics": [
            "0x55bd16033ae8e80a1af8547b62c6fd40fbffbf5d4470d72387ea1872f854587b",
            "0x000000000000000000000000000000000000000000000000000000000000000a"
          ],
          "data": "0x00000000000000000000000000000000000000000000000000000000000000a00000000000000000000000000000000000000000000000000000000000d59f80000000000000000000000000000000000000000000000000000000000000003c0000000000000000000000000000000000000000000000000000000069d2f0dc000000000000000000000000bc9c188330a7536147375acb6a1e0c7c6897b3020000000000000000000000000000000000000000000000000000000000000024436f6c6f6d6269616e2053696e676c652d4f726967696e20436f66666565204265616e7300000000000000000000000000000000000000000000000000000000",
          "blockHash": "0xf1046bc1c9aded666cf9954efe7b04f3e4bcffacffb4e72da07326f4483ccdbd",
          "blockNumber": "0xec2ae34",
          "blockTimestamp": "0x69ab63e9",
          "transactionHash": "0x26f8a23feaf64cfa3ffde75c28c5b8a6723290008dd175ba99ce6d026a53364d",
          "transactionIndex": "0x5",
          "logIndex": "0x6c",
          "removed": false
        }
      ],
      "logsBloom": "0x00000000000000000000008000000000000000000100000000000000000000000000000000000000000000000000000000000000040000000020000000000000000000000000000000000000000000000000000000000000000000000000000000000000000000000000000000000000000000000000000000000000000000000000000000000000010000000000000200000000000000000000000000000008000000000000010000000000000000000000000000000000000000000000000000000000000000000000000000000000000000000000000000000000800000000000000000000000000000000000000000000000000000000000000000000000",
      "type": "0x2",
      "transactionHash": "0x26f8a23feaf64cfa3ffde75c28c5b8a6723290008dd175ba99ce6d026a53364d",
      "transactionIndex": "0x5",
      "blockHash": "0xf1046bc1c9aded666cf9954efe7b04f3e4bcffacffb4e72da07326f4483ccdbd",
      "blockNumber": "0xec2ae34",
      "gasUsed": "0x30863",
      "effectiveGasPrice": "0x1312d00",
      "from": "0x7ecb39c481487f9826e2a4457599ba2f86af0342",
      "to": "0x04e7e8e929c80d4262ce7dc8077d4f080b90288f",
      "contractAddress": null,
      "gasUsedForL1": "0x0",
      "l1BlockNumber": "0x9ead78",
      "timeboosted": false
    },
    {
      "status": "0x1",
      "cumulativeGasUsed": "0x4b03f9",
      "logs": [
        {
          "address": "0x04e7e8e929c80d4262ce7dc8077d4f080b90288f",
          "topics": [
            "0x55bd16033ae8e80a1af8547b62c6fd40fbffbf5d4470d72387ea1872f854587b",
            "0x000000000000000000000000000000000000000000000000000000000000000b"
          ],
          "data": "0x00000000000000000000000000000000000000000000000000000000000000a00000000000000000000000000000000000000000000000000000000000c65d40000000000000000000000000000000000000000000000000000000000000003c0000000000000000000000000000000000000000000000000000000069d2f0dc000000000000000000000000bc9c188330a7536147375acb6a1e0c7c6897b302000000000000000000000000000000000000000000000000000000000000002547756174656d616c616e2053696e676c652d4f726967696e20436f66666565204265616e73000000000000000000000000000000000000000000000000000000",
          "blockHash": "0x0ba0fc352a00384a2bc6bc758fa11f84f52bf6d480f4fb578591dc197bf91cba",
          "blockNumber": "0xec2ae39",
          "blockTimestamp": "0x69ab63ea",
          "transactionHash": "0x50fda392272f39201189deebaa8f2b74c407e41c05aa3caab5ff8cfb74087e76",
          "transactionIndex": "0x2",
          "logIndex": "0x65",
          "removed": false
        }
      ],
      "logsBloom": "0x0000000000000000000000c000000000000000000100000000000000000000000000000000000000000000000000000000000000000000000000000000000000000000000000000000000000000000000000000000000000000000000000000000000000000000000000000000000000000000000000000000000000000000000000000000000000000000000000000200000000000000000000000000000008000000000000010000000000000000000000000000000000000000000000000000000000000000000000000000000000002000000000000000000000800000000000000000000000000000000000000000000000000000040000000000000000",
      "type": "0x2",
      "transactionHash": "0x50fda392272f39201189deebaa8f2b74c407e41c05aa3caab5ff8cfb74087e76",
      "transactionIndex": "0x2",
      "blockHash": "0x0ba0fc352a00384a2bc6bc758fa11f84f52bf6d480f4fb578591dc197bf91cba",
      "blockNumber": "0xec2ae39",
      "gasUsed": "0x3086f",
      "effectiveGasPrice": "0x1312d00",
      "from": "0x7ecb39c481487f9826e2a4457599ba2f86af0342",
      "to": "0x04e7e8e929c80d4262ce7dc8077d4f080b90288f",
      "contractAddress": null,
      "gasUsedForL1": "0x0",
      "l1BlockNumber": "0x9ead78",
      "timeboosted": false
    },
    {
      "status": "0x1",
      "cumulativeGasUsed": "0x4a2c4",
      "logs": [
        {
          "address": "0x04e7e8e929c80d4262ce7dc8077d4f080b90288f",
          "topics": [
            "0x55bd16033ae8e80a1af8547b62c6fd40fbffbf5d4470d72387ea1872f854587b",
            "0x000000000000000000000000000000000000000000000000000000000000000c"
          ],
          "data": "0x00000000000000000000000000000000000000000000000000000000000000a0000000000000000000000000000000000000000000000000000000000112a88000000000000000000000000000000000000000000000000000000000000000320000000000000000000000000000000000000000000000000000000069d2f0dc000000000000000000000000bc9c188330a7536147375acb6a1e0c7c6897b30200000000000000000000000000000000000000000000000000000000000000214b656e79616e2053696e676c652d4f726967696e20436f66666565204265616e7300000000000000000000000000000000000000000000000000000000000000",
          "blockHash": "0x79cef4e0efbbaaf598dfdbc68f046eb9af0f265479d33e18ac0fdf064e517819",
          "blockNumber": "0xec2ae3e",
          "blockTimestamp": "0x69ab63eb",
          "transactionHash": "0xacba446d1054129864ccbbe039ef7883c54fbaad1e7ee7837b3d611a4b5cff68",
          "transactionIndex": "0x2",
          "logIndex": "0x3",
          "removed": false
        }
      ],
      "logsBloom": "0x00000000000000000000008000000000000002000100000000000000000000000000000000000200000000000000000000000000000000000000000000000000000000000000000000000000000000000000000000000000000000000000000000000000000000000000000000000000000000000000000000000000000000000000000000000000000000000000000200000000000000000000000000000008000000000000010000000000000000000000000000000000000000000000000000000000000000000000000000000000000000000000000000000000800000200000000000000000000000000000000000000000000000000000000000000000",
      "type": "0x2",
      "transactionHash": "0xacba446d1054129864ccbbe039ef7883c54fbaad1e7ee7837b3d611a4b5cff68",
      "transactionIndex": "0x2",
      "blockHash": "0x79cef4e0efbbaaf598dfdbc68f046eb9af0f265479d33e18ac0fdf064e517819",
      "blockNumber": "0xec2ae3e",
      "gasUsed": "0x3084b",
      "effectiveGasPrice": "0x13163b0",
      "from": "0x7ecb39c481487f9826e2a4457599ba2f86af0342",
      "to": "0x04e7e8e929c80d4262ce7dc8077d4f080b90288f",
      "contractAddress": null,
      "gasUsedForL1": "0x0",
      "l1BlockNumber": "0x9ead78",
      "timeboosted": false
    },
    {
      "status": "0x1",
      "cumulativeGasUsed": "0x3086f",
      "logs": [
        {
          "address": "0x04e7e8e929c80d4262ce7dc8077d4f080b90288f",
          "topics": [
            "0x55bd16033ae8e80a1af8547b62c6fd40fbffbf5d4470d72387ea1872f854587b",
            "0x000000000000000000000000000000000000000000000000000000000000000d"
          ],
          "data": "0x00000000000000000000000000000000000000000000000000000000000000a00000000000000000000000000000000000000000000000000000000000f4240000000000000000000000000000000000000000000000000000000000000000320000000000000000000000000000000000000000000000000000000069d2f0dc000000000000000000000000bc9c188330a7536147375acb6a1e0c7c6897b3020000000000000000000000000000000000000000000000000000000000000026436f73746120526963616e2053696e676c652d4f726967696e20436f66666565204265616e730000000000000000000000000000000000000000000000000000",
          "blockHash": "0x2e073c1bb70983a2533884441681f7f2ac94350ba973ba17b4db454256106bd3",
          "blockNumber": "0xec2ae43",
          "blockTimestamp": "0x69ab63ed",
          "transactionHash": "0xc57a1b53ffd162a88535884edbef8deb794df2f4e2c4008655775ce1de0e23a5",
          "transactionIndex": "0x1",
          "logIndex": "0x0",
          "removed": false
        }
      ],
      "logsBloom": "0x00000000000000000040008000000000000000000100000000000000000000000000000000000000000000000000000000000000000000000000000000000000000000000000000000000000000000000002000000000000000000000000000000000000000000000000000000000000000000000000000000000000000000000000000000000000000000000000000200000000000000000000000000000008000000000000010000000000000000000000000000000000000000000000000000000000000000000000000000000000000000000000000000000000800000020000000000000000000000000000000000000000000000000000000000000000",
      "type": "0x2",
      "transactionHash": "0xc57a1b53ffd162a88535884edbef8deb794df2f4e2c4008655775ce1de0e23a5",
      "transactionIndex": "0x1",
      "blockHash": "0x2e073c1bb70983a2533884441681f7f2ac94350ba973ba17b4db454256106bd3",
      "blockNumber": "0xec2ae43",
      "gasUsed": "0x3086f",
      "effectiveGasPrice": "0x131a230",
      "from": "0x7ecb39c481487f9826e2a4457599ba2f86af0342",
      "to": "0x04e7e8e929c80d4262ce7dc8077d4f080b90288f",
      "contractAddress": null,
      "gasUsedForL1": "0x0",
      "l1BlockNumber": "0x9ead78",
      "timeboosted": false
    },
    {
      "status": "0x1",
      "cumulativeGasUsed": "0x3f351",
      "logs": [
        {
          "address": "0x04e7e8e929c80d4262ce7dc8077d4f080b90288f",
          "topics": [
            "0x55bd16033ae8e80a1af8547b62c6fd40fbffbf5d4470d72387ea1872f854587b",
            "0x000000000000000000000000000000000000000000000000000000000000000e"
          ],
          "data": "0x00000000000000000000000000000000000000000000000000000000000000a00000000000000000000000000000000000000000000000000000000000b71b00000000000000000000000000000000000000000000000000000000000000004b0000000000000000000000000000000000000000000000000000000069d2f0dc000000000000000000000000bc9c188330a7536147375acb6a1e0c7c6897b30200000000000000000000000000000000000000000000000000000000000000184c6967687420526f61737420436f66666565204265616e730000000000000000",
          "blockHash": "0x9d3b6e1649e1c01bfeab61267387c92eb923bd518d1d799d09697f816c0e4331",
          "blockNumber": "0xec2ae44",
          "blockTimestamp": "0x69ab63ed",
          "transactionHash": "0x0dcfe20cabb117ddc1ae6f3499de3714d6363e51a4ed38408e81b1d1373ba71b",
          "transactionIndex": "0x2",
          "logIndex": "0x3",
          "removed": false
        }
      ],
      "logsBloom": "0x00000000000000000000008000000000000000000100000000000000000000000000000000000000000000000000000000000000000000000000000000000000000000000000000800000000000000000000000000000000000000000000000000000000000000000000000000000000000000000000000000000000000000000000000000000000000000000000000208000000000000000000000000000008000000000000010000000000000000000000000000000020000000000000000000000000000000000000000000000000000000000000000000000000800000000000000000000000000000000000000000000000000000000000000000000000",
      "type": "0x2",
      "transactionHash": "0x0dcfe20cabb117ddc1ae6f3499de3714d6363e51a4ed38408e81b1d1373ba71b",
      "transactionIndex": "0x2",
      "blockHash": "0x9d3b6e1649e1c01bfeab61267387c92eb923bd518d1d799d09697f816c0e4331",
      "blockNumber": "0xec2ae44",
      "gasUsed": "0x258d8",
      "effectiveGasPrice": "0x1312d00",
      "from": "0x7ecb39c481487f9826e2a4457599ba2f86af0342",
      "to": "0x04e7e8e929c80d4262ce7dc8077d4f080b90288f",
      "contractAddress": null,
      "gasUsedForL1": "0x0",
      "l1BlockNumber": "0x9ead78",
      "timeboosted": false
    },
    {
      "status": "0x1",
      "cumulativeGasUsed": "0x3f369",
      "logs": [
        {
          "address": "0x04e7e8e929c80d4262ce7dc8077d4f080b90288f",
          "topics": [
            "0x55bd16033ae8e80a1af8547b62c6fd40fbffbf5d4470d72387ea1872f854587b",
            "0x000000000000000000000000000000000000000000000000000000000000000f"
          ],
          "data": "0x00000000000000000000000000000000000000000000000000000000000000a0000000000000000000000000000000000000000000000000000000000098968000000000000000000000000000000000000000000000000000000000000000640000000000000000000000000000000000000000000000000000000069d2f0dc000000000000000000000000bc9c188330a7536147375acb6a1e0c7c6897b30200000000000000000000000000000000000000000000000000000000000000194d656469756d20526f61737420436f66666565204265616e7300000000000000",
          "blockHash": "0x90f84d337eb20f5bc6e9d44dd5a39d30730cb76c4aaa3a249e3b90705f50f27d",
          "blockNumber": "0xec2ae49",
          "blockTimestamp": "0x69ab63ee",
          "transactionHash": "0x205a31a695364fa5fb8ba34dfde90113c331d93909490529bd763fe1fd553d77",
          "transactionIndex": "0x2",
          "logIndex": "0x3",
          "removed": false
        }
      ],
      "logsBloom": "0x00000000000000000000008000000000000000000100000000000000000000000000000000000000000000000000000000000000000000000000000000000000000000000000000000000000000000000000000000000000000000000002000000000000000000000000000000000000000000000000000000000000000000000000000000000800000000000000000200000000000000000000000000000008000000000000010000000000000000000000000000000000000000000000000000000000000000000000000000000000000000000000000000000000800000000000000200000000000000000000000000000000000000000000000000000000",
      "type": "0x2",
      "transactionHash": "0x205a31a695364fa5fb8ba34dfde90113c331d93909490529bd763fe1fd553d77",
      "transactionIndex": "0x2",
      "blockHash": "0x90f84d337eb20f5bc6e9d44dd5a39d30730cb76c4aaa3a249e3b90705f50f27d",
      "blockNumber": "0xec2ae49",
      "gasUsed": "0x258f0",
      "effectiveGasPrice": "0x1312d00",
      "from": "0x7ecb39c481487f9826e2a4457599ba2f86af0342",
      "to": "0x04e7e8e929c80d4262ce7dc8077d4f080b90288f",
      "contractAddress": null,
      "gasUsedForL1": "0x0",
      "l1BlockNumber": "0x9ead78",
      "timeboosted": false
    },
    {
      "status": "0x1",
      "cumulativeGasUsed": "0x29acd0",
      "logs": [
        {
          "address": "0x04e7e8e929c80d4262ce7dc8077d4f080b90288f",
          "topics": [
            "0x55bd16033ae8e80a1af8547b62c6fd40fbffbf5d4470d72387ea1872f854587b",
            "0x0000000000000000000000000000000000000000000000000000000000000010"
          ],
          "data": "0x00000000000000000000000000000000000000000000000000000000000000a0000000000000000000000000000000000000000000000000000000000098968000000000000000000000000000000000000000000000000000000000000000640000000000000000000000000000000000000000000000000000000069d2f0dc000000000000000000000000bc9c188330a7536147375acb6a1e0c7c6897b30200000000000000000000000000000000000000000000000000000000000000204461726b202f204672656e636820526f61737420436f66666565204265616e73",
          "blockHash": "0x2d6b314cb90a3929ef01cc9f52dc6f0cb6ba7e9e981e4822bb56cf97b8d2115d",
          "blockNumber": "0xec2ae4a",
          "blockTimestamp": "0x69ab63ee",
          "transactionHash": "0xf21d578f58849f4b013bbaa66800a22a5abc3bf930f1300f9203884730c980e6",
          "transactionIndex": "0x3",
          "logIndex": "0x36",
          "removed": false
        }
      ],
      "logsBloom": "0x00000000100000000000008000000000000000000100000000000000000000000000000000000000000000000000000000000000000000000000000000000000000000000000000000000000000000000000000000000000000000000000000000000000000000000000000000000000000000000000000000000000040000000000000000000000000000000000000200000100000000000000000000000008000000000000010000000000000000000000000000000000000000000000000000000000000000000000000000000000000000000000000000000000800000000000000000000000000000000000000000000000000000000000000000000000",
      "type": "0x2",
      "transactionHash": "0xf21d578f58849f4b013bbaa66800a22a5abc3bf930f1300f9203884730c980e6",
      "transactionIndex": "0x3",
      "blockHash": "0x2d6b314cb90a3929ef01cc9f52dc6f0cb6ba7e9e981e4822bb56cf97b8d2115d",
      "blockNumber": "0xec2ae4a",
      "gasUsed": "0x2afbc",
      "effectiveGasPrice": "0x1315410",
      "from": "0x7ecb39c481487f9826e2a4457599ba2f86af0342",
      "to": "0x04e7e8e929c80d4262ce7dc8077d4f080b90288f",
      "contractAddress": null,
      "gasUsedForL1": "0x0",
      "l1BlockNumber": "0x9ead78",
      "timeboosted": false
    },
    {
      "status": "0x1",
      "cumulativeGasUsed": "0x562c1",
      "logs": [
        {
          "address": "0x04e7e8e929c80d4262ce7dc8077d4f080b90288f",
          "topics": [
            "0x55bd16033ae8e80a1af8547b62c6fd40fbffbf5d4470d72387ea1872f854587b",
            "0x0000000000000000000000000000000000000000000000000000000000000011"
          ],
          "data": "0x00000000000000000000000000000000000000000000000000000000000000a00000000000000000000000000000000000000000000000000000000000f4240000000000000000000000000000000000000000000000000000000000000000320000000000000000000000000000000000000000000000000000000069d2f0dc000000000000000000000000bc9c188330a7536147375acb6a1e0c7c6897b302000000000000000000000000000000000000000000000000000000000000002644656361662053776973732057617465722050726f6365737320436f66666565204265616e730000000000000000000000000000000000000000000000000000",
          "blockHash": "0x9b3f78680b3dad31d9194e2a7e84ec76d1e2c07da2d9ca5d96f0f3b2db774244",
          "blockNumber": "0xec2ae4f",
          "blockTimestamp": "0x69ab63f0",
          "transactionHash": "0xcbbd833dc213d37f412caf395694ceeb6d28430916b90aa0179ad48f7a0f11fb",
          "transactionIndex": "0x3",
          "logIndex": "0x4",
          "removed": false
        }
      ],
      "logsBloom": "0x00000000000000000000008000000000000000000100000000000000000000000000000000000000000000000000000000000000000000000000000000000000000000000000000000000000000000000000000000000000000000000000000000000000000000000000000000000000000000004000000000000000000000000000000000000000000000000000000200000000000000000000000000000008000000000000010000000000000000000000000000000000000000000400000000001000000000000000000000000000000000000000000000000000800000000000000000000000000000000000000000000000000000000000000000000000",
      "type": "0x2",
      "transactionHash": "0xcbbd833dc213d37f412caf395694ceeb6d28430916b90aa0179ad48f7a0f11fb",
      "transactionIndex": "0x3",
      "blockHash": "0x9b3f78680b3dad31d9194e2a7e84ec76d1e2c07da2d9ca5d96f0f3b2db774244",
      "blockNumber": "0xec2ae4f",
      "gasUsed": "0x3086f",
      "effectiveGasPrice": "0x137ad10",
      "from": "0x7ecb39c481487f9826e2a4457599ba2f86af0342",
      "to": "0x04e7e8e929c80d4262ce7dc8077d4f080b90288f",
      "contractAddress": null,
      "gasUsedForL1": "0x0",
      "l1BlockNumber": "0x9ead78",
      "timeboosted": false
    },
    {
      "status": "0x1",
      "cumulativeGasUsed": "0x65ad2",
      "logs": [
        {
          "address": "0x04e7e8e929c80d4262ce7dc8077d4f080b90288f",
          "topics": [
            "0x55bd16033ae8e80a1af8547b62c6fd40fbffbf5d4470d72387ea1872f854587b",
            "0x0000000000000000000000000000000000000000000000000000000000000012"
          ],
          "data": "0x00000000000000000000000000000000000000000000000000000000000000a000000000000000000000000000000000000000000000000000000000005b8d8000000000000000000000000000000000000000000000000000000000000000c80000000000000000000000000000000000000000000000000000000069d2f0dc000000000000000000000000bc9c188330a7536147375acb6a1e0c7c6897b302000000000000000000000000000000000000000000000000000000000000001c477265656e20556e726f617374656420436f66666565204265616e7300000000",
          "blockHash": "0xe7d4244c55961d16cf468f6271b4e5556fd0f0090e3de166229c4f07da3a6f02",
          "blockNumber": "0xec2ae50",
          "blockTimestamp": "0x69ab63f0",
          "transactionHash": "0x6eb9ad1c2242e958abac7707f71a6bc7a32b0932b2c0efdfd284c3b170537812",
          "transactionIndex": "0x3",
          "logIndex": "0x2",
          "removed": false
        }
      ],
      "logsBloom": "0x00000000000000000000008000000000000000000100000000000000000000000000000000000000000000000000000000000000000000000000000000000000000000000000000000000000000000000000000000000000000000000000000000000000000000000000000000000000000000000000000000000000000000000000000000000000000000000000040200000000000000000000000000000008000000000000010000000000000000000000000000000040000000000000000000000000000000000400000000000000000000000000000000000000800000000000000000000000000000000000000000000000000000000000000000000000",
      "type": "0x2",
      "transactionHash": "0x6eb9ad1c2242e958abac7707f71a6bc7a32b0932b2c0efdfd284c3b170537812",
      "transactionIndex": "0x3",
      "blockHash": "0xe7d4244c55961d16cf468f6271b4e5556fd0f0090e3de166229c4f07da3a6f02",
      "blockNumber": "0xec2ae50",
      "gasUsed": "0x25914",
      "effectiveGasPrice": "0x1312d00",
      "from": "0x7ecb39c481487f9826e2a4457599ba2f86af0342",
      "to": "0x04e7e8e929c80d4262ce7dc8077d4f080b90288f",
      "contractAddress": null,
      "gasUsedForL1": "0x0",
      "l1BlockNumber": "0x9ead78",
      "timeboosted": false
    },
    {
      "status": "0x1",
      "cumulativeGasUsed": "0x25938",
      "logs": [
        {
          "address": "0x04e7e8e929c80d4262ce7dc8077d4f080b90288f",
          "topics": [
            "0x55bd16033ae8e80a1af8547b62c6fd40fbffbf5d4470d72387ea1872f854587b",
            "0x0000000000000000000000000000000000000000000000000000000000000013"
          ],
          "data": "0x00000000000000000000000000000000000000000000000000000000000000a00000000000000000000000000000000000000000000000000000000004c4b40000000000000000000000000000000000000000000000000000000000000000190000000000000000000000000000000000000000000000000000000069c7135c000000000000000000000000bc9c188330a7536147375acb6a1e0c7c6897b302000000000000000000000000000000000000000000000000000000000000001f486f7420506170657220437570732031326f7a2028313030302f636173652900",
          "blockHash": "0x768e132d8aa9d4f9b66a25eecfd2cd010ffedda7c81885800d2b2062d7e05448",
          "blockNumber": "0xec2ae55",
          "blockTimestamp": "0x69ab63f1",
          "transactionHash": "0x013b5aa76ac4c1f9cbf5dd363d7e4c9bf0ea502431939e3dfcff7e214b0f787f",
          "transactionIndex": "0x1",
          "logIndex": "0x0",
          "removed": false
        }
      ],
      "logsBloom": "0x20000000000000000000008000800000000000000100000000000000000000000000000040000000000000000000000000000000000000000000000000000000000000000000000000000000000000000000000000000000000000000000000000000000000000000000000000000000000000000000000000000000000000000000000000000000000000000000000200000000000000000000000000000008000000000000010000000000000000000000000000000000000000000000000000000000000000000000000000000000000000000000000000000000800000000000000000000000000000000000000000000000000000000000000000000000",
      "type": "0x2",
      "transactionHash": "0x013b5aa76ac4c1f9cbf5dd363d7e4c9bf0ea502431939e3dfcff7e214b0f787f",
      "transactionIndex": "0x1",
      "blockHash": "0x768e132d8aa9d4f9b66a25eecfd2cd010ffedda7c81885800d2b2062d7e05448",
      "blockNumber": "0xec2ae55",
      "gasUsed": "0x25938",
      "effectiveGasPrice": "0x13134d0",
      "from": "0x7ecb39c481487f9826e2a4457599ba2f86af0342",
      "to": "0x04e7e8e929c80d4262ce7dc8077d4f080b90288f",
      "contractAddress": null,
      "gasUsedForL1": "0x0",
      "l1BlockNumber": "0x9ead79",
      "timeboosted": false
    },
    {
      "status": "0x1",
      "cumulativeGasUsed": "0x25944",
      "logs": [
        {
          "address": "0x04e7e8e929c80d4262ce7dc8077d4f080b90288f",
          "topics": [
            "0x55bd16033ae8e80a1af8547b62c6fd40fbffbf5d4470d72387ea1872f854587b",
            "0x0000000000000000000000000000000000000000000000000000000000000014"
          ],
          "data": "0x00000000000000000000000000000000000000000000000000000000000000a00000000000000000000000000000000000000000000000000000000005a995c000000000000000000000000000000000000000000000000000000000000000140000000000000000000000000000000000000000000000000000000069c7135c000000000000000000000000bc9c188330a7536147375acb6a1e0c7c6897b302000000000000000000000000000000000000000000000000000000000000001f486f7420506170657220437570732031366f7a2028313030302f636173652900",
          "blockHash": "0xa87f17cf8cd9af7777517fcdcb48a0ac134fb7f39f8576591cb90d06311caaf8",
          "blockNumber": "0xec2ae56",
          "blockTimestamp": "0x69ab63f1",
          "transactionHash": "0xbb39d4e7cf0686a20f8685d28735327c4bc27b17d429564f97177bcca27e4c71",
          "transactionIndex": "0x1",
          "logIndex": "0x0",
          "removed": false
        }
      ],
      "logsBloom": "0x00000000000000000000008000000000000000000100000000000000000000000000000000000000000000000000000000002000000000000000000000000000000000000000000000000000000000000000000000000000000000000000000000000000000000000000000000000000000000000000000000000000000000000000000000000000000000000000000200000000000400000000000000000008000000000000010020000000000000000000000000000000000000000000000000000000000000000000000000000000000000000000000000000000800000000000000000000000000000000000000000000000000000000000000000000000",
      "type": "0x2",
      "transactionHash": "0xbb39d4e7cf0686a20f8685d28735327c4bc27b17d429564f97177bcca27e4c71",
      "transactionIndex": "0x1",
      "blockHash": "0xa87f17cf8cd9af7777517fcdcb48a0ac134fb7f39f8576591cb90d06311caaf8",
      "blockNumber": "0xec2ae56",
      "gasUsed": "0x25944",
      "effectiveGasPrice": "0x132a400",
      "from": "0x7ecb39c481487f9826e2a4457599ba2f86af0342",
      "to": "0x04e7e8e929c80d4262ce7dc8077d4f080b90288f",
      "contractAddress": null,
      "gasUsedForL1": "0x0",
      "l1BlockNumber": "0x9ead79",
      "timeboosted": false
    },
    {
      "status": "0x1",
      "cumulativeGasUsed": "0x36f16",
      "logs": [
        {
          "address": "0x04e7e8e929c80d4262ce7dc8077d4f080b90288f",
          "topics": [
            "0x55bd16033ae8e80a1af8547b62c6fd40fbffbf5d4470d72387ea1872f854587b",
            "0x0000000000000000000000000000000000000000000000000000000000000015"
          ],
          "data": "0x00000000000000000000000000000000000000000000000000000000000000a000000000000000000000000000000000000000000000000000000000042c1d8000000000000000000000000000000000000000000000000000000000000000190000000000000000000000000000000000000000000000000000000069c7135c000000000000000000000000bc9c188330a7536147375acb6a1e0c7c6897b3020000000000000000000000000000000000000000000000000000000000000020436f6c6420436c65617220437570732031366f7a2028313030302f6361736529",
          "blockHash": "0xa4ee763be1b97ed10da755ad3abc0c45c90f1c1128de4dade66cc1ae2fe523e7",
          "blockNumber": "0xec2ae5b",
          "blockTimestamp": "0x69ab63f3",
          "transactionHash": "0x7e31e86b400ceac1d9b3e83502104f084c59fa65156174375171da68531f6b8e",
          "transactionIndex": "0x2",
          "logIndex": "0x1",
          "removed": false
        }
      ],
      "logsBloom": "0x00000000000000000000008000000000000000000100000000000000000000000000000000000000000000000000000000000000000000000000000000000000001000000000000000000000000000000000000000000000000000000000000000000000000000000000000000000000000000000000000000000000000000000000000000000000000000000000000200000000000000000000000000000008000000000000010000000000010000000000000000000000000000000000000000000000000000000000000000000000000000000000000000000000800000002000000000000000000000000000000000000000000000000000000000000000",
      "type": "0x2",
      "transactionHash": "0x7e31e86b400ceac1d9b3e83502104f084c59fa65156174375171da68531f6b8e",
      "transactionIndex": "0x2",
      "blockHash": "0xa4ee763be1b97ed10da755ad3abc0c45c90f1c1128de4dade66cc1ae2fe523e7",
      "blockNumber": "0xec2ae5b",
      "gasUsed": "0x2afc8",
      "effectiveGasPrice": "0x1316b80",
      "from": "0x7ecb39c481487f9826e2a4457599ba2f86af0342",
      "to": "0x04e7e8e929c80d4262ce7dc8077d4f080b90288f",
      "contractAddress": null,
      "gasUsedForL1": "0x0",
      "l1BlockNumber": "0x9ead79",
      "timeboosted": false
    },
    {
      "status": "0x1",
      "cumulativeGasUsed": "0x3086f",
      "logs": [
        {
          "address": "0x04e7e8e929c80d4262ce7dc8077d4f080b90288f",
          "topics": [
            "0x55bd16033ae8e80a1af8547b62c6fd40fbffbf5d4470d72387ea1872f854587b",
            "0x0000000000000000000000000000000000000000000000000000000000000016"
          ],
          "data": "0x00000000000000000000000000000000000000000000000000000000000000a000000000000000000000000000000000000000000000000000000000055d4a8000000000000000000000000000000000000000000000000000000000000000140000000000000000000000000000000000000000000000000000000069c7135c000000000000000000000000bc9c188330a7536147375acb6a1e0c7c6897b3020000000000000000000000000000000000000000000000000000000000000024436f6d706f737461626c6520486f7420437570732031326f7a20283530302f636173652900000000000000000000000000000000000000000000000000000000",
          "blockHash": "0x72cc427ee8ab49aa00fbce650fbb9bfb16cb12643a368bb19f0eef289356c68d",
          "blockNumber": "0xec2ae60",
          "blockTimestamp": "0x69ab63f4",
          "transactionHash": "0xba1d7e0a1548833afed5ac00f0f10aca3b2836f81d82293b1a2189c95133ccc3",
          "transactionIndex": "0x1",
          "logIndex": "0x0",
          "removed": false
        }
      ],
      "logsBloom": "0x00000000000000000000008000000000000000000100000000000000000000000000000000000000000000000000000000000000000000000000000000000000000000000000000800000000000000000000000000000000000000000000000000000000000000000000000000000000200000000000000000000000000000000000000000000000000000000000000200000000000000000000000000000008000000000000010000000000000000000000000000000000000000000000000000000000000000000000000000000000000000000000000000000000800000000000000000000000000000000000000000000000000000000008000000000000",
      "type": "0x2",
      "transactionHash": "0xba1d7e0a1548833afed5ac00f0f10aca3b2836f81d82293b1a2189c95133ccc3",
      "transactionIndex": "0x1",
      "blockHash": "0x72cc427ee8ab49aa00fbce650fbb9bfb16cb12643a368bb19f0eef289356c68d",
      "blockNumber": "0xec2ae60",
      "gasUsed": "0x3086f",
      "effectiveGasPrice": "0x1312d00",
      "from": "0x7ecb39c481487f9826e2a4457599ba2f86af0342",
      "to": "0x04e7e8e929c80d4262ce7dc8077d4f080b90288f",
      "contractAddress": null,
      "gasUsedForL1": "0x0",
      "l1BlockNumber": "0x9ead79",
      "timeboosted": false
    },
    {
      "status": "0x1",
      "cumulativeGasUsed": "0x3087b",
      "logs": [
        {
          "address": "0x04e7e8e929c80d4262ce7dc8077d4f080b90288f",
          "topics": [
            "0x55bd16033ae8e80a1af8547b62c6fd40fbffbf5d4470d72387ea1872f854587b",
            "0x0000000000000000000000000000000000000000000000000000000000000017"
          ],
          "data": "0x00000000000000000000000000000000000000000000000000000000000000a00000000000000000000000000000000000000000000000000000000002625a0000000000000000000000000000000000000000000000000000000000000000280000000000000000000000000000000000000000000000000000000069c7135c000000000000000000000000bc9c188330a7536147375acb6a1e0c7c6897b3020000000000000000000000000000000000000000000000000000000000000026466c6174204c69647320666f722031322d31366f7a20437570732028313030302f63617365290000000000000000000000000000000000000000000000000000",
          "blockHash": "0x1abe562893e859f76fa1db339ecd49fe4a69cff74b4a05ab434262c35cc003a2",
          "blockNumber": "0xec2ae64",
          "blockTimestamp": "0x69ab63f5",
          "transactionHash": "0xb62d2bfd729017c717921f16d80c026e4bf89d77d1722584ea42fff239cea8ce",
          "transactionIndex": "0x1",
          "logIndex": "0x0",
          "removed": false
        }
      ],
      "logsBloom": "0x00000000000000000000008000000000000000000100000000000000000000000000000000000000000000000000000000001000000000000000001000000000000000000000000000000000000000000000000000000000000000000000000000000000000000000000000000000000000000000000000000000000000000000000000000000000000000000000000200000000000000000000000000000008000000000000010000000000000000000000000000000000000000000000000000000000000000000000000000000000000000000000000000000000800000000000000000000000000000000000000000000000000000000000000000080000",
      "type": "0x2",
      "transactionHash": "0xb62d2bfd729017c717921f16d80c026e4bf89d77d1722584ea42fff239cea8ce",
      "transactionIndex": "0x1",
      "blockHash": "0x1abe562893e859f76fa1db339ecd49fe4a69cff74b4a05ab434262c35cc003a2",
      "blockNumber": "0xec2ae64",
      "gasUsed": "0x3087b",
      "effectiveGasPrice": "0x1312d00",
      "from": "0x7ecb39c481487f9826e2a4457599ba2f86af0342",
      "to": "0x04e7e8e929c80d4262ce7dc8077d4f080b90288f",
      "contractAddress": null,
      "gasUsedForL1": "0x0",
      "l1BlockNumber": "0x9ead79",
      "timeboosted": false
    },
    {
      "status": "0x1",
      "cumulativeGasUsed": "0x3089f",
      "logs": [
        {
          "address": "0x04e7e8e929c80d4262ce7dc8077d4f080b90288f",
          "topics": [
            "0x55bd16033ae8e80a1af8547b62c6fd40fbffbf5d4470d72387ea1872f854587b",
            "0x0000000000000000000000000000000000000000000000000000000000000018"
          ],
          "data": "0x00000000000000000000000000000000000000000000000000000000000000a00000000000000000000000000000000000000000000000000000000002160ec000000000000000000000000000000000000000000000000000000000000000320000000000000000000000000000000000000000000000000000000069c7135c000000000000000000000000bc9c188330a7536147375acb6a1e0c7c6897b3020000000000000000000000000000000000000000000000000000000000000028332d436f6d706172746d656e7420436c616d7368656c6c20426f78657320283230302f6361736529000000000000000000000000000000000000000000000000",
          "blockHash": "0x0d716b6741a000b3a9a4ad9dc80bb0b042f894d8b14aa22db7d5d2f45c1a6e0c",
          "blockNumber": "0xec2ae65",
          "blockTimestamp": "0x69ab63f5",
          "transactionHash": "0x71e403842e6f753e20b6cbba0b109234314bcf3ca80c98dd71420d136e0f6d7d",
          "transactionIndex": "0x1",
          "logIndex": "0x0",
          "removed": false
        }
      ],
      "logsBloom": "0x00000000000000000000008000000000000000000100000000000000000000000000000000000000000000000000000000000000000000000000000000000000000000000000000000000000000000000040000000000000000000000000000000000000000000000000000000000000000000000000000000000000000000000000000000000000000000000000000200000000000000000000000000000008000000000000010000000000000000000000000000000000000000000000000000100000000000000000000000000000000000000000000020000000800000000000000000000000000000000000000000000000000000000000000000000000",
      "type": "0x2",
      "transactionHash": "0x71e403842e6f753e20b6cbba0b109234314bcf3ca80c98dd71420d136e0f6d7d",
      "transactionIndex": "0x1",
      "blockHash": "0x0d716b6741a000b3a9a4ad9dc80bb0b042f894d8b14aa22db7d5d2f45c1a6e0c",
      "blockNumber": "0xec2ae65",
      "gasUsed": "0x3089f",
      "effectiveGasPrice": "0x1315410",
      "from": "0x7ecb39c481487f9826e2a4457599ba2f86af0342",
      "to": "0x04e7e8e929c80d4262ce7dc8077d4f080b90288f",
      "contractAddress": null,
      "gasUsedForL1": "0x0",
      "l1BlockNumber": "0x9ead79",
      "timeboosted": false
    },
    {
      "status": "0x1",
      "cumulativeGasUsed": "0x63dc1",
      "logs": [
        {
          "address": "0x04e7e8e929c80d4262ce7dc8077d4f080b90288f",
          "topics": [
            "0x55bd16033ae8e80a1af8547b62c6fd40fbffbf5d4470d72387ea1872f854587b",
            "0x0000000000000000000000000000000000000000000000000000000000000019"
          ],
          "data": "0x00000000000000000000000000000000000000000000000000000000000000a00000000000000000000000000000000000000000000000000000000001c9c38000000000000000000000000000000000000000000000000000000000000000320000000000000000000000000000000000000000000000000000000069c7135c000000000000000000000000bc9c188330a7536147375acb6a1e0c7c6897b302000000000000000000000000000000000000000000000000000000000000002b44656c6920536f757020436f6e7461696e6572732033326f7a20772f4c69647320283235302f6361736529000000000000000000000000000000000000000000",
          "blockHash": "0x98d031e48c1748d12b6a40d0c987996e1a3c965f165c4d986e65985aa2e830da",
          "blockNumber": "0xec2ae66",
          "blockTimestamp": "0x69ab63f5",
          "transactionHash": "0xb9e4709b981519bba5fa08608217cc577ffef519b30c3f904949a6c485b40c0c",
          "transactionIndex": "0x3",
          "logIndex": "0x6",
          "removed": false
        }
      ],
      "logsBloom": "0x00000000000000000000008000000000000000000100000000000000000000000000000000000000000000000000000000000000000000800000000000000000000000000000000000000000000000000000000000000000000000000000000000000000000000000000000000000000000000000000020000000000000000000000000000000000000000000000000200000000000000000000000000000008000000000000010000000000000000000000000000000000000000000000000000000000000000000000000000000000000000000000000000000000800000000000000000000000000000000000000000000000000000000000008000000000",
      "type": "0x2",
      "transactionHash": "0xb9e4709b981519bba5fa08608217cc577ffef519b30c3f904949a6c485b40c0c",
      "transactionIndex": "0x3",
      "blockHash": "0x98d031e48c1748d12b6a40d0c987996e1a3c965f165c4d986e65985aa2e830da",
      "blockNumber": "0xec2ae66",
      "gasUsed": "0x308c3",
      "effectiveGasPrice": "0x1317b20",
      "from": "0x7ecb39c481487f9826e2a4457599ba2f86af0342",
      "to": "0x04e7e8e929c80d4262ce7dc8077d4f080b90288f",
      "contractAddress": null,
      "gasUsedForL1": "0x0",
      "l1BlockNumber": "0x9ead79",
      "timeboosted": false
    },
    {
      "status": "0x1",
      "cumulativeGasUsed": "0x63d85",
      "logs": [
        {
          "address": "0x04e7e8e929c80d4262ce7dc8077d4f080b90288f",
          "topics": [
            "0x55bd16033ae8e80a1af8547b62c6fd40fbffbf5d4470d72387ea1872f854587b",
            "0x000000000000000000000000000000000000000000000000000000000000001a"
          ],
          "data": "0x00000000000000000000000000000000000000000000000000000000000000a000000000000000000000000000000000000000000000000000000000017d7840000000000000000000000000000000000000000000000000000000000000003c0000000000000000000000000000000000000000000000000000000069c7135c000000000000000000000000bc9c188330a7536147375acb6a1e0c7c6897b3020000000000000000000000000000000000000000000000000000000000000027416c756d696e756d20466f696c2050616e732048616c662d53697a6520283130302f636173652900000000000000000000000000000000000000000000000000",
          "blockHash": "0xc87593e4eebbf4ea811df2023c3332031271511efbf9543329f5c59a241c427b",
          "blockNumber": "0xec2ae67",
          "blockTimestamp": "0x69ab63f6",
          "transactionHash": "0x1535cb031194580e856fc2cf3d64c5a5c38d6e215cb509e2906c77af25d00938",
          "transactionIndex": "0x3",
          "logIndex": "0x6",
          "removed": false
        }
      ],
      "logsBloom": "0x00000000000000000000008000000000000000000100000000000000000000000000000000000000000000000000000000000000000000000000000000000000000000000000000000000000000000001000000000000000000000001000000000000000000000000000000000000000000000000000000000000000000000000000000000000000000000000000000200000000000000000000000000000008000000000000010000000000000000000000000000000000000000000000000000000000000000000000000000000000000000000000000000000000800000000000000000000000000000000000000000000000000004000000000000000000",
      "type": "0x2",
      "transactionHash": "0x1535cb031194580e856fc2cf3d64c5a5c38d6e215cb509e2906c77af25d00938",
      "transactionIndex": "0x3",
      "blockHash": "0xc87593e4eebbf4ea811df2023c3332031271511efbf9543329f5c59a241c427b",
      "blockNumber": "0xec2ae67",
      "gasUsed": "0x30893",
      "effectiveGasPrice": "0x131a230",
      "from": "0x7ecb39c481487f9826e2a4457599ba2f86af0342",
      "to": "0x04e7e8e929c80d4262ce7dc8077d4f080b90288f",
      "contractAddress": null,
      "gasUsedForL1": "0x0",
      "l1BlockNumber": "0x9ead79",
      "timeboosted": false
    },
    {
      "status": "0x1",
      "cumulativeGasUsed": "0x4a2b8",
      "logs": [
        {
          "address": "0x04e7e8e929c80d4262ce7dc8077d4f080b90288f",
          "topics": [
            "0x55bd16033ae8e80a1af8547b62c6fd40fbffbf5d4470d72387ea1872f854587b",
            "0x000000000000000000000000000000000000000000000000000000000000001b"
          ],
          "data": "0x00000000000000000000000000000000000000000000000000000000000000a00000000000000000000000000000000000000000000000000000000001312d00000000000000000000000000000000000000000000000000000000000000004b0000000000000000000000000000000000000000000000000000000069c7135c000000000000000000000000bc9c188330a7536147375acb6a1e0c7c6897b3020000000000000000000000000000000000000000000000000000000000000023436f6d706f737461626c65204375746c657279204b69747320283235302f63617365290000000000000000000000000000000000000000000000000000000000",
          "blockHash": "0x8a4b376705faf856de5bc7b67b70aabac2d18e5ba87c8ce3f5acd284976048e7",
          "blockNumber": "0xec2ae6c",
          "blockTimestamp": "0x69ab63f7",
          "transactionHash": "0xd081d421f09f975d1327b6ac7c9a01c1a52b5a8db8fbbf7c7cd5c944c6dd9fbb",
          "transactionIndex": "0x2",
          "logIndex": "0x3",
          "removed": false
        }
      ],
      "logsBloom": "0x00000000000000000000008000000000000000000110000000000000000000000000000000000000000000000000000000000000000000000000000000000000000000000000000000000000000000000000000000000000000000000000000000000000000000000000000000000000000000000000000000000000000000000000000000000000000000000000000200000000000000000000000000000008000000000100010000000000000000000000000000008000000000000000000000000000000000000000000000000000000000000000000000000000800000000000000000000000000000000000000000000000000000000000000000000000",
      "type": "0x2",
      "transactionHash": "0xd081d421f09f975d1327b6ac7c9a01c1a52b5a8db8fbbf7c7cd5c944c6dd9fbb",
      "transactionIndex": "0x2",
      "blockHash": "0x8a4b376705faf856de5bc7b67b70aabac2d18e5ba87c8ce3f5acd284976048e7",
      "blockNumber": "0xec2ae6c",
      "gasUsed": "0x30857",
      "effectiveGasPrice": "0x1312d00",
      "from": "0x7ecb39c481487f9826e2a4457599ba2f86af0342",
      "to": "0x04e7e8e929c80d4262ce7dc8077d4f080b90288f",
      "contractAddress": null,
      "gasUsedForL1": "0x0",
      "l1BlockNumber": "0x9ead79",
      "timeboosted": false
    },
    {
      "status": "0x1",
      "cumulativeGasUsed": "0x258f0",
      "logs": [
        {
          "address": "0x04e7e8e929c80d4262ce7dc8077d4f080b90288f",
          "topics": [
            "0x55bd16033ae8e80a1af8547b62c6fd40fbffbf5d4470d72387ea1872f854587b",
            "0x000000000000000000000000000000000000000000000000000000000000001c"
          ],
          "data": "0x00000000000000000000000000000000000000000000000000000000000000a00000000000000000000000000000000000000000000000000000000002160ec000000000000000000000000000000000000000000000000000000000000000320000000000000000000000000000000000000000000000000000000069c7135c000000000000000000000000bc9c188330a7536147375acb6a1e0c7c6897b302000000000000000000000000000000000000000000000000000000000000001842756c6b204e61706b696e732028383030302f63617365290000000000000000",
          "blockHash": "0x83e91227aa1f617f15fd26a563ef00c562c9ef3c56b022d4a9161301883bd27e",
          "blockNumber": "0xec2ae70",
          "blockTimestamp": "0x69ab63f8",
          "transactionHash": "0x929b6afaef58e1e8005f21fa7c711e1be2e5c7b1f989dd2df52fb0b76554a083",
          "transactionIndex": "0x1",
          "logIndex": "0x0",
          "removed": false
        }
      ],
      "logsBloom": "0x00000000000000000000008000000000000000000100000000000000000000000000000000000000000000000000000000000000000000200000000000000000000000000000000000000000000000000000000000000000000000000000000000000000000000000000000000000000000000000000000000000000000000000000000000000000000000000000000200000000000000000000000000000008000000000000010000000002000000000000000000000000000000000000000000000000000000000000000000000000000000000000000000000000800000000000000000000000000000000000000000000000000000000000000000000000",
      "type": "0x2",
      "transactionHash": "0x929b6afaef58e1e8005f21fa7c711e1be2e5c7b1f989dd2df52fb0b76554a083",
      "transactionIndex": "0x1",
      "blockHash": "0x83e91227aa1f617f15fd26a563ef00c562c9ef3c56b022d4a9161301883bd27e",
      "blockNumber": "0xec2ae70",
      "gasUsed": "0x258f0",
      "effectiveGasPrice": "0x1312d00",
      "from": "0x7ecb39c481487f9826e2a4457599ba2f86af0342",
      "to": "0x04e7e8e929c80d4262ce7dc8077d4f080b90288f",
      "contractAddress": null,
      "gasUsedForL1": "0x0",
      "l1BlockNumber": "0x9ead79",
      "timeboosted": false
    },
    {
      "status": "0x1",
      "cumulativeGasUsed": "0x25908",
      "logs": [
        {
          "address": "0x04e7e8e929c80d4262ce7dc8077d4f080b90288f",
          "topics": [
            "0x55bd16033ae8e80a1af8547b62c6fd40fbffbf5d4470d72387ea1872f854587b",
            "0x000000000000000000000000000000000000000000000000000000000000001d"
          ],
          "data": "0x00000000000000000000000000000000000000000000000000000000000000a00000000000000000000000000000000000000000000000000000000000e4e1c000000000000000000000000000000000000000000000000000000000000000640000000000000000000000000000000000000000000000000000000069c7135c000000000000000000000000bc9c188330a7536147375acb6a1e0c7c6897b302000000000000000000000000000000000000000000000000000000000000001b45636f2050617065722053747261777320283530302f63617365290000000000",
          "blockHash": "0x88ba3a5f641906449ef30a881d5a5a2c68cb526784ed790c0c1cce78a7a4b627",
          "blockNumber": "0xec2ae73",
          "blockTimestamp": "0x69ab63f9",
          "transactionHash": "0xd016e4793094535166a26ac98ebdef5486615ded6f7dc4dbe061a752b7334fd3",
          "transactionIndex": "0x1",
          "logIndex": "0x0",
          "removed": false
        }
      ],
      "logsBloom": "0x00000080000000000000008000000000000000000100000000000000000000000000000000000000000000000000000000000000000000000000000200000000000000000000000000000000000000000000000000000010000000000000000000000000000000000000000000000000000000000000000000000000000000000000000000000000000000000000000200000000000000000000000000000008000000000000010000000000000000000000000000000000000000000000000000000000000000000000000000000000000000000000000000000000800000000000000000000000000000000000000000000000000000000000000000000000",
      "type": "0x2",
      "transactionHash": "0xd016e4793094535166a26ac98ebdef5486615ded6f7dc4dbe061a752b7334fd3",
      "transactionIndex": "0x1",
      "blockHash": "0x88ba3a5f641906449ef30a881d5a5a2c68cb526784ed790c0c1cce78a7a4b627",
      "blockNumber": "0xec2ae73",
      "gasUsed": "0x25908",
      "effectiveGasPrice": "0x1312d00",
      "from": "0x7ecb39c481487f9826e2a4457599ba2f86af0342",
      "to": "0x04e7e8e929c80d4262ce7dc8077d4f080b90288f",
      "contractAddress": null,
      "gasUsedForL1": "0x0",
      "l1BlockNumber": "0x9ead79",
      "timeboosted": false
    },
    {
      "status": "0x1",
      "cumulativeGasUsed": "0x3086f",
      "logs": [
        {
          "address": "0x04e7e8e929c80d4262ce7dc8077d4f080b90288f",
          "topics": [
            "0x55bd16033ae8e80a1af8547b62c6fd40fbffbf5d4470d72387ea1872f854587b",
            "0x000000000000000000000000000000000000000000000000000000000000001e"
          ],
          "data": "0x00000000000000000000000000000000000000000000000000000000000000a00000000000000000000000000000000000000000000000000000000002625a0000000000000000000000000000000000000000000000000000000000000000280000000000000000000000000000000000000000000000000000000069c7135c000000000000000000000000bc9c188330a7536147375acb6a1e0c7c6897b30200000000000000000000000000000000000000000000000000000000000000254b726166742050617065722043617272792d4f7574204261677320283530302f6361736529000000000000000000000000000000000000000000000000000000",
          "blockHash": "0x6c1eab194731c41b28c2d6362e6d5fd208aabfa6559cd8baba60fc889d653011",
          "blockNumber": "0xec2ae75",
          "blockTimestamp": "0x69ab63fa",
          "transactionHash": "0xa842febdddd557069f8042f76b8e15233084fa4324952b3cfe30ef78844041a4",
          "transactionIndex": "0x1",
          "logIndex": "0x0",
          "removed": false
        }
      ],
      "logsBloom": "0x00000000000000000000008000000000000000000100000000000000000000000000000000000000000000000400000000000000000000000000000000000000000000000000008000000000000000000000000000000000000000000000000000000000000000000000000000000000000000000000000000000000000000000000000000000000000000000000000200000000000000000000000000000008000000000000010000000000000000000000000000000000000000000000000000000000000000000000000000000000000000000000000000000000800000000000000000000000080000000000000000000000000000000000000000000000",
      "type": "0x2",
      "transactionHash": "0xa842febdddd557069f8042f76b8e15233084fa4324952b3cfe30ef78844041a4",
      "transactionIndex": "0x1",
      "blockHash": "0x6c1eab194731c41b28c2d6362e6d5fd208aabfa6559cd8baba60fc889d653011",
      "blockNumber": "0xec2ae75",
      "gasUsed": "0x3086f",
      "effectiveGasPrice": "0x1312d00",
      "from": "0x7ecb39c481487f9826e2a4457599ba2f86af0342",
      "to": "0x04e7e8e929c80d4262ce7dc8077d4f080b90288f",
      "contractAddress": null,
      "gasUsedForL1": "0x0",
      "l1BlockNumber": "0x9ead79",
      "timeboosted": false
    },
    {
      "status": "0x1",
      "cumulativeGasUsed": "0x47ee9",
      "logs": [
        {
          "address": "0x04e7e8e929c80d4262ce7dc8077d4f080b90288f",
          "topics": [
            "0x55bd16033ae8e80a1af8547b62c6fd40fbffbf5d4470d72387ea1872f854587b",
            "0x000000000000000000000000000000000000000000000000000000000000001f"
          ],
          "data": "0x00000000000000000000000000000000000000000000000000000000000000a000000000000000000000000000000000000000000000000000000000017d7840000000000000000000000000000000000000000000000000000000000000003c0000000000000000000000000000000000000000000000000000000069c7135c000000000000000000000000bc9c188330a7536147375acb6a1e0c7c6897b302000000000000000000000000000000000000000000000000000000000000002454616b656f7574204261677320776974682048616e646c657320283235302f636173652900000000000000000000000000000000000000000000000000000000",
          "blockHash": "0x8476ac73657e5bad568b1194c5155b17317b75cab64e9ae17a65f5b81c7f4659",
          "blockNumber": "0xec2ae76",
          "blockTimestamp": "0x69ab63fa",
          "transactionHash": "0xaa565eaea3d3971f7cca19592bcde489cd724ccdbcc328a5e607006b17234bfd",
          "transactionIndex": "0x2",
          "logIndex": "0x1",
          "removed": false
        }
      ],
      "logsBloom": "0x00000000000000000000008400000000000000000100000000000000000000000000000000000000000000000000000000000000000000000000000000000000000000000000000000000000000000000000000000000000000000000000000000000000000000000000000000000000000000000000000000000000000000000000000000000000000000000000000200000000000000000000000000000008000000000000010000000000000000000000000000000000000000000001000000000000000000000000000000000000000000000000000000000000800000000000000000000000000000000000000000000000000000000100000000000000",
      "type": "0x2",
      "transactionHash": "0xaa565eaea3d3971f7cca19592bcde489cd724ccdbcc328a5e607006b17234bfd",
      "transactionIndex": "0x2",
      "blockHash": "0x8476ac73657e5bad568b1194c5155b17317b75cab64e9ae17a65f5b81c7f4659",
      "blockNumber": "0xec2ae76",
      "gasUsed": "0x3086f",
      "effectiveGasPrice": "0x1312d00",
      "from": "0x7ecb39c481487f9826e2a4457599ba2f86af0342",
      "to": "0x04e7e8e929c80d4262ce7dc8077d4f080b90288f",
      "contractAddress": null,
      "gasUsedForL1": "0x0",
      "l1BlockNumber": "0x9ead79",
      "timeboosted": false
    },
    {
      "status": "0x1",
      "cumulativeGasUsed": "0x2afbc",
      "logs": [
        {
          "address": "0x04e7e8e929c80d4262ce7dc8077d4f080b90288f",
          "topics": [
            "0x55bd16033ae8e80a1af8547b62c6fd40fbffbf5d4470d72387ea1872f854587b",
            "0x0000000000000000000000000000000000000000000000000000000000000020"
          ],
          "data": "0x00000000000000000000000000000000000000000000000000000000000000a00000000000000000000000000000000000000000000000000000000001312d0000000000000000000000000000000000000000000000000000000000000000500000000000000000000000000000000000000000000000000000000069c7135c000000000000000000000000bc9c188330a7536147375acb6a1e0c7c6897b3020000000000000000000000000000000000000000000000000000000000000020466f696c20262050617263686d656e7420466f6f64205772617020526f6c6c73",
          "blockHash": "0xacecee76aab113091e964f8178f679aa3433a64e87b8f24938b61ece5c712e45",
          "blockNumber": "0xec2ae77",
          "blockTimestamp": "0x69ab63fa",
          "transactionHash": "0xa26912f894909de2d38eca2411a4c16abaf78c9093e6a91f7d2447e16885ed44",
          "transactionIndex": "0x1",
          "logIndex": "0x0",
          "removed": false
        }
      ],
      "logsBloom": "0x00000000000000000000008000000000000000000100000000000000000000000000000000000000000000000000000000000000000000000000000000000000000000000000000000000000000000000000000000000000000000000000000000000000000000000000000000000000000000000000000000000000000000000000000000000000000000000000000200000000000000000000000000000008000400000000010000000000000000000000000000000000000000000000000000000000000000000000000000000000080000000000000000000000800000000000400000000000000000000000000000000000000000000000000000000000",
      "type": "0x2",
      "transactionHash": "0xa26912f894909de2d38eca2411a4c16abaf78c9093e6a91f7d2447e16885ed44",
      "transactionIndex": "0x1",
      "blockHash": "0xacecee76aab113091e964f8178f679aa3433a64e87b8f24938b61ece5c712e45",
      "blockNumber": "0xec2ae77",
      "gasUsed": "0x2afbc",
      "effectiveGasPrice": "0x13163b0",
      "from": "0x7ecb39c481487f9826e2a4457599ba2f86af0342",
      "to": "0x04e7e8e929c80d4262ce7dc8077d4f080b90288f",
      "contractAddress": null,
      "gasUsedForL1": "0x0",
      "l1BlockNumber": "0x9ead79",
      "timeboosted": false
    }
  ],
  "libraries": [],
  "pending": [],
  "returns": {},
  "timestamp": 1772839930860,
  "chain": 421614,
  "commit": "448f3af"
}