{
  "transactions": [
    {
      "hash": "0x4fd9cbd78761812e0922afd219dcef3576fa0b222d13e65998976bdb92857beb",
      "transactionType": "CALL",
      "contractName": null,
      "contractAddress": "0x615715d5cc81c67eee64490a863c97c04af02c43",
      "function": "createPool(string,uint256,uint256,uint256,address)",
      "arguments": [
        "Arabica House Blend Coffee Beans",
        "10000000",
        "100",
        "1775524490",
        "0xDf2C71ACf78172cd32C6E4ba6D80D09E87F299Ef"
      ],
      "transaction": {
        "from": "0x7ecb39c481487f9826e2a4457599ba2f86af0342",
        "to": "0x615715d5cc81c67eee64490a863c97c04af02c43",
        "gas": "0x3e3d5",
        "value": "0x0",
        "input": "0x8ed4f90c00000000000000000000000000000000000000000000000000000000000000a0000000000000000000000000000000000000000000000000000000000098968000000000000000000000000000000000000000000000000000000000000000640000000000000000000000000000000000000000000000000000000069d45a8a000000000000000000000000df2c71acf78172cd32c6e4ba6d80d09e87f299ef00000000000000000000000000000000000000000000000000000000000000204172616269636120486f75736520426c656e6420436f66666565204265616e73",
        "nonce": "0x29",
        "chainId": "0x66eee"
      },
      "additionalContracts": [],
      "isFixedGasLimit": false
    },
    {
      "hash": "0xe85257937144b1eeb6952baa39d5b708cfa2eb96124f01175a11c73efaa97c0f",
      "transactionType": "CALL",
      "contractName": null,
      "contractAddress": "0x615715d5cc81c67eee64490a863c97c04af02c43",
      "function": "createPool(string,uint256,uint256,uint256,address)",
      "arguments": [
        "Arabica Espresso Blend Coffee Beans",
        "11000000",
        "90",
        "1775524490",
        "0xDf2C71ACf78172cd32C6E4ba6D80D09E87F299Ef"
      ],
      "transaction": {
        "from": "0x7ecb39c481487f9826e2a4457599ba2f86af0342",
        "to": "0x615715d5cc81c67eee64490a863c97c04af02c43",
        "gas": "0x457fe",
        "value": "0x0",
        "input": "0x8ed4f90c00000000000000000000000000000000000000000000000000000000000000a00000000000000000000000000000000000000000000000000000000000a7d8c0000000000000000000000000000000000000000000000000000000000000005a0000000000000000000000000000000000000000000000000000000069d45a8a000000000000000000000000df2c71acf78172cd32c6e4ba6d80d09e87f299ef00000000000000000000000000000000000000000000000000000000000000234172616269636120457370726573736f20426c656e6420436f66666565204265616e730000000000000000000000000000000000000000000000000000000000",
        "nonce": "0x2a",
        "chainId": "0x66eee"
      },
      "additionalContracts": [],
      "isFixedGasLimit": false
    },
    {
      "hash": "0x2b2d0bd7737ac805ed59a22f9961c9ef19865a80f471b33ae711f623326253b8",
      "transactionType": "CALL",
      "contractName": null,
      "contractAddress": "0x615715d5cc81c67eee64490a863c97c04af02c43",
      "function": "createPool(string,uint256,uint256,uint256,address)",
      "arguments": [
        "Ethiopian Single-Origin Coffee Beans",
        "18000000",
        "50",
        "1775524490",
        "0xDf2C71ACf78172cd32C6E4ba6D80D09E87F299Ef"
      ],
      "transaction": {
        "from": "0x7ecb39c481487f9826e2a4457599ba2f86af0342",
        "to": "0x615715d5cc81c67eee64490a863c97c04af02c43",
        "gas": "0x45822",
        "value": "0x0",
        "input": "0x8ed4f90c00000000000000000000000000000000000000000000000000000000000000a0000000000000000000000000000000000000000000000000000000000112a88000000000000000000000000000000000000000000000000000000000000000320000000000000000000000000000000000000000000000000000000069d45a8a000000000000000000000000df2c71acf78172cd32c6e4ba6d80d09e87f299ef0000000000000000000000000000000000000000000000000000000000000024457468696f7069616e2053696e676c652d4f726967696e20436f66666565204265616e7300000000000000000000000000000000000000000000000000000000",
        "nonce": "0x2b",
        "chainId": "0x66eee"
      },
      "additionalContracts": [],
      "isFixedGasLimit": false
    },
    {
      "hash": "0x26ea1244d4bfe934bbf9cd77e9c98a5d84754af2dc96620defb5cafd06fc14d4",
      "transactionType": "CALL",
      "contractName": null,
      "contractAddress": "0x615715d5cc81c67eee64490a863c97c04af02c43",
      "function": "createPool(string,uint256,uint256,uint256,address)",
      "arguments": [
        "Colombian Single-Origin Coffee Beans",
        "14000000",
        "60",
        "1775524490",
        "0xDf2C71ACf78172cd32C6E4ba6D80D09E87F299Ef"
      ],
      "transaction": {
        "from": "0x7ecb39c481487f9826e2a4457599ba2f86af0342",
        "to": "0x615715d5cc81c67eee64490a863c97c04af02c43",
        "gas": "0x4580f",
        "value": "0x0",
        "input": "0x8ed4f90c00000000000000000000000000000000000000000000000000000000000000a00000000000000000000000000000000000000000000000000000000000d59f80000000000000000000000000000000000000000000000000000000000000003c0000000000000000000000000000000000000000000000000000000069d45a8a000000000000000000000000df2c71acf78172cd32c6e4ba6d80d09e87f299ef0000000000000000000000000000000000000000000000000000000000000024436f6c6f6d6269616e2053696e676c652d4f726967696e20436f66666565204265616e7300000000000000000000000000000000000000000000000000000000",
        "nonce": "0x2c",
        "chainId": "0x66eee"
      },
      "additionalContracts": [],
      "isFixedGasLimit": false
    },
    {
      "hash": "0x03793d46200cc29e1214cc605c8ed265b797fa8e1c76a841da5c4c29b1c6974e",
      "transactionType": "CALL",
      "contractName": null,
      "contractAddress": "0x615715d5cc81c67eee64490a863c97c04af02c43",
      "function": "createPool(string,uint256,uint256,uint256,address)",
      "arguments": [
        "Guatemalan Single-Origin Coffee Beans",
        "13000000",
        "60",
        "1775524490",
        "0xDf2C71ACf78172cd32C6E4ba6D80D09E87F299Ef"
      ],
      "transaction": {
        "from": "0x7ecb39c481487f9826e2a4457599ba2f86af0342",
        "to": "0x615715d5cc81c67eee64490a863c97c04af02c43",
        "gas": "0x4581d",
        "value": "0x0",
        "input": "0x8ed4f90c00000000000000000000000000000000000000000000000000000000000000a00000000000000000000000000000000000000000000000000000000000c65d40000000000000000000000000000000000000000000000000000000000000003c0000000000000000000000000000000000000000000000000000000069d45a8a000000000000000000000000df2c71acf78172cd32c6e4ba6d80d09e87f299ef000000000000000000000000000000000000000000000000000000000000002547756174656d616c616e2053696e676c652d4f726967696e20436f66666565204265616e73000000000000000000000000000000000000000000000000000000",
        "nonce": "0x2d",
        "chainId": "0x66eee"
      },
      "additionalContracts": [],
      "isFixedGasLimit": false
    },
    {
      "hash": "0x3211cd7e5773072f4c50bd2ff196c2ac5b3be99189974ec77782f6c4838ff70e",
      "transactionType": "CALL",
      "contractName": null,
      "contractAddress": "0x615715d5cc81c67eee64490a863c97c04af02c43",
      "function": "createPool(string,uint256,uint256,uint256,address)",
      "arguments": [
        "Kenyan Single-Origin Coffee Beans",
        "18000000",
        "50",
        "1775524490",
        "0xDf2C71ACf78172cd32C6E4ba6D80D09E87F299Ef"
      ],
      "transaction": {
        "from": "0x7ecb39c481487f9826e2a4457599ba2f86af0342",
        "to": "0x615715d5cc81c67eee64490a863c97c04af02c43",
        "gas": "0x457ed",
        "value": "0x0",
        "input": "0x8ed4f90c00000000000000000000000000000000000000000000000000000000000000a0000000000000000000000000000000000000000000000000000000000112a88000000000000000000000000000000000000000000000000000000000000000320000000000000000000000000000000000000000000000000000000069d45a8a000000000000000000000000df2c71acf78172cd32c6e4ba6d80d09e87f299ef00000000000000000000000000000000000000000000000000000000000000214b656e79616e2053696e676c652d4f726967696e20436f66666565204265616e7300000000000000000000000000000000000000000000000000000000000000",
        "nonce": "0x2e",
        "chainId": "0x66eee"
      },
      "additionalContracts": [],
      "isFixedGasLimit": false
    },
    {
      "hash": "0x6b9df48d7d819089bd2fddc12ce7cf9cd1fa353c5750a1fd7024eaeaa990257a",
      "transactionType": "CALL",
      "contractName": null,
      "contractAddress": "0x615715d5cc81c67eee64490a863c97c04af02c43",
      "function": "createPool(string,uint256,uint256,uint256,address)",
      "arguments": [
        "Costa Rican Single-Origin Coffee Beans",
        "16000000",
        "50",
        "1775524490",
        "0xDf2C71ACf78172cd32C6E4ba6D80D09E87F299Ef"
      ],
      "transaction": {
        "from": "0x7ecb39c481487f9826e2a4457599ba2f86af0342",
        "to": "0x615715d5cc81c67eee64490a863c97c04af02c43",
        "gas": "0x45822",
        "value": "0x0",
        "input": "0x8ed4f90c00000000000000000000000000000000000000000000000000000000000000a00000000000000000000000000000000000000000000000000000000000f4240000000000000000000000000000000000000000000000000000000000000000320000000000000000000000000000000000000000000000000000000069d45a8a000000000000000000000000df2c71acf78172cd32c6e4ba6d80d09e87f299ef0000000000000000000000000000000000000000000000000000000000000026436f73746120526963616e2053696e676c652d4f726967696e20436f66666565204265616e730000000000000000000000000000000000000000000000000000",
        "nonce": "0x2f",
        "chainId": "0x66eee"
      },
      "additionalContracts": [],
      "isFixedGasLimit": false
    },
    {
      "hash": "0xf788940d48bcbcbe159834aa26d423927da74b9f755c314557a2c331d9f383e7",
      "transactionType": "CALL",
      "contractName": null,
      "contractAddress": "0x615715d5cc81c67eee64490a863c97c04af02c43",
      "function": "createPool(string,uint256,uint256,uint256,address)",
      "arguments": [
        "Light Roast Coffee Beans",
        "12000000",
        "75",
        "1775524490",
        "0xDf2C71ACf78172cd32C6E4ba6D80D09E87F299Ef"
      ],
      "transaction": {
        "from": "0x7ecb39c481487f9826e2a4457599ba2f86af0342",
        "to": "0x615715d5cc81c67eee64490a863c97c04af02c43",
        "gas": "0x371f4",
        "value": "0x0",
        "input": "0x8ed4f90c00000000000000000000000000000000000000000000000000000000000000a00000000000000000000000000000000000000000000000000000000000b71b00000000000000000000000000000000000000000000000000000000000000004b0000000000000000000000000000000000000000000000000000000069d45a8a000000000000000000000000df2c71acf78172cd32c6e4ba6d80d09e87f299ef00000000000000000000000000000000000000000000000000000000000000184c6967687420526f61737420436f66666565204265616e730000000000000000",
        "nonce": "0x30",
        "chainId": "0x66eee"
      },
      "additionalContracts": [],
      "isFixedGasLimit": false
    },
    {
      "hash": "0x4819d8f833790235da176d61f3a321bccae256b06dcbceaa9eae2d36cd97cf6b",
      "transactionType": "CALL",
      "contractName": null,
      "contractAddress": "0x615715d5cc81c67eee64490a863c97c04af02c43",
      "function": "createPool(string,uint256,uint256,uint256,address)",
      "arguments": [
        "Medium Roast Coffee Beans",
        "10000000",
        "100",
        "1775524490",
        "0xDf2C71ACf78172cd32C6E4ba6D80D09E87F299Ef"
      ],
      "transaction": {
        "from": "0x7ecb39c481487f9826e2a4457599ba2f86af0342",
        "to": "0x615715d5cc81c67eee64490a863c97c04af02c43",
        "gas": "0x37218",
        "value": "0x0",
        "input": "0x8ed4f90c00000000000000000000000000000000000000000000000000000000000000a0000000000000000000000000000000000000000000000000000000000098968000000000000000000000000000000000000000000000000000000000000000640000000000000000000000000000000000000000000000000000000069d45a8a000000000000000000000000df2c71acf78172cd32c6e4ba6d80d09e87f299ef00000000000000000000000000000000000000000000000000000000000000194d656469756d20526f61737420436f66666565204265616e7300000000000000",
        "nonce": "0x31",
        "chainId": "0x66eee"
      },
      "additionalContracts": [],
      "isFixedGasLimit": false
    },
    {
      "hash": "0x9dd47816c408c6f0de3b61ef4d469e1ba7dca04a81097d6275f1e3ee8e04f95c",
      "transactionType": "CALL",
      "contractName": null,
      "contractAddress": "0x615715d5cc81c67eee64490a863c97c04af02c43",
      "function": "createPool(string,uint256,uint256,uint256,address)",
      "arguments": [
        "Dark / French Roast Coffee Beans",
        "10000000",
        "100",
        "1775524490",
        "0xDf2C71ACf78172cd32C6E4ba6D80D09E87F299Ef"
      ],
      "transaction": {
        "from": "0x7ecb39c481487f9826e2a4457599ba2f86af0342",
        "to": "0x615715d5cc81c67eee64490a863c97c04af02c43",
        "gas": "0x3e3d7",
        "value": "0x0",
        "input": "0x8ed4f90c00000000000000000000000000000000000000000000000000000000000000a0000000000000000000000000000000000000000000000000000000000098968000000000000000000000000000000000000000000000000000000000000000640000000000000000000000000000000000000000000000000000000069d45a8a000000000000000000000000df2c71acf78172cd32c6e4ba6d80d09e87f299ef00000000000000000000000000000000000000000000000000000000000000204461726b202f204672656e636820526f61737420436f66666565204265616e73",
        "nonce": "0x32",
        "chainId": "0x66eee"
      },
      "additionalContracts": [],
      "isFixedGasLimit": false
    },
    {
      "hash": "0xe315b7fc6f30ea113417338cb96f508bcc8479468fea9267a767f0107a20acd5",
      "transactionType": "CALL",
      "contractName": null,
      "contractAddress": "0x615715d5cc81c67eee64490a863c97c04af02c43",
      "function": "createPool(string,uint256,uint256,uint256,address)",
      "arguments": [
        "Decaf Swiss Water Process Coffee Beans",
        "16000000",
        "50",
        "1775524490",
        "0xDf2C71ACf78172cd32C6E4ba6D80D09E87F299Ef"
      ],
      "transaction": {
        "from": "0x7ecb39c481487f9826e2a4457599ba2f86af0342",
        "to": "0x615715d5cc81c67eee64490a863c97c04af02c43",
        "gas": "0x4581e",
        "value": "0x0",
        "input": "0x8ed4f90c00000000000000000000000000000000000000000000000000000000000000a00000000000000000000000000000000000000000000000000000000000f4240000000000000000000000000000000000000000000000000000000000000000320000000000000000000000000000000000000000000000000000000069d45a8a000000000000000000000000df2c71acf78172cd32c6e4ba6d80d09e87f299ef000000000000000000000000000000000000000000000000000000000000002644656361662053776973732057617465722050726f6365737320436f66666565204265616e730000000000000000000000000000000000000000000000000000",
        "nonce": "0x33",
        "chainId": "0x66eee"
      },
      "additionalContracts": [],
      "isFixedGasLimit": false
    },
    {
      "hash": "0x2a93057daf358a90ddf2bb966271b66bfb467e35910bca71f9a37f372dc5e0b3",
      "transactionType": "CALL",
      "contractName": null,
      "contractAddress": "0x615715d5cc81c67eee64490a863c97c04af02c43",
      "function": "createPool(string,uint256,uint256,uint256,address)",
      "arguments": [
        "Green Unroasted Coffee Beans",
        "6000000",
        "200",
        "1775524490",
        "0xDf2C71ACf78172cd32C6E4ba6D80D09E87F299Ef"
      ],
      "transaction": {
        "from": "0x7ecb39c481487f9826e2a4457599ba2f86af0342",
        "to": "0x615715d5cc81c67eee64490a863c97c04af02c43",
        "gas": "0x3724b",
        "value": "0x0",
        "input": "0x8ed4f90c00000000000000000000000000000000000000000000000000000000000000a000000000000000000000000000000000000000000000000000000000005b8d8000000000000000000000000000000000000000000000000000000000000000c80000000000000000000000000000000000000000000000000000000069d45a8a000000000000000000000000df2c71acf78172cd32c6e4ba6d80d09e87f299ef000000000000000000000000000000000000000000000000000000000000001c477265656e20556e726f617374656420436f66666565204265616e7300000000",
        "nonce": "0x34",
        "chainId": "0x66eee"
      },
      "additionalContracts": [],
      "isFixedGasLimit": false
    },
    {
      "hash": "0x97853ca781f49f659a2b1a7e295f1fd5495aa811650bf6bbe7bb5754955e4184",
      "transactionType": "CALL",
      "contractName": null,
      "contractAddress": "0x615715d5cc81c67eee64490a863c97c04af02c43",
      "function": "createPool(string,uint256,uint256,uint256,address)",
      "arguments": [
        "Hot Paper Cups 12oz (1000/case)",
        "80000000",
        "25",
        "1774746890",
        "0xDf2C71ACf78172cd32C6E4ba6D80D09E87F299Ef"
      ],
      "transaction": {
        "from": "0x7ecb39c481487f9826e2a4457599ba2f86af0342",
        "to": "0x615715d5cc81c67eee64490a863c97c04af02c43",
        "gas": "0x37280",
        "value": "0x0",
        "input": "0x8ed4f90c00000000000000000000000000000000000000000000000000000000000000a00000000000000000000000000000000000000000000000000000000004c4b40000000000000000000000000000000000000000000000000000000000000000190000000000000000000000000000000000000000000000000000000069c87d0a000000000000000000000000df2c71acf78172cd32c6e4ba6d80d09e87f299ef000000000000000000000000000000000000000000000000000000000000001f486f7420506170657220437570732031326f7a2028313030302f636173652900",
        "nonce": "0x35",
        "chainId": "0x66eee"
      },
      "additionalContracts": [],
      "isFixedGasLimit": false
    },
    {
      "hash": "0x7fa74734d241f8da6d277ae5753a1b627db5a4dd5d9430a84852dd8e1b8e77c8",
      "transactionType": "CALL",
      "contractName": null,
      "contractAddress": "0x615715d5cc81c67eee64490a863c97c04af02c43",
      "function": "createPool(string,uint256,uint256,uint256,address)",
      "arguments": [
        "Hot Paper Cups 16oz (1000/case)",
        "95000000",
        "20",
        "1774746890",
        "0xDf2C71ACf78172cd32C6E4ba6D80D09E87F299Ef"
      ],
      "transaction": {
        "from": "0x7ecb39c481487f9826e2a4457599ba2f86af0342",
        "to": "0x615715d5cc81c67eee64490a863c97c04af02c43",
        "gas": "0x37291",
        "value": "0x0",
        "input": "0x8ed4f90c00000000000000000000000000000000000000000000000000000000000000a00000000000000000000000000000000000000000000000000000000005a995c000000000000000000000000000000000000000000000000000000000000000140000000000000000000000000000000000000000000000000000000069c87d0a000000000000000000000000df2c71acf78172cd32c6e4ba6d80d09e87f299ef000000000000000000000000000000000000000000000000000000000000001f486f7420506170657220437570732031366f7a2028313030302f636173652900",
        "nonce": "0x36",
        "chainId": "0x66eee"
      },
      "additionalContracts": [],
      "isFixedGasLimit": false
    },
    {
      "hash": "0x96501c7e7a6659d9de9aa67904fa65ad6d426e2aad38bfb78b4eaf9050176cc6",
      "transactionType": "CALL",
      "contractName": null,
      "contractAddress": "0x615715d5cc81c67eee64490a863c97c04af02c43",
      "function": "createPool(string,uint256,uint256,uint256,address)",
      "arguments": [
        "Cold Clear Cups 16oz (1000/case)",
        "70000000",
        "25",
        "1774746890",
        "0xDf2C71ACf78172cd32C6E4ba6D80D09E87F299Ef"
      ],
      "transaction": {
        "from": "0x7ecb39c481487f9826e2a4457599ba2f86af0342",
        "to": "0x615715d5cc81c67eee64490a863c97c04af02c43",
        "gas": "0x3e3ee",
        "value": "0x0",
        "input": "0x8ed4f90c00000000000000000000000000000000000000000000000000000000000000a000000000000000000000000000000000000000000000000000000000042c1d8000000000000000000000000000000000000000000000000000000000000000190000000000000000000000000000000000000000000000000000000069c87d0a000000000000000000000000df2c71acf78172cd32c6e4ba6d80d09e87f299ef0000000000000000000000000000000000000000000000000000000000000020436f6c6420436c65617220437570732031366f7a2028313030302f6361736529",
        "nonce": "0x37",
        "chainId": "0x66eee"
      },
      "additionalContracts": [],
      "isFixedGasLimit": false
    },
    {
      "hash": "0xcbb186fbd5f847398e2e2fe9713f813e4fec0aa633f20b28d9ad5f8ab661fd55",
      "transactionType": "CALL",
      "contractName": null,
      "contractAddress": "0x615715d5cc81c67eee64490a863c97c04af02c43",
      "function": "createPool(string,uint256,uint256,uint256,address)",
      "arguments": [
        "Compostable Hot Cups 12oz (500/case)",
        "90000000",
        "20",
        "1774746890",
        "0xDf2C71ACf78172cd32C6E4ba6D80D09E87F299Ef"
      ],
      "transaction": {
        "from": "0x7ecb39c481487f9826e2a4457599ba2f86af0342",
        "to": "0x615715d5cc81c67eee64490a863c97c04af02c43",
        "gas": "0x45822",
        "value": "0x0",
        "input": "0x8ed4f90c00000000000000000000000000000000000000000000000000000000000000a000000000000000000000000000000000000000000000000000000000055d4a8000000000000000000000000000000000000000000000000000000000000000140000000000000000000000000000000000000000000000000000000069c87d0a000000000000000000000000df2c71acf78172cd32c6e4ba6d80d09e87f299ef0000000000000000000000000000000000000000000000000000000000000024436f6d706f737461626c6520486f7420437570732031326f7a20283530302f636173652900000000000000000000000000000000000000000000000000000000",
        "nonce": "0x38",
        "chainId": "0x66eee"
      },
      "additionalContracts": [],
      "isFixedGasLimit": false
    },
    {
      "hash": "0xd096f2ac4e1c15c61acc49e0ea22b09c8862f273b5fe007bf4af7193ec055151",
      "transactionType": "CALL",
      "contractName": null,
      "contractAddress": "0x615715d5cc81c67eee64490a863c97c04af02c43",
      "function": "createPool(string,uint256,uint256,uint256,address)",
      "arguments": [
        "Flat Lids for 12-16oz Cups (1000/case)",
        "40000000",
        "40",
        "1774746890",
        "0xDf2C71ACf78172cd32C6E4ba6D80D09E87F299Ef"
      ],
      "transaction": {
        "from": "0x7ecb39c481487f9826e2a4457599ba2f86af0342",
        "to": "0x615715d5cc81c67eee64490a863c97c04af02c43",
        "gas": "0x45834",
        "value": "0x0",
        "input": "0x8ed4f90c00000000000000000000000000000000000000000000000000000000000000a00000000000000000000000000000000000000000000000000000000002625a0000000000000000000000000000000000000000000000000000000000000000280000000000000000000000000000000000000000000000000000000069c87d0a000000000000000000000000df2c71acf78172cd32c6e4ba6d80d09e87f299ef0000000000000000000000000000000000000000000000000000000000000026466c6174204c69647320666f722031322d31366f7a20437570732028313030302f63617365290000000000000000000000000000000000000000000000000000",
        "nonce": "0x39",
        "chainId": "0x66eee"
      },
      "additionalContracts": [],
      "isFixedGasLimit": false
    },
    {
      "hash": "0xe717c18597c2fa223cac1a1f3824128f7a99fefebf4d8caf3bc3b29e2fcf255e",
      "transactionType": "CALL",
      "contractName": null,
      "contractAddress": "0x615715d5cc81c67eee64490a863c97c04af02c43",
      "function": "createPool(string,uint256,uint256,uint256,address)",
      "arguments": [
        "3-Compartment Clamshell Boxes (200/case)",
        "35000000",
        "50",
        "1774746890",
        "0xDf2C71ACf78172cd32C6E4ba6D80D09E87F299Ef"
      ],
      "transaction": {
        "from": "0x7ecb39c481487f9826e2a4457599ba2f86af0342",
        "to": "0x615715d5cc81c67eee64490a863c97c04af02c43",
        "gas": "0x45866",
        "value": "0x0",
        "input": "0x8ed4f90c00000000000000000000000000000000000000000000000000000000000000a00000000000000000000000000000000000000000000000000000000002160ec000000000000000000000000000000000000000000000000000000000000000320000000000000000000000000000000000000000000000000000000069c87d0a000000000000000000000000df2c71acf78172cd32c6e4ba6d80d09e87f299ef0000000000000000000000000000000000000000000000000000000000000028332d436f6d706172746d656e7420436c616d7368656c6c20426f78657320283230302f6361736529000000000000000000000000000000000000000000000000",
        "nonce": "0x3a",
        "chainId": "0x66eee"
      },
      "additionalContracts": [],
      "isFixedGasLimit": false
    },
    {
      "hash": "0x6b48e53838028effb9ef274fa55cdb42a8c62c017aab8dfe4f8970f966b35b43",
      "transactionType": "CALL",
      "contractName": null,
      "contractAddress": "0x615715d5cc81c67eee64490a863c97c04af02c43",
      "function": "createPool(string,uint256,uint256,uint256,address)",
      "arguments": [
        "Deli Soup Containers 32oz w/Lids (250/case)",
        "30000000",
        "50",
        "1774746890",
        "0xDf2C71ACf78172cd32C6E4ba6D80D09E87F299Ef"
      ],
      "transaction": {
        "from": "0x7ecb39c481487f9826e2a4457599ba2f86af0342",
        "to": "0x615715d5cc81c67eee64490a863c97c04af02c43",
        "gas": "0x45896",
        "value": "0x0",
        "input": "0x8ed4f90c00000000000000000000000000000000000000000000000000000000000000a00000000000000000000000000000000000000000000000000000000001c9c38000000000000000000000000000000000000000000000000000000000000000320000000000000000000000000000000000000000000000000000000069c87d0a000000000000000000000000df2c71acf78172cd32c6e4ba6d80d09e87f299ef000000000000000000000000000000000000000000000000000000000000002b44656c6920536f757020436f6e7461696e6572732033326f7a20772f4c69647320283235302f6361736529000000000000000000000000000000000000000000",
        "nonce": "0x3b",
        "chainId": "0x66eee"
      },
      "additionalContracts": [],
      "isFixedGasLimit": false
    },
    {
      "hash": "0xef4d86d5d35f2f85c8f5775dd6b79142dcf3386f0732eee084eb15f0c24f5d26",
      "transactionType": "CALL",
      "contractName": null,
      "contractAddress": "0x615715d5cc81c67eee64490a863c97c04af02c43",
      "function": "createPool(string,uint256,uint256,uint256,address)",
      "arguments": [
        "Aluminum Foil Pans Half-Size (100/case)",
        "25000000",
        "60",
        "1774746890",
        "0xDf2C71ACf78172cd32C6E4ba6D80D09E87F299Ef"
      ],
      "transaction": {
        "from": "0x7ecb39c481487f9826e2a4457599ba2f86af0342",
        "to": "0x615715d5cc81c67eee64490a863c97c04af02c43",
        "gas": "0x45855",
        "value": "0x0",
        "input": "0x8ed4f90c00000000000000000000000000000000000000000000000000000000000000a000000000000000000000000000000000000000000000000000000000017d7840000000000000000000000000000000000000000000000000000000000000003c0000000000000000000000000000000000000000000000000000000069c87d0a000000000000000000000000df2c71acf78172cd32c6e4ba6d80d09e87f299ef0000000000000000000000000000000000000000000000000000000000000027416c756d696e756d20466f696c2050616e732048616c662d53697a6520283130302f636173652900000000000000000000000000000000000000000000000000",
        "nonce": "0x3c",
        "chainId": "0x66eee"
      },
      "additionalContracts": [],
      "isFixedGasLimit": false
    },
    {
      "hash": "0x36d1449ebfe2d56dfe7051bbecbde517ababe8006543a013fd0caae7d282e148",
      "transactionType": "CALL",
      "contractName": null,
      "contractAddress": "0x615715d5cc81c67eee64490a863c97c04af02c43",
      "function": "createPool(string,uint256,uint256,uint256,address)",
      "arguments": [
        "Compostable Cutlery Kits (250/case)",
        "20000000",
        "75",
        "1774746890",
        "0xDf2C71ACf78172cd32C6E4ba6D80D09E87F299Ef"
      ],
      "transaction": {
        "from": "0x7ecb39c481487f9826e2a4457599ba2f86af0342",
        "to": "0x615715d5cc81c67eee64490a863c97c04af02c43",
        "gas": "0x457fc",
        "value": "0x0",
        "input": "0x8ed4f90c00000000000000000000000000000000000000000000000000000000000000a00000000000000000000000000000000000000000000000000000000001312d00000000000000000000000000000000000000000000000000000000000000004b0000000000000000000000000000000000000000000000000000000069c87d0a000000000000000000000000df2c71acf78172cd32c6e4ba6d80d09e87f299ef0000000000000000000000000000000000000000000000000000000000000023436f6d706f737461626c65204375746c657279204b69747320283235302f63617365290000000000000000000000000000000000000000000000000000000000",
        "nonce": "0x3d",
        "chainId": "0x66eee"
      },
      "additionalContracts": [],
      "isFixedGasLimit": false
    },
    {
      "hash": "0x7a69ea96db8ba52e47e6b9fbb842dc29da9aeefa6cca33337f3a11c628d8fbb2",
      "transactionType": "CALL",
      "contractName": null,
      "contractAddress": "0x615715d5cc81c67eee64490a863c97c04af02c43",
      "function": "createPool(string,uint256,uint256,uint256,address)",
      "arguments": [
        "Bulk Napkins (8000/case)",
        "35000000",
        "50",
        "1774746890",
        "0xDf2C71ACf78172cd32C6E4ba6D80D09E87F299Ef"
      ],
      "transaction": {
        "from": "0x7ecb39c481487f9826e2a4457599ba2f86af0342",
        "to": "0x615715d5cc81c67eee64490a863c97c04af02c43",
        "gas": "0x3721f",
        "value": "0x0",
        "input": "0x8ed4f90c00000000000000000000000000000000000000000000000000000000000000a00000000000000000000000000000000000000000000000000000000002160ec000000000000000000000000000000000000000000000000000000000000000320000000000000000000000000000000000000000000000000000000069c87d0a000000000000000000000000df2c71acf78172cd32c6e4ba6d80d09e87f299ef000000000000000000000000000000000000000000000000000000000000001842756c6b204e61706b696e732028383030302f63617365290000000000000000",
        "nonce": "0x3e",
        "chainId": "0x66eee"
      },
      "additionalContracts": [],
      "isFixedGasLimit": false
    },
    {
      "hash": "0xd5f0ff7bd664af2e4ceccc88f51ac63991fec3a437645b49c35c575d37c834f1",
      "transactionType": "CALL",
      "contractName": null,
      "contractAddress": "0x615715d5cc81c67eee64490a863c97c04af02c43",
      "function": "createPool(string,uint256,uint256,uint256,address)",
      "arguments": [
        "Eco Paper Straws (500/case)",
        "15000000",
        "100",
        "1774746890",
        "0xDf2C71ACf78172cd32C6E4ba6D80D09E87F299Ef"
      ],
      "transaction": {
        "from": "0x7ecb39c481487f9826e2a4457599ba2f86af0342",
        "to": "0x615715d5cc81c67eee64490a863c97c04af02c43",
        "gas": "0x37240",
        "value": "0x0",
        "input": "0x8ed4f90c00000000000000000000000000000000000000000000000000000000000000a00000000000000000000000000000000000000000000000000000000000e4e1c000000000000000000000000000000000000000000000000000000000000000640000000000000000000000000000000000000000000000000000000069c87d0a000000000000000000000000df2c71acf78172cd32c6e4ba6d80d09e87f299ef000000000000000000000000000000000000000000000000000000000000001b45636f2050617065722053747261777320283530302f63617365290000000000",
        "nonce": "0x3f",
        "chainId": "0x66eee"
      },
      "additionalContracts": [],
      "isFixedGasLimit": false
    },
    {
      "hash": "0x9e7e1454777e19c0e150d2946ad6cc6830a7e180f04deb74e6e6785f86558ff8",
      "transactionType": "CALL",
      "contractName": null,
      "contractAddress": "0x615715d5cc81c67eee64490a863c97c04af02c43",
      "function": "createPool(string,uint256,uint256,uint256,address)",
      "arguments": [
        "Kraft Paper Carry-Out Bags (500/case)",
        "40000000",
        "40",
        "1774746890",
        "0xDf2C71ACf78172cd32C6E4ba6D80D09E87F299Ef"
      ],
      "transaction": {
        "from": "0x7ecb39c481487f9826e2a4457599ba2f86af0342",
        "to": "0x615715d5cc81c67eee64490a863c97c04af02c43",
        "gas": "0x45823",
        "value": "0x0",
        "input": "0x8ed4f90c00000000000000000000000000000000000000000000000000000000000000a00000000000000000000000000000000000000000000000000000000002625a0000000000000000000000000000000000000000000000000000000000000000280000000000000000000000000000000000000000000000000000000069c87d0a000000000000000000000000df2c71acf78172cd32c6e4ba6d80d09e87f299ef00000000000000000000000000000000000000000000000000000000000000254b726166742050617065722043617272792d4f7574204261677320283530302f6361736529000000000000000000000000000000000000000000000000000000",
        "nonce": "0x40",
        "chainId": "0x66eee"
      },
      "additionalContracts": [],
      "isFixedGasLimit": false
    },
    {
      "hash": "0x361c06dea05031ad22f43e7c1db974d28d35f02f8f5dd336cba9c418979952d3",
      "transactionType": "CALL",
      "contractName": null,
      "contractAddress": "0x615715d5cc81c67eee64490a863c97c04af02c43",
      "function": "createPool(string,uint256,uint256,uint256,address)",
      "arguments": [
        "Takeout Bags with Handles (250/case)",
        "25000000",
        "60",
        "1774746890",
        "0xDf2C71ACf78172cd32C6E4ba6D80D09E87F299Ef"
      ],
      "transaction": {
        "from": "0x7ecb39c481487f9826e2a4457599ba2f86af0342",
        "to": "0x615715d5cc81c67eee64490a863c97c04af02c43",
        "gas": "0x45821",
        "value": "0x0",
        "input": "0x8ed4f90c00000000000000000000000000000000000000000000000000000000000000a000000000000000000000000000000000000000000000000000000000017d7840000000000000000000000000000000000000000000000000000000000000003c0000000000000000000000000000000000000000000000000000000069c87d0a000000000000000000000000df2c71acf78172cd32c6e4ba6d80d09e87f299ef000000000000000000000000000000000000000000000000000000000000002454616b656f7574204261677320776974682048616e646c657320283235302f636173652900000000000000000000000000000000000000000000000000000000",
        "nonce": "0x41",
        "chainId": "0x66eee"
      },
      "additionalContracts": [],
      "isFixedGasLimit": false
    },
    {
      "hash": "0x042bc9bc1641f8ac900e55124ea1cb50ccfe33c5bd22eda17dbac823c0ccea99",
      "transactionType": "CALL",
      "contractName": null,
      "contractAddress": "0x615715d5cc81c67eee64490a863c97c04af02c43",
      "function": "createPool(string,uint256,uint256,uint256,address)",
      "arguments": [
        "Foil & Parchment Food Wrap Rolls",
        "20000000",
        "80",
        "1774746890",
        "0xDf2C71ACf78172cd32C6E4ba6D80D09E87F299Ef"
      ],
      "transaction": {
        "from": "0x7ecb39c481487f9826e2a4457599ba2f86af0342",
        "to": "0x615715d5cc81c67eee64490a863c97c04af02c43",
        "gas": "0x3e3db",
        "value": "0x0",
        "input": "0x8ed4f90c00000000000000000000000000000000000000000000000000000000000000a00000000000000000000000000000000000000000000000000000000001312d0000000000000000000000000000000000000000000000000000000000000000500000000000000000000000000000000000000000000000000000000069c87d0a000000000000000000000000df2c71acf78172cd32c6e4ba6d80d09e87f299ef0000000000000000000000000000000000000000000000000000000000000020466f696c20262050617263686d656e7420466f6f64205772617020526f6c6c73",
        "nonce": "0x42",
        "chainId": "0x66eee"
      },
      "additionalContracts": [],
      "isFixedGasLimit": false
    }
  ],
  "receipts": [
    {
      "status": "0x1",
      "cumulativeGasUsed": "0x2f356",
      "logs": [
        {
          "address": "0x615715d5cc81c67eee64490a863c97c04af02c43",
          "topics": [
            "0x55bd16033ae8e80a1af8547b62c6fd40fbffbf5d4470d72387ea1872f854587b",
            "0x0000000000000000000000000000000000000000000000000000000000000000"
          ],
          "data": "0x00000000000000000000000000000000000000000000000000000000000000a0000000000000000000000000000000000000000000000000000000000098968000000000000000000000000000000000000000000000000000000000000000640000000000000000000000000000000000000000000000000000000069d45a8a000000000000000000000000df2c71acf78172cd32c6e4ba6d80d09e87f299ef00000000000000000000000000000000000000000000000000000000000000204172616269636120486f75736520426c656e6420436f66666565204265616e73",
          "blockHash": "0x8d95033244703edfafd432ec184b25ce0db42879daa1874fe8e190115c6ee41f",
          "blockNumber": "0xec7d707",
          "blockTimestamp": "0x69accda0",
          "transactionHash": "0x4fd9cbd78761812e0922afd219dcef3576fa0b222d13e65998976bdb92857beb",
          "transactionIndex": "0x1",
          "logIndex": "0x0",
          "removed": false
        }
      ],
      "logsBloom": "0x00000000000000000000000000000000000000000100000000000000000000000000000000000000000000000000000000000000000000000000000000000000000000000000000000000000000000000000000000000000000000000000000000000000020000000000000000000800000000000000000000000000000000000000000000000000000000000000000000000000000200000000000000000008000000000000000000000000000000000000000000000080000000000000000000000000000000000000000000000000000000000000000000040000800020000000000000000000000000000000000000000000000000000000000000000000",
      "type": "0x2",
      "transactionHash": "0x4fd9cbd78761812e0922afd219dcef3576fa0b222d13e65998976bdb92857beb",
      "transactionIndex": "0x1",
      "blockHash": "0x8d95033244703edfafd432ec184b25ce0db42879daa1874fe8e190115c6ee41f",
      "blockNumber": "0xec7d707",
      "gasUsed": "0x2f356",
      "effectiveGasPrice": "0x1315410",
      "from": "0x7ecb39c481487f9826e2a4457599ba2f86af0342",
      "to": "0x615715d5cc81c67eee64490a863c97c04af02c43",
      "contractAddress": null,
      "gasUsedForL1": "0xb8",
      "l1BlockNumber": "0x9ec75d",
      "timeboosted": false
    },
    {
      "status": "0x1",
      "cumulativeGasUsed": "0x30927",
      "logs": [
        {
          "address": "0x615715d5cc81c67eee64490a863c97c04af02c43",
          "topics": [
            "0x55bd16033ae8e80a1af8547b62c6fd40fbffbf5d4470d72387ea1872f854587b",
            "0x0000000000000000000000000000000000000000000000000000000000000001"
          ],
          "data": "0x00000000000000000000000000000000000000000000000000000000000000a00000000000000000000000000000000000000000000000000000000000a7d8c0000000000000000000000000000000000000000000000000000000000000005a0000000000000000000000000000000000000000000000000000000069d45a8a000000000000000000000000df2c71acf78172cd32c6e4ba6d80d09e87f299ef00000000000000000000000000000000000000000000000000000000000000234172616269636120457370726573736f20426c656e6420436f66666565204265616e730000000000000000000000000000000000000000000000000000000000",
          "blockHash": "0xa1e6c92d55f579d62aea4e1b8c024496773a1edbeb900910a1300bf2b57f2de6",
          "blockNumber": "0xec7d70f",
          "blockTimestamp": "0x69accda2",
          "transactionHash": "0xe85257937144b1eeb6952baa39d5b708cfa2eb96124f01175a11c73efaa97c0f",
          "transactionIndex": "0x1",
          "logIndex": "0x0",
          "removed": false
        }
      ],
      "logsBloom": "0x00000000000000000000000000000000000000000100000000000000000000000000000000000000000000000000000000000000000000000000000000040000000000000000000000000000000000000000000000040000000000000000000000000000000000000000000000000000000000000000000000000000000000000000000000000000000000000000000000000000000200000000000000000008000000000000000000000000000000000000000000000080000000000000000000000000000000000000000000000000000000000000000000040000800040000000000000000000000000000000000000000000000000000000000000000000",
      "type": "0x2",
      "transactionHash": "0xe85257937144b1eeb6952baa39d5b708cfa2eb96124f01175a11c73efaa97c0f",
      "transactionIndex": "0x1",
      "blockHash": "0xa1e6c92d55f579d62aea4e1b8c024496773a1edbeb900910a1300bf2b57f2de6",
      "blockNumber": "0xec7d70f",
      "gasUsed": "0x30927",
      "effectiveGasPrice": "0x13134d0",
      "from": "0x7ecb39c481487f9826e2a4457599ba2f86af0342",
      "to": "0x615715d5cc81c67eee64490a863c97c04af02c43",
      "contractAddress": null,
      "gasUsedForL1": "0xba",
      "l1BlockNumber": "0x9ec75d",
      "timeboosted": false
    },
    {
      "status": "0x1",
      "cumulativeGasUsed": "0x30943",
      "logs": [
        {
          "address": "0x615715d5cc81c67eee64490a863c97c04af02c43",
          "topics": [
            "0x55bd16033ae8e80a1af8547b62c6fd40fbffbf5d4470d72387ea1872f854587b",
            "0x0000000000000000000000000000000000000000000000000000000000000002"
          ],
          "data": "0x00000000000000000000000000000000000000000000000000000000000000a0000000000000000000000000000000000000000000000000000000000112a88000000000000000000000000000000000000000000000000000000000000000320000000000000000000000000000000000000000000000000000000069d45a8a000000000000000000000000df2c71acf78172cd32c6e4ba6d80d09e87f299ef0000000000000000000000000000000000000000000000000000000000000024457468696f7069616e2053696e676c652d4f726967696e20436f66666565204265616e7300000000000000000000000000000000000000000000000000000000",
          "blockHash": "0xaae9418a8980a2fbcc18ac74c9b8be01349b8b0d592aa7a49c08a60beaf715e1",
          "blockNumber": "0xec7d719",
          "blockTimestamp": "0x69accda5",
          "transactionHash": "0x2b2d0bd7737ac805ed59a22f9961c9ef19865a80f471b33ae711f623326253b8",
          "transactionIndex": "0x1",
          "logIndex": "0x0",
          "removed": false
        }
      ],
      "logsBloom": "0x04000000000000000000000000000000000000000100000000000000000000000000000000000000000000000000000000000000000000000000000000000000000000000000000000000000000000000000000000000000000000000000000000000000000000000000000000000000000000000000000000000000000000000000000000000000000000000000000000000000000200000000000000000008000000000000000000000100000000000000000000000080000000000000000000000000000000000000000000000000000000000000000000040000800000000000000000000000000000000000000000000000008000000000000000000000",
      "type": "0x2",
      "transactionHash": "0x2b2d0bd7737ac805ed59a22f9961c9ef19865a80f471b33ae711f623326253b8",
      "transactionIndex": "0x1",
      "blockHash": "0xaae9418a8980a2fbcc18ac74c9b8be01349b8b0d592aa7a49c08a60beaf715e1",
      "blockNumber": "0xec7d719",
      "gasUsed": "0x30943",
      "effectiveGasPrice": "0x1312d00",
      "from": "0x7ecb39c481487f9826e2a4457599ba2f86af0342",
      "to": "0x615715d5cc81c67eee64490a863c97c04af02c43",
      "contractAddress": null,
      "gasUsedForL1": "0xbe",
      "l1BlockNumber": "0x9ec75d",
      "timeboosted": false
    },
    {
      "status": "0x1",
      "cumulativeGasUsed": "0x30934",
      "logs": [
        {
          "address": "0x615715d5cc81c67eee64490a863c97c04af02c43",
          "topics": [
            "0x55bd16033ae8e80a1af8547b62c6fd40fbffbf5d4470d72387ea1872f854587b",
            "0x0000000000000000000000000000000000000000000000000000000000000003"
          ],
          "data": "0x00000000000000000000000000000000000000000000000000000000000000a00000000000000000000000000000000000000000000000000000000000d59f80000000000000000000000000000000000000000000000000000000000000003c0000000000000000000000000000000000000000000000000000000069d45a8a000000000000000000000000df2c71acf78172cd32c6e4ba6d80d09e87f299ef0000000000000000000000000000000000000000000000000000000000000024436f6c6f6d6269616e2053696e676c652d4f726967696e20436f66666565204265616e7300000000000000000000000000000000000000000000000000000000",
          "blockHash": "0x238115bb3c4aab016d7c03352b6d2d24cf49863122fdb04a63fffb793eb39379",
          "blockNumber": "0xec7d720",
          "blockTimestamp": "0x69accda7",
          "transactionHash": "0x26ea1244d4bfe934bbf9cd77e9c98a5d84754af2dc96620defb5cafd06fc14d4",
          "transactionIndex": "0x1",
          "logIndex": "0x0",
          "removed": false
        }
      ],
      "logsBloom": "0x00000000000000000000000000000000000000000100000000000000000000000000000000000000000000000000000000000000020000000000000000000000000000000000000000000000000000000000000000000000000000000000000000000000000000000000000000000000000000000000000000000000000000000000000000000000000000000000000000000000000200000000000000000008000000000000000000000000000000000000000000800080000000000000400000000000000000000000000000000000000000000000000000040000800000000000000000000000000000000000000000000000000000000000000000000000",
      "type": "0x2",
      "transactionHash": "0x26ea1244d4bfe934bbf9cd77e9c98a5d84754af2dc96620defb5cafd06fc14d4",
      "transactionIndex": "0x1",
      "blockHash": "0x238115bb3c4aab016d7c03352b6d2d24cf49863122fdb04a63fffb793eb39379",
      "blockNumber": "0xec7d720",
      "gasUsed": "0x30934",
      "effectiveGasPrice": "0x1312d00",
      "from": "0x7ecb39c481487f9826e2a4457599ba2f86af0342",
      "to": "0x615715d5cc81c67eee64490a863c97c04af02c43",
      "contractAddress": null,
      "gasUsedForL1": "0xbb",
      "l1BlockNumber": "0x9ec75e",
      "timeboosted": false
    },
    {
      "status": "0x1",
      "cumulativeGasUsed": "0x3093d",
      "logs": [
        {
          "address": "0x615715d5cc81c67eee64490a863c97c04af02c43",
          "topics": [
            "0x55bd16033ae8e80a1af8547b62c6fd40fbffbf5d4470d72387ea1872f854587b",
            "0x0000000000000000000000000000000000000000000000000000000000000004"
          ],
          "data": "0x00000000000000000000000000000000000000000000000000000000000000a00000000000000000000000000000000000000000000000000000000000c65d40000000000000000000000000000000000000000000000000000000000000003c0000000000000000000000000000000000000000000000000000000069d45a8a000000000000000000000000df2c71acf78172cd32c6e4ba6d80d09e87f299ef000000000000000000000000000000000000000000000000000000000000002547756174656d616c616e2053696e676c652d4f726967696e20436f66666565204265616e73000000000000000000000000000000000000000000000000000000",
          "blockHash": "0xeb83b55a60fa0d1af9e993013713f142ab2c5199f1ba234df3bce07000210445",
          "blockNumber": "0xec7d724",
          "blockTimestamp": "0x69accda8",
          "transactionHash": "0x03793d46200cc29e1214cc605c8ed265b797fa8e1c76a841da5c4c29b1c6974e",
          "transactionIndex": "0x1",
          "logIndex": "0x0",
          "removed": false
        }
      ],
      "logsBloom": "0x00000000000000000000000000000000000000000100000000000000000000000000000000000000000000000000000000000000000000000000000000000000000000000000000000000000000000000000000000000000000000000000000008000000000000000000000000000000000000000000000000000000000000000000000000000000000000000000000000000000000200000000000000000008000000000000000000000000000000000000000000000080002000000000000000000000000000000000000000000000000000008000000000040000800000000000000000000000000000000000000000000000000000000000000000000000",
      "type": "0x2",
      "transactionHash": "0x03793d46200cc29e1214cc605c8ed265b797fa8e1c76a841da5c4c29b1c6974e",
      "transactionIndex": "0x1",
      "blockHash": "0xeb83b55a60fa0d1af9e993013713f142ab2c5199f1ba234df3bce07000210445",
      "blockNumber": "0xec7d724",
      "gasUsed": "0x3093d",
      "effectiveGasPrice": "0x134fd90",
      "from": "0x7ecb39c481487f9826e2a4457599ba2f86af0342",
      "to": "0x615715d5cc81c67eee64490a863c97c04af02c43",
      "contractAddress": null,
      "gasUsedForL1": "0xb8",
      "l1BlockNumber": "0x9ec75e",
      "timeboosted": false
    },
    {
      "status": "0x1",
      "cumulativeGasUsed": "0x3091c",
      "logs": [
        {
          "address": "0x615715d5cc81c67eee64490a863c97c04af02c43",
          "topics": [
            "0x55bd16033ae8e80a1af8547b62c6fd40fbffbf5d4470d72387ea1872f854587b",
            "0x0000000000000000000000000000000000000000000000000000000000000005"
          ],
          "data": "0x00000000000000000000000000000000000000000000000000000000000000a0000000000000000000000000000000000000000000000000000000000112a88000000000000000000000000000000000000000000000000000000000000000320000000000000000000000000000000000000000000000000000000069d45a8a000000000000000000000000df2c71acf78172cd32c6e4ba6d80d09e87f299ef00000000000000000000000000000000000000000000000000000000000000214b656e79616e2053696e676c652d4f726967696e20436f66666565204265616e7300000000000000000000000000000000000000000000000000000000000000",
          "blockHash": "0x77e7d0a5a9b3ecfa85f2a913d669774cf5638173c0f487110f059a0738eb742d",
          "blockNumber": "0xec7d72c",
          "blockTimestamp": "0x69accdaa",
          "transactionHash": "0x3211cd7e5773072f4c50bd2ff196c2ac5b3be99189974ec77782f6c4838ff70e",
          "transactionIndex": "0x1",
          "logIndex": "0x0",
          "removed": false
        }
      ],
      "logsBloom": "0x00000000000000000000000000000000000000000100000000000000000000000000000000000000000000000000000000000000000000000000000000000000000010000000000000000000000000000000000000000000000000000000000000000000000000000000000000000000000000000000000000000000000000000000000000000000000000000000001000000800000200000000000000000008000000000000000000000000000000000000000000000080000000000000000000000000000000000000000000000000000000000000000000040000800000000000000000000000000000000000000000000000000000000000000000000000",
      "type": "0x2",
      "transactionHash": "0x3211cd7e5773072f4c50bd2ff196c2ac5b3be99189974ec77782f6c4838ff70e",
      "transactionIndex": "0x1",
      "blockHash": "0x77e7d0a5a9b3ecfa85f2a913d669774cf5638173c0f487110f059a0738eb742d",
      "blockNumber": "0xec7d72c",
      "gasUsed": "0x3091c",
      "effectiveGasPrice": "0x1312d00",
      "from": "0x7ecb39c481487f9826e2a4457599ba2f86af0342",
      "to": "0x615715d5cc81c67eee64490a863c97c04af02c43",
      "contractAddress": null,
      "gasUsedForL1": "0xbb",
      "l1BlockNumber": "0x9ec75e",
      "timeboosted": false
    },
    {
      "status": "0x1",
      "cumulativeGasUsed": "0x30944",
      "logs": [
        {
          "address": "0x615715d5cc81c67eee64490a863c97c04af02c43",
          "topics": [
            "0x55bd16033ae8e80a1af8547b62c6fd40fbffbf5d4470d72387ea1872f854587b",
            "0x0000000000000000000000000000000000000000000000000000000000000006"
          ],
          "data": "0x00000000000000000000000000000000000000000000000000000000000000a00000000000000000000000000000000000000000000000000000000000f4240000000000000000000000000000000000000000000000000000000000000000320000000000000000000000000000000000000000000000000000000069d45a8a000000000000000000000000df2c71acf78172cd32c6e4ba6d80d09e87f299ef0000000000000000000000000000000000000000000000000000000000000026436f73746120526963616e2053696e676c652d4f726967696e20436f66666565204265616e730000000000000000000000000000000000000000000000000000",
          "blockHash": "0x8bc85e2fc07fbab55f1dfcbfb95598b3fedf85cb1aee26e22d723e290a10135a",
          "blockNumber": "0xec7d733",
          "blockTimestamp": "0x69accdac",
          "transactionHash": "0x6b9df48d7d819089bd2fddc12ce7cf9cd1fa353c5750a1fd7024eaeaa990257a",
          "transactionIndex": "0x1",
          "logIndex": "0x0",
          "removed": false
        }
      ],
      "logsBloom": "0x00000000000000000000000000000000000000000100000000000000000000000000000000000000000000000000000000000000000400000000000000000000000000000000000000000000000000000000000000000000000000000000000000000000000000000000000000000000000000000000000000000000000000000000000400000000000000000000000000000000000200000000000000000008000000000000000000000000000000000000000000000080000000080000000000000000000000000000000000000000000000000000000000040000800000000000000000000000000000000000000000000000000000000000000000000000",
      "type": "0x2",
      "transactionHash": "0x6b9df48d7d819089bd2fddc12ce7cf9cd1fa353c5750a1fd7024eaeaa990257a",
      "transactionIndex": "0x1",
      "blockHash": "0x8bc85e2fc07fbab55f1dfcbfb95598b3fedf85cb1aee26e22d723e290a10135a",
      "blockNumber": "0xec7d733",
      "gasUsed": "0x30944",
      "effectiveGasPrice": "0x1312d00",
      "from": "0x7ecb39c481487f9826e2a4457599ba2f86af0342",
      "to": "0x615715d5cc81c67eee64490a863c97c04af02c43",
      "contractAddress": null,
      "gasUsedForL1": "0xbf",
      "l1BlockNumber": "0x9ec75e",
      "timeboosted": false
    },
    {
      "status": "0x1",
      "cumulativeGasUsed": "0x2599e",
      "logs": [
        {
          "address": "0x615715d5cc81c67eee64490a863c97c04af02c43",
          "topics": [
            "0x55bd16033ae8e80a1af8547b62c6fd40fbffbf5d4470d72387ea1872f854587b",
            "0x0000000000000000000000000000000000000000000000000000000000000007"
          ],
          "data": "0x00000000000000000000000000000000000000000000000000000000000000a00000000000000000000000000000000000000000000000000000000000b71b00000000000000000000000000000000000000000000000000000000000000004b0000000000000000000000000000000000000000000000000000000069d45a8a000000000000000000000000df2c71acf78172cd32c6e4ba6d80d09e87f299ef00000000000000000000000000000000000000000000000000000000000000184c6967687420526f61737420436f66666565204265616e730000000000000000",
          "blockHash": "0x2c6d483c3f8c280f70c5d020e1987cc8a5ec5b52e97a23f6dc643a8597c83ab8",
          "blockNumber": "0xec7d738",
          "blockTimestamp": "0x69accdae",
          "transactionHash": "0xf788940d48bcbcbe159834aa26d423927da74b9f755c314557a2c331d9f383e7",
          "transactionIndex": "0x1",
          "logIndex": "0x0",
          "removed": false
        }
      ],
      "logsBloom": "0x00000000000000000000000000000000000000000100000000000000000000000000000000000000000000000000000000001000000000000000000000000000000020000000000000000000000000000000000000000000000000000000000000000000000000000000000000000000000000000000000000000000000000000000000000000000000000000000000000000000000200000000000000000008000000000000000000000000000000000000000000000080000000000000000000000000000000000000000000000000000000000000000000040100800000000000000000000000000000000000000000000000000000000000000000000000",
      "type": "0x2",
      "transactionHash": "0xf788940d48bcbcbe159834aa26d423927da74b9f755c314557a2c331d9f383e7",
      "transactionIndex": "0x1",
      "blockHash": "0x2c6d483c3f8c280f70c5d020e1987cc8a5ec5b52e97a23f6dc643a8597c83ab8",
      "blockNumber": "0xec7d738",
      "gasUsed": "0x2599e",
      "effectiveGasPrice": "0x1315410",
      "from": "0x7ecb39c481487f9826e2a4457599ba2f86af0342",
      "to": "0x615715d5cc81c67eee64490a863c97c04af02c43",
      "contractAddress": null,
      "gasUsedForL1": "0xb0",
      "l1BlockNumber": "0x9ec75e",
      "timeboosted": false
    },
    {
      "status": "0x1",
      "cumulativeGasUsed": "0x3f507",
      "logs": [
        {
          "address": "0x615715d5cc81c67eee64490a863c97c04af02c43",
          "topics": [
            "0x55bd16033ae8e80a1af8547b62c6fd40fbffbf5d4470d72387ea1872f854587b",
            "0x0000000000000000000000000000000000000000000000000000000000000008"
          ],
          "data": "0x00000000000000000000000000000000000000000000000000000000000000a0000000000000000000000000000000000000000000000000000000000098968000000000000000000000000000000000000000000000000000000000000000640000000000000000000000000000000000000000000000000000000069d45a8a000000000000000000000000df2c71acf78172cd32c6e4ba6d80d09e87f299ef00000000000000000000000000000000000000000000000000000000000000194d656469756d20526f61737420436f66666565204265616e7300000000000000",
          "blockHash": "0x6622232c8c891b664b6ba452323d22577fc9c0cc0c32d29dc7974c441054a518",
          "blockNumber": "0xec7d740",
          "blockTimestamp": "0x69accdb0",
          "transactionHash": "0x4819d8f833790235da176d61f3a321bccae256b06dcbceaa9eae2d36cd97cf6b",
          "transactionIndex": "0x2",
          "logIndex": "0x3",
          "removed": false
        }
      ],
      "logsBloom": "0x00000000000000000000000000000000000000000100000000000000000000000000000000000000000000000000000000000000000080000000000000000000000000000000000000000000000000000000000000000000000000000000000000000000000000000000000000000000000000000000000000000000000000000080000000000000000000000000000000000000000200000000000000000008000000000000000000000000000000000000000000000080000000000000000040000000000000000000000000000000000000000000000000040000800000000000000000000000000000000000000000000000000000000000000000000000",
      "type": "0x2",
      "transactionHash": "0x4819d8f833790235da176d61f3a321bccae256b06dcbceaa9eae2d36cd97cf6b",
      "transactionIndex": "0x2",
      "blockHash": "0x6622232c8c891b664b6ba452323d22577fc9c0cc0c32d29dc7974c441054a518",
      "blockNumber": "0xec7d740",
      "gasUsed": "0x259ba",
      "effectiveGasPrice": "0x1346920",
      "from": "0x7ecb39c481487f9826e2a4457599ba2f86af0342",
      "to": "0x615715d5cc81c67eee64490a863c97c04af02c43",
      "contractAddress": null,
      "gasUsedForL1": "0xb4",
      "l1BlockNumber": "0x9ec75e",
      "timeboosted": false
    },
    {
      "status": "0x1",
      "cumulativeGasUsed": "0x2b085",
      "logs": [
        {
          "address": "0x615715d5cc81c67eee64490a863c97c04af02c43",
          "topics": [
            "0x55bd16033ae8e80a1af8547b62c6fd40fbffbf5d4470d72387ea1872f854587b",
            "0x0000000000000000000000000000000000000000000000000000000000000009"
          ],
          "data": "0x00000000000000000000000000000000000000000000000000000000000000a0000000000000000000000000000000000000000000000000000000000098968000000000000000000000000000000000000000000000000000000000000000640000000000000000000000000000000000000000000000000000000069d45a8a000000000000000000000000df2c71acf78172cd32c6e4ba6d80d09e87f299ef00000000000000000000000000000000000000000000000000000000000000204461726b202f204672656e636820526f61737420436f66666565204265616e73",
          "blockHash": "0xcc404077717c12972cbf9e16aac48880694f0603f369e56abab403322bdfbc8e",
          "blockNumber": "0xec7d747",
          "blockTimestamp": "0x69accdb1",
          "transactionHash": "0x9dd47816c408c6f0de3b61ef4d469e1ba7dca04a81097d6275f1e3ee8e04f95c",
          "transactionIndex": "0x1",
          "logIndex": "0x0",
          "removed": false
        }
      ],
      "logsBloom": "0x00000000000000000000000000000000000000000100000000000000000000000000000000000000000000000000000000000000000000000000000000200000000000000000000000000000000000000000000000000000000000000000000000000000000000000000000000000000000000000000000000000000000000000000000000000000000000000000000000001000000200000000000000000008000000000000000000000000000000000000000000000080000000000000000000000000000000000000000000000000000000000000000000040000800000000000000000000000000000000000000000000000000000000000000000800000",
      "type": "0x2",
      "transactionHash": "0x9dd47816c408c6f0de3b61ef4d469e1ba7dca04a81097d6275f1e3ee8e04f95c",
      "transactionIndex": "0x1",
      "blockHash": "0xcc404077717c12972cbf9e16aac48880694f0603f369e56abab403322bdfbc8e",
      "blockNumber": "0xec7d747",
      "gasUsed": "0x2b085",
      "effectiveGasPrice": "0x1313ca0",
      "from": "0x7ecb39c481487f9826e2a4457599ba2f86af0342",
      "to": "0x615715d5cc81c67eee64490a863c97c04af02c43",
      "contractAddress": null,
      "gasUsedForL1": "0xb3",
      "l1BlockNumber": "0x9ec75e",
      "timeboosted": false
    },
    {
      "status": "0x1",
      "cumulativeGasUsed": "0x30946",
      "logs": [
        {
          "address": "0x615715d5cc81c67eee64490a863c97c04af02c43",
          "topics": [
            "0x55bd16033ae8e80a1af8547b62c6fd40fbffbf5d4470d72387ea1872f854587b",
            "0x000000000000000000000000000000000000000000000000000000000000000a"
          ],
          "data": "0x00000000000000000000000000000000000000000000000000000000000000a00000000000000000000000000000000000000000000000000000000000f4240000000000000000000000000000000000000000000000000000000000000000320000000000000000000000000000000000000000000000000000000069d45a8a000000000000000000000000df2c71acf78172cd32c6e4ba6d80d09e87f299ef000000000000000000000000000000000000000000000000000000000000002644656361662053776973732057617465722050726f6365737320436f66666565204265616e730000000000000000000000000000000000000000000000000000",
          "blockHash": "0xafdaf1391644a65e87dc17b936e3053c84fd7457ca39f01977cb8e59e6b2c999",
          "blockNumber": "0xec7d74f",
          "blockTimestamp": "0x69accdb3",
          "transactionHash": "0xe315b7fc6f30ea113417338cb96f508bcc8479468fea9267a767f0107a20acd5",
          "transactionIndex": "0x1",
          "logIndex": "0x0",
          "removed": false
        }
      ],
      "logsBloom": "0x00000000000000000000000000000000000000000100000000000000000000000000000000000000000000000000000000000000040000000020000000000000000000000000000000000000000000000000000000000000000000000000000000000000000000000000000000000000000000000000000000000000000000000000000000000000010000000000000000000000000200000000000000000008000000000000000000000000000000000000000000000080000000000000000000000000000000000000000000000000000000000000000000040000800000000000000000000000000000000000000000000000000000000000000000000000",
      "type": "0x2",
      "transactionHash": "0xe315b7fc6f30ea113417338cb96f508bcc8479468fea9267a767f0107a20acd5",
      "transactionIndex": "0x1",
      "blockHash": "0xafdaf1391644a65e87dc17b936e3053c84fd7457ca39f01977cb8e59e6b2c999",
      "blockNumber": "0xec7d74f",
      "gasUsed": "0x30946",
      "effectiveGasPrice": "0x13163b0",
      "from": "0x7ecb39c481487f9826e2a4457599ba2f86af0342",
      "to": "0x615715d5cc81c67eee64490a863c97c04af02c43",
      "contractAddress": null,
      "gasUsedForL1": "0xc1",
      "l1BlockNumber": "0x9ec75e",
      "timeboosted": false
    },
    {
      "status": "0x1",
      "cumulativeGasUsed": "0x5f274",
      "logs": [
        {
          "address": "0x615715d5cc81c67eee64490a863c97c04af02c43",
          "topics": [
            "0x55bd16033ae8e80a1af8547b62c6fd40fbffbf5d4470d72387ea1872f854587b",
            "0x000000000000000000000000000000000000000000000000000000000000000b"
          ],
          "data": "0x00000000000000000000000000000000000000000000000000000000000000a000000000000000000000000000000000000000000000000000000000005b8d8000000000000000000000000000000000000000000000000000000000000000c80000000000000000000000000000000000000000000000000000000069d45a8a000000000000000000000000df2c71acf78172cd32c6e4ba6d80d09e87f299ef000000000000000000000000000000000000000000000000000000000000001c477265656e20556e726f617374656420436f66666565204265616e7300000000",
          "blockHash": "0xe2a89136ba0e0d0db220c7912c706ccf8042eada6ad38b9a4255aa4fbb6766a0",
          "blockNumber": "0xec7d756",
          "blockTimestamp": "0x69accdb5",
          "transactionHash": "0x2a93057daf358a90ddf2bb966271b66bfb467e35910bca71f9a37f372dc5e0b3",
          "transactionIndex": "0x4",
          "logIndex": "0x5",
          "removed": false
        }
      ],
      "logsBloom": "0x00000000000000000000004000000000000000000100000000000000000000000000000000000000000000000000000000000000000000000000000000000000000000000000000000000000000000000000000000000000000000000000000000000000000000000000000000000000000000000000000000000000000000000000000000000000000000000000000000000000000200000000000000000008000000000000000000000000000000000000000000000080000000000000000000000000000000000000000000000000002000000000000000040000800000000000000000000000000000000000000000000000000000040000000000000000",
      "type": "0x2",
      "transactionHash": "0x2a93057daf358a90ddf2bb966271b66bfb467e35910bca71f9a37f372dc5e0b3",
      "transactionIndex": "0x4",
      "blockHash": "0xe2a89136ba0e0d0db220c7912c706ccf8042eada6ad38b9a4255aa4fbb6766a0",
      "blockNumber": "0xec7d756",
      "gasUsed": "0x259e0",
      "effectiveGasPrice": "0x1312d00",
      "from": "0x7ecb39c481487f9826e2a4457599ba2f86af0342",
      "to": "0x615715d5cc81c67eee64490a863c97c04af02c43",
      "contractAddress": null,
      "gasUsedForL1": "0xb6",
      "l1BlockNumber": "0x9ec75e",
      "timeboosted": false
    },
    {
      "status": "0x1",
      "cumulativeGasUsed": "0x25a04",
      "logs": [
        {
          "address": "0x615715d5cc81c67eee64490a863c97c04af02c43",
          "topics": [
            "0x55bd16033ae8e80a1af8547b62c6fd40fbffbf5d4470d72387ea1872f854587b",
            "0x000000000000000000000000000000000000000000000000000000000000000c"
          ],
          "data": "0x00000000000000000000000000000000000000000000000000000000000000a00000000000000000000000000000000000000000000000000000000004c4b40000000000000000000000000000000000000000000000000000000000000000190000000000000000000000000000000000000000000000000000000069c87d0a000000000000000000000000df2c71acf78172cd32c6e4ba6d80d09e87f299ef000000000000000000000000000000000000000000000000000000000000001f486f7420506170657220437570732031326f7a2028313030302f636173652900",
          "blockHash": "0xde7d158992b63e4099eaf5ec593d1e4b0cb50aa1600526c7af38a3f441097b9c",
          "blockNumber": "0xec7d75c",
          "blockTimestamp": "0x69accdb7",
          "transactionHash": "0x97853ca781f49f659a2b1a7e295f1fd5495aa811650bf6bbe7bb5754955e4184",
          "transactionIndex": "0x1",
          "logIndex": "0x0",
          "removed": false
        }
      ],
      "logsBloom": "0x00000000000000000000000000000000000002000100000000000000000000000000000000000200000000000000000000000000000000000000000000000000000000000000000000000000000000000000000000000000000000000000000000000000000000000000000000000000000000000000000000000000000000000000000000000000000000000000000000000000000200000000000000000008000000000000000000000000000000000000000000000080000000000000000000000000000000000000000000000000000000000000000000040000800000200000000000000000000000000000000000000000000000000000000000000000",
      "type": "0x2",
      "transactionHash": "0x97853ca781f49f659a2b1a7e295f1fd5495aa811650bf6bbe7bb5754955e4184",
      "transactionIndex": "0x1",
      "blockHash": "0xde7d158992b63e4099eaf5ec593d1e4b0cb50aa1600526c7af38a3f441097b9c",
      "blockNumber": "0xec7d75c",
      "gasUsed": "0x25a04",
      "effectiveGasPrice": "0x1312d00",
      "from": "0x7ecb39c481487f9826e2a4457599ba2f86af0342",
      "to": "0x615715d5cc81c67eee64490a863c97c04af02c43",
      "contractAddress": null,
      "gasUsedForL1": "0xb6",
      "l1BlockNumber": "0x9ec75f",
      "timeboosted": false
    },
    {
      "status": "0x1",
      "cumulativeGasUsed": "0x4b638",
      "logs": [
        {
          "address": "0x615715d5cc81c67eee64490a863c97c04af02c43",
          "topics": [
            "0x55bd16033ae8e80a1af8547b62c6fd40fbffbf5d4470d72387ea1872f854587b",
            "0x000000000000000000000000000000000000000000000000000000000000000d"
          ],
          "data": "0x00000000000000000000000000000000000000000000000000000000000000a00000000000000000000000000000000000000000000000000000000005a995c000000000000000000000000000000000000000000000000000000000000000140000000000000000000000000000000000000000000000000000000069c87d0a000000000000000000000000df2c71acf78172cd32c6e4ba6d80d09e87f299ef000000000000000000000000000000000000000000000000000000000000001f486f7420506170657220437570732031366f7a2028313030302f636173652900",
          "blockHash": "0x9ff15301ddbe5d9db120bd89f4190591f07767ee305146f0416ad2f07decd212",
          "blockNumber": "0xec7d763",
          "blockTimestamp": "0x69accdb9",
          "transactionHash": "0x7fa74734d241f8da6d277ae5753a1b627db5a4dd5d9430a84852dd8e1b8e77c8",
          "transactionIndex": "0x3",
          "logIndex": "0x4",
          "removed": false
        }
      ],
      "logsBloom": "0x00000000000000000040000000000000000000000100000000000000000000000000000000000000000000000000000000000000000000000000000000000000000000000000000000000000000000000002000000000000000000000000000000000000000000000000000000000000000000000000000000000000000000000000000000000000000000000000000000000000000200000000000000000008000000000000000000000000000000000000000000000080000000000000000000000000000000000000000000000000000000000000000000040000800000020000000000000000000000000000000000000000000000000000000000000000",
      "type": "0x2",
      "transactionHash": "0x7fa74734d241f8da6d277ae5753a1b627db5a4dd5d9430a84852dd8e1b8e77c8",
      "transactionIndex": "0x3",
      "blockHash": "0x9ff15301ddbe5d9db120bd89f4190591f07767ee305146f0416ad2f07decd212",
      "blockNumber": "0xec7d763",
      "gasUsed": "0x25a13",
      "effectiveGasPrice": "0x1312d00",
      "from": "0x7ecb39c481487f9826e2a4457599ba2f86af0342",
      "to": "0x615715d5cc81c67eee64490a863c97c04af02c43",
      "contractAddress": null,
      "gasUsedForL1": "0xb9",
      "l1BlockNumber": "0x9ec75f",
      "timeboosted": false
    },
    {
      "status": "0x1",
      "cumulativeGasUsed": "0x2b093",
      "logs": [
        {
          "address": "0x615715d5cc81c67eee64490a863c97c04af02c43",
          "topics": [
            "0x55bd16033ae8e80a1af8547b62c6fd40fbffbf5d4470d72387ea1872f854587b",
            "0x000000000000000000000000000000000000000000000000000000000000000e"
          ],
          "data": "0x00000000000000000000000000000000000000000000000000000000000000a000000000000000000000000000000000000000000000000000000000042c1d8000000000000000000000000000000000000000000000000000000000000000190000000000000000000000000000000000000000000000000000000069c87d0a000000000000000000000000df2c71acf78172cd32c6e4ba6d80d09e87f299ef0000000000000000000000000000000000000000000000000000000000000020436f6c6420436c65617220437570732031366f7a2028313030302f6361736529",
          "blockHash": "0x9e1b43f25a707f6d30b2bf67a78df52167208777a233126a95d16504bded977a",
          "blockNumber": "0xec7d76a",
          "blockTimestamp": "0x69accdbb",
          "transactionHash": "0x96501c7e7a6659d9de9aa67904fa65ad6d426e2aad38bfb78b4eaf9050176cc6",
          "transactionIndex": "0x1",
          "logIndex": "0x0",
          "removed": false
        }
      ],
      "logsBloom": "0x000000000000000000000000000000000000000001000000000000000000000000000000000000000000000000000000000000000000000000000000000000000000000000000008000000000000000000000000000000000000000000000000000000000000000000000000000000000000000000000000000000000000000000000000000000000000000000000000080000000002000000000000000000080000000000000000000000000000000000000000000000a0000000000000000000000000000000000000000000000000000000000000000000040000800000000000000000000000000000000000000000000000000000000000000000000000",
      "type": "0x2",
      "transactionHash": "0x96501c7e7a6659d9de9aa67904fa65ad6d426e2aad38bfb78b4eaf9050176cc6",
      "transactionIndex": "0x1",
      "blockHash": "0x9e1b43f25a707f6d30b2bf67a78df52167208777a233126a95d16504bded977a",
      "blockNumber": "0xec7d76a",
      "gasUsed": "0x2b093",
      "effectiveGasPrice": "0x1318ac0",
      "from": "0x7ecb39c481487f9826e2a4457599ba2f86af0342",
      "to": "0x615715d5cc81c67eee64490a863c97c04af02c43",
      "contractAddress": null,
      "gasUsedForL1": "0xb5",
      "l1BlockNumber": "0x9ec75f",
      "timeboosted": false
    },
    {
      "status": "0x1",
      "cumulativeGasUsed": "0x30946",
      "logs": [
        {
          "address": "0x615715d5cc81c67eee64490a863c97c04af02c43",
          "topics": [
            "0x55bd16033ae8e80a1af8547b62c6fd40fbffbf5d4470d72387ea1872f854587b",
            "0x000000000000000000000000000000000000000000000000000000000000000f"
          ],
          "data": "0x00000000000000000000000000000000000000000000000000000000000000a000000000000000000000000000000000000000000000000000000000055d4a8000000000000000000000000000000000000000000000000000000000000000140000000000000000000000000000000000000000000000000000000069c87d0a000000000000000000000000df2c71acf78172cd32c6e4ba6d80d09e87f299ef0000000000000000000000000000000000000000000000000000000000000024436f6d706f737461626c6520486f7420437570732031326f7a20283530302f636173652900000000000000000000000000000000000000000000000000000000",
          "blockHash": "0x27fca432f3dc683c99c69a713f7ddcc1e525b6710f370590340952281829e0b7",
          "blockNumber": "0xec7d770",
          "blockTimestamp": "0x69accdbc",
          "transactionHash": "0xcbb186fbd5f847398e2e2fe9713f813e4fec0aa633f20b28d9ad5f8ab661fd55",
          "transactionIndex": "0x1",
          "logIndex": "0x0",
          "removed": false
        }
      ],
      "logsBloom": "0x00000000000000000000000000000000000000000100000000000000000000000000000000000000000000000000000000000000000000000000000000000000000000000000000000000000000000000000000000000000000000000002000000000000000000000000000000000000000000000000000000000000000000000000000000000800000000000000000000000000000200000000000000000008000000000000000000000000000000000000000000000080000000000000000000000000000000000000000000000000000000000000000000040000800000000000000200000000000000000000000000000000000000000000000000000000",
      "type": "0x2",
      "transactionHash": "0xcbb186fbd5f847398e2e2fe9713f813e4fec0aa633f20b28d9ad5f8ab661fd55",
      "transactionIndex": "0x1",
      "blockHash": "0x27fca432f3dc683c99c69a713f7ddcc1e525b6710f370590340952281829e0b7",
      "blockNumber": "0xec7d770",
      "gasUsed": "0x30946",
      "effectiveGasPrice": "0x1312d00",
      "from": "0x7ecb39c481487f9826e2a4457599ba2f86af0342",
      "to": "0x615715d5cc81c67eee64490a863c97c04af02c43",
      "contractAddress": null,
      "gasUsedForL1": "0xc1",
      "l1BlockNumber": "0x9ec75f",
      "timeboosted": false
    },
    {
      "status": "0x1",
      "cumulativeGasUsed": "0x30954",
      "logs": [
        {
          "address": "0x615715d5cc81c67eee64490a863c97c04af02c43",
          "topics": [
            "0x55bd16033ae8e80a1af8547b62c6fd40fbffbf5d4470d72387ea1872f854587b",
            "0x0000000000000000000000000000000000000000000000000000000000000010"
          ],
          "data": "0x00000000000000000000000000000000000000000000000000000000000000a00000000000000000000000000000000000000000000000000000000002625a0000000000000000000000000000000000000000000000000000000000000000280000000000000000000000000000000000000000000000000000000069c87d0a000000000000000000000000df2c71acf78172cd32c6e4ba6d80d09e87f299ef0000000000000000000000000000000000000000000000000000000000000026466c6174204c69647320666f722031322d31366f7a20437570732028313030302f63617365290000000000000000000000000000000000000000000000000000",
          "blockHash": "0x96fc652c3c04784c81099b6b9181ff52b9bf840410e703a81de71f5af353ce07",
          "blockNumber": "0xec7d777",
          "blockTimestamp": "0x69accdbe",
          "transactionHash": "0xd096f2ac4e1c15c61acc49e0ea22b09c8862f273b5fe007bf4af7193ec055151",
          "transactionIndex": "0x1",
          "logIndex": "0x0",
          "removed": false
        }
      ],
      "logsBloom": "0x00000000100000000000000000000000000000000100000000000000000000000000000000000000000000000000000000000000000000000000000000000000000000000000000000000000000000000000000000000000000000000000000000000000000000000000000000000000000000000000000000000000040000000000000000000000000000000000000000000100000200000000000000000008000000000000000000000000000000000000000000000080000000000000000000000000000000000000000000000000000000000000000000040000800000000000000000000000000000000000000000000000000000000000000000000000",
      "type": "0x2",
      "transactionHash": "0xd096f2ac4e1c15c61acc49e0ea22b09c8862f273b5fe007bf4af7193ec055151",
      "transactionIndex": "0x1",
      "blockHash": "0x96fc652c3c04784c81099b6b9181ff52b9bf840410e703a81de71f5af353ce07",
      "blockNumber": "0xec7d777",
      "gasUsed": "0x30954",
      "effectiveGasPrice": "0x131b9a0",
      "from": "0x7ecb39c481487f9826e2a4457599ba2f86af0342",
      "to": "0x615715d5cc81c67eee64490a863c97c04af02c43",
      "contractAddress": null,
      "gasUsedForL1": "0xc3",
      "l1BlockNumber": "0x9ec75f",
      "timeboosted": false
    },
    {
      "status": "0x1",
      "cumulativeGasUsed": "0x4a4c1",
      "logs": [
        {
          "address": "0x615715d5cc81c67eee64490a863c97c04af02c43",
          "topics": [
            "0x55bd16033ae8e80a1af8547b62c6fd40fbffbf5d4470d72387ea1872f854587b",
            "0x0000000000000000000000000000000000000000000000000000000000000011"
          ],
          "data": "0x00000000000000000000000000000000000000000000000000000000000000a00000000000000000000000000000000000000000000000000000000002160ec000000000000000000000000000000000000000000000000000000000000000320000000000000000000000000000000000000000000000000000000069c87d0a000000000000000000000000df2c71acf78172cd32c6e4ba6d80d09e87f299ef0000000000000000000000000000000000000000000000000000000000000028332d436f6d706172746d656e7420436c616d7368656c6c20426f78657320283230302f6361736529000000000000000000000000000000000000000000000000",
          "blockHash": "0x63217be80f2b6800de16584aaaba4e55750c59bb1286bb385d366c47a5cdec5e",
          "blockNumber": "0xec7d77e",
          "blockTimestamp": "0x69accdc0",
          "transactionHash": "0xe717c18597c2fa223cac1a1f3824128f7a99fefebf4d8caf3bc3b29e2fcf255e",
          "transactionIndex": "0x2",
          "logIndex": "0x3",
          "removed": false
        }
      ],
      "logsBloom": "0x00000000000000000000000000000000000000000100000000000000000000000000000000000000000000000000000000000000000000000000000000000000000000000000000000000000000000000000000000000000000000000000000000000000000000000000000000000000000000004000000000000000000000000000000000000000000000000000000000000000000200000000000000000008000000000000000000000000000000000000000000000080000000000400000000001000000000000000000000000000000000000000000000040000800000000000000000000000000000000000000000000000000000000000000000000000",
      "type": "0x2",
      "transactionHash": "0xe717c18597c2fa223cac1a1f3824128f7a99fefebf4d8caf3bc3b29e2fcf255e",
      "transactionIndex": "0x2",
      "blockHash": "0x63217be80f2b6800de16584aaaba4e55750c59bb1286bb385d366c47a5cdec5e",
      "blockNumber": "0xec7d77e",
      "gasUsed": "0x30972",
      "effectiveGasPrice": "0x1313ca0",
      "from": "0x7ecb39c481487f9826e2a4457599ba2f86af0342",
      "to": "0x615715d5cc81c67eee64490a863c97c04af02c43",
      "contractAddress": null,
      "gasUsedForL1": "0xbd",
      "l1BlockNumber": "0x9ec75f",
      "timeboosted": false
    },
    {
      "status": "0x1",
      "cumulativeGasUsed": "0x3099c",
      "logs": [
        {
          "address": "0x615715d5cc81c67eee64490a863c97c04af02c43",
          "topics": [
            "0x55bd16033ae8e80a1af8547b62c6fd40fbffbf5d4470d72387ea1872f854587b",
            "0x0000000000000000000000000000000000000000000000000000000000000012"
          ],
          "data": "0x00000000000000000000000000000000000000000000000000000000000000a00000000000000000000000000000000000000000000000000000000001c9c38000000000000000000000000000000000000000000000000000000000000000320000000000000000000000000000000000000000000000000000000069c87d0a000000000000000000000000df2c71acf78172cd32c6e4ba6d80d09e87f299ef000000000000000000000000000000000000000000000000000000000000002b44656c6920536f757020436f6e7461696e6572732033326f7a20772f4c69647320283235302f6361736529000000000000000000000000000000000000000000",
          "blockHash": "0x097ed5dea8373e10e8b8a0a675cafa77eb6c2662c8c33aacca97e43ea2856a60",
          "blockNumber": "0xec7d786",
          "blockTimestamp": "0x69accdc2",
          "transactionHash": "0x6b48e53838028effb9ef274fa55cdb42a8c62c017aab8dfe4f8970f966b35b43",
          "transactionIndex": "0x1",
          "logIndex": "0x0",
          "removed": false
        }
      ],
      "logsBloom": "0x000000000000000000000000000000000000000001000000000000000000000000000000000000000000000000000000000000000000000000000000000000000000000000000000000000000000000000000000000000000000000000000000000000000000000000000000000000000000000000000000000000000000000000000000000000000000000000000400000000000002000000000000000000080000000000000000000000000000000000000000000000c0000000000000000000000000000000000400000000000000000000000000000000040000800000000000000000000000000000000000000000000000000000000000000000000000",
      "type": "0x2",
      "transactionHash": "0x6b48e53838028effb9ef274fa55cdb42a8c62c017aab8dfe4f8970f966b35b43",
      "transactionIndex": "0x1",
      "blockHash": "0x097ed5dea8373e10e8b8a0a675cafa77eb6c2662c8c33aacca97e43ea2856a60",
      "blockNumber": "0xec7d786",
      "gasUsed": "0x3099c",
      "effectiveGasPrice": "0x1331160",
      "from": "0x7ecb39c481487f9826e2a4457599ba2f86af0342",
      "to": "0x615715d5cc81c67eee64490a863c97c04af02c43",
      "contractAddress": null,
      "gasUsedForL1": "0xc3",
      "l1BlockNumber": "0x9ec75f",
      "timeboosted": false
    },
    {
      "status": "0x1",
      "cumulativeGasUsed": "0x30967",
      "logs": [
        {
          "address": "0x615715d5cc81c67eee64490a863c97c04af02c43",
          "topics": [
            "0x55bd16033ae8e80a1af8547b62c6fd40fbffbf5d4470d72387ea1872f854587b",
            "0x0000000000000000000000000000000000000000000000000000000000000013"
          ],
          "data": "0x00000000000000000000000000000000000000000000000000000000000000a000000000000000000000000000000000000000000000000000000000017d7840000000000000000000000000000000000000000000000000000000000000003c0000000000000000000000000000000000000000000000000000000069c87d0a000000000000000000000000df2c71acf78172cd32c6e4ba6d80d09e87f299ef0000000000000000000000000000000000000000000000000000000000000027416c756d696e756d20466f696c2050616e732048616c662d53697a6520283130302f636173652900000000000000000000000000000000000000000000000000",
          "blockHash": "0xb8fa4b1672a7f536a0e8e493731c5fc62f46806354905f0a400808dfa4da87ce",
          "blockNumber": "0xec7d78c",
          "blockTimestamp": "0x69accdc4",
          "transactionHash": "0xef4d86d5d35f2f85c8f5775dd6b79142dcf3386f0732eee084eb15f0c24f5d26",
          "transactionIndex": "0x1",
          "logIndex": "0x0",
          "removed": false
        }
      ],
      "logsBloom": "0x20000000000000000000000000800000000000000100000000000000000000000000000040000000000000000000000000000000000000000000000000000000000000000000000000000000000000000000000000000000000000000000000000000000000000000000000000000000000000000000000000000000000000000000000000000000000000000000000000000000000200000000000000000008000000000000000000000000000000000000000000000080000000000000000000000000000000000000000000000000000000000000000000040000800000000000000000000000000000000000000000000000000000000000000000000000",
      "type": "0x2",
      "transactionHash": "0xef4d86d5d35f2f85c8f5775dd6b79142dcf3386f0732eee084eb15f0c24f5d26",
      "transactionIndex": "0x1",
      "blockHash": "0xb8fa4b1672a7f536a0e8e493731c5fc62f46806354905f0a400808dfa4da87ce",
      "blockNumber": "0xec7d78c",
      "gasUsed": "0x30967",
      "effectiveGasPrice": "0x13134d0",
      "from": "0x7ecb39c481487f9826e2a4457599ba2f86af0342",
      "to": "0x615715d5cc81c67eee64490a863c97c04af02c43",
      "contractAddress": null,
      "gasUsedForL1": "0xbe",
      "l1BlockNumber": "0x9ec75f",
      "timeboosted": false
    },
    {
      "status": "0x1",
      "cumulativeGasUsed": "0x30922",
      "logs": [
        {
          "address": "0x615715d5cc81c67eee64490a863c97c04af02c43",
          "topics": [
            "0x55bd16033ae8e80a1af8547b62c6fd40fbffbf5d4470d72387ea1872f854587b",
            "0x0000000000000000000000000000000000000000000000000000000000000014"
          ],
          "data": "0x00000000000000000000000000000000000000000000000000000000000000a00000000000000000000000000000000000000000000000000000000001312d00000000000000000000000000000000000000000000000000000000000000004b0000000000000000000000000000000000000000000000000000000069c87d0a000000000000000000000000df2c71acf78172cd32c6e4ba6d80d09e87f299ef0000000000000000000000000000000000000000000000000000000000000023436f6d706f737461626c65204375746c657279204b69747320283235302f63617365290000000000000000000000000000000000000000000000000000000000",
          "blockHash": "0x9d77ff500550c4771d933b6e926ea4370bd4e604525c13d1c15805b1a46e98f4",
          "blockNumber": "0xec7d793",
          "blockTimestamp": "0x69accdc6",
          "transactionHash": "0x36d1449ebfe2d56dfe7051bbecbde517ababe8006543a013fd0caae7d282e148",
          "transactionIndex": "0x1",
          "logIndex": "0x0",
          "removed": false
        }
      ],
      "logsBloom": "0x00000000000000000000000000000000000000000100000000000000000000000000000000000000000000000000000000002000000000000000000000000000000000000000000000000000000000000000000000000000000000000000000000000000000000000000000000000000000000000000000000000000000000000000000000000000000000000000000000000000000600000000000000000008000000000000000020000000000000000000000000000080000000000000000000000000000000000000000000000000000000000000000000040000800000000000000000000000000000000000000000000000000000000000000000000000",
      "type": "0x2",
      "transactionHash": "0x36d1449ebfe2d56dfe7051bbecbde517ababe8006543a013fd0caae7d282e148",
      "transactionIndex": "0x1",
      "blockHash": "0x9d77ff500550c4771d933b6e926ea4370bd4e604525c13d1c15805b1a46e98f4",
      "blockNumber": "0xec7d793",
      "gasUsed": "0x30922",
      "effectiveGasPrice": "0x13858f0",
      "from": "0x7ecb39c481487f9826e2a4457599ba2f86af0342",
      "to": "0x615715d5cc81c67eee64490a863c97c04af02c43",
      "contractAddress": null,
      "gasUsedForL1": "0xb5",
      "l1BlockNumber": "0x9ec760",
      "timeboosted": false
    },
    {
      "status": "0x1",
      "cumulativeGasUsed": "0x259ba",
      "logs": [
        {
          "address": "0x615715d5cc81c67eee64490a863c97c04af02c43",
          "topics": [
            "0x55bd16033ae8e80a1af8547b62c6fd40fbffbf5d4470d72387ea1872f854587b",
            "0x0000000000000000000000000000000000000000000000000000000000000015"
          ],
          "data": "0x00000000000000000000000000000000000000000000000000000000000000a00000000000000000000000000000000000000000000000000000000002160ec000000000000000000000000000000000000000000000000000000000000000320000000000000000000000000000000000000000000000000000000069c87d0a000000000000000000000000df2c71acf78172cd32c6e4ba6d80d09e87f299ef000000000000000000000000000000000000000000000000000000000000001842756c6b204e61706b696e732028383030302f63617365290000000000000000",
          "blockHash": "0x12d9526fd0cb3000514cc0d8ecffd1466a6a4decef094facabf2292f17854054",
          "blockNumber": "0xec7d79b",
          "blockTimestamp": "0x69accdc8",
          "transactionHash": "0x7a69ea96db8ba52e47e6b9fbb842dc29da9aeefa6cca33337f3a11c628d8fbb2",
          "transactionIndex": "0x1",
          "logIndex": "0x0",
          "removed": false
        }
      ],
      "logsBloom": "0x00000000000000000000000000000000000000000100000000000000000000000000000000000000000000000000000000000000000000000000000000000000001000000000000000000000000000000000000000000000000000000000000000000000000000000000000000000000000000000000000000000000000000000000000000000000000000000000000000000000000200000000000000000008000000000000000000000000010000000000000000000080000000000000000000000000000000000000000000000000000000000000000000040000800000002000000000000000000000000000000000000000000000000000000000000000",
      "type": "0x2",
      "transactionHash": "0x7a69ea96db8ba52e47e6b9fbb842dc29da9aeefa6cca33337f3a11c628d8fbb2",
      "transactionIndex": "0x1",
      "blockHash": "0x12d9526fd0cb3000514cc0d8ecffd1466a6a4decef094facabf2292f17854054",
      "blockNumber": "0xec7d79b",
      "gasUsed": "0x259ba",
      "effectiveGasPrice": "0x13163b0",
      "from": "0x7ecb39c481487f9826e2a4457599ba2f86af0342",
      "to": "0x615715d5cc81c67eee64490a863c97c04af02c43",
      "contractAddress": null,
      "gasUsedForL1": "0xb4",
      "l1BlockNumber": "0x9ec760",
      "timeboosted": false
    },
    {
      "status": "0x1",
      "cumulativeGasUsed": "0x3f528",
      "logs": [
        {
          "address": "0x615715d5cc81c67eee64490a863c97c04af02c43",
          "topics": [
            "0x55bd16033ae8e80a1af8547b62c6fd40fbffbf5d4470d72387ea1872f854587b",
            "0x0000000000000000000000000000000000000000000000000000000000000016"
          ],
          "data": "0x00000000000000000000000000000000000000000000000000000000000000a00000000000000000000000000000000000000000000000000000000000e4e1c000000000000000000000000000000000000000000000000000000000000000640000000000000000000000000000000000000000000000000000000069c87d0a000000000000000000000000df2c71acf78172cd32c6e4ba6d80d09e87f299ef000000000000000000000000000000000000000000000000000000000000001b45636f2050617065722053747261777320283530302f63617365290000000000",
          "blockHash": "0x8e25aad9aa90872ae3599d31f619e0b32c3b8b97a75f207b3e978b6afccb2509",
          "blockNumber": "0xec7d7a2",
          "blockTimestamp": "0x69accdc9",
          "transactionHash": "0xd5f0ff7bd664af2e4ceccc88f51ac63991fec3a437645b49c35c575d37c834f1",
          "transactionIndex": "0x2",
          "logIndex": "0x3",
          "removed": false
        }
      ],
      "logsBloom": "0x00000000000000000000000000000000000000000100000000000000000000000000000000000000000000000000000000000000000000000000000000000000000000000000000800000000000000000000000000000000000000000000000000000000000000000000000000000000200000000000000000000000000000000000000000000000000000000000000000000000000200000000000000000008000000000000000000000000000000000000000000000080000000000000000000000000000000000000000000000000000000000000000000040000800000000000000000000000000000000000000000000000000000000008000000000000",
      "type": "0x2",
      "transactionHash": "0xd5f0ff7bd664af2e4ceccc88f51ac63991fec3a437645b49c35c575d37c834f1",
      "transactionIndex": "0x2",
      "blockHash": "0x8e25aad9aa90872ae3599d31f619e0b32c3b8b97a75f207b3e978b6afccb2509",
      "blockNumber": "0xec7d7a2",
      "gasUsed": "0x259d9",
      "effectiveGasPrice": "0x134c6e0",
      "from": "0x7ecb39c481487f9826e2a4457599ba2f86af0342",
      "to": "0x615715d5cc81c67eee64490a863c97c04af02c43",
      "contractAddress": null,
      "gasUsedForL1": "0xbb",
      "l1BlockNumber": "0x9ec760",
      "timeboosted": false
    },
    {
      "status": "0x1",
      "cumulativeGasUsed": "0x38e20",
      "logs": [
        {
          "address": "0x615715d5cc81c67eee64490a863c97c04af02c43",
          "topics": [
            "0x55bd16033ae8e80a1af8547b62c6fd40fbffbf5d4470d72387ea1872f854587b",
            "0x0000000000000000000000000000000000000000000000000000000000000017"
          ],
          "data": "0x00000000000000000000000000000000000000000000000000000000000000a00000000000000000000000000000000000000000000000000000000002625a0000000000000000000000000000000000000000000000000000000000000000280000000000000000000000000000000000000000000000000000000069c87d0a000000000000000000000000df2c71acf78172cd32c6e4ba6d80d09e87f299ef00000000000000000000000000000000000000000000000000000000000000254b726166742050617065722043617272792d4f7574204261677320283530302f6361736529000000000000000000000000000000000000000000000000000000",
          "blockHash": "0x46ed40a186f9c1c5d838adf135c48e03dd0aacdfda840812c41574f094230752",
          "blockNumber": "0xec7d7aa",
          "blockTimestamp": "0x69accdcb",
          "transactionHash": "0x9e7e1454777e19c0e150d2946ad6cc6830a7e180f04deb74e6e6785f86558ff8",
          "transactionIndex": "0x2",
          "logIndex": "0x1",
          "removed": false
        }
      ],
      "logsBloom": "0x00000000000000000000000000000000000000000100000000000000000000000000000000000000000000000000000000001000000000000000001000000000000000000000000000000000000000000000000000000000000000000000000000000000000000000000000000000000000000000000000000000000000000000000000000000000000000000000000000000000000200000000000000000008000000000000000000000000000000000000000000000080000000000000000000000000000000000000000000000000000000000000000000040000800000000000000000000000000000000000000000000000000000000000000000080000",
      "type": "0x2",
      "transactionHash": "0x9e7e1454777e19c0e150d2946ad6cc6830a7e180f04deb74e6e6785f86558ff8",
      "transactionIndex": "0x2",
      "blockHash": "0x46ed40a186f9c1c5d838adf135c48e03dd0aacdfda840812c41574f094230752",
      "blockNumber": "0xec7d7aa",
      "gasUsed": "0x30942",
      "effectiveGasPrice": "0x1316b80",
      "from": "0x7ecb39c481487f9826e2a4457599ba2f86af0342",
      "to": "0x615715d5cc81c67eee64490a863c97c04af02c43",
      "contractAddress": null,
      "gasUsedForL1": "0xbd",
      "l1BlockNumber": "0x9ec760",
      "timeboosted": false
    },
    {
      "status": "0x1",
      "cumulativeGasUsed": "0x4a491",
      "logs": [
        {
          "address": "0x615715d5cc81c67eee64490a863c97c04af02c43",
          "topics": [
            "0x55bd16033ae8e80a1af8547b62c6fd40fbffbf5d4470d72387ea1872f854587b",
            "0x0000000000000000000000000000000000000000000000000000000000000018"
          ],
          "data": "0x00000000000000000000000000000000000000000000000000000000000000a000000000000000000000000000000000000000000000000000000000017d7840000000000000000000000000000000000000000000000000000000000000003c0000000000000000000000000000000000000000000000000000000069c87d0a000000000000000000000000df2c71acf78172cd32c6e4ba6d80d09e87f299ef000000000000000000000000000000000000000000000000000000000000002454616b656f7574204261677320776974682048616e646c657320283235302f636173652900000000000000000000000000000000000000000000000000000000",
          "blockHash": "0x551e6b1dc63284ff8635b0b4417e629afddd1150a54a4fd67a921211526a97f5",
          "blockNumber": "0xec7d7b0",
          "blockTimestamp": "0x69accdcd",
          "transactionHash": "0x361c06dea05031ad22f43e7c1db974d28d35f02f8f5dd336cba9c418979952d3",
          "transactionIndex": "0x2",
          "logIndex": "0x3",
          "removed": false
        }
      ],
      "logsBloom": "0x00000000000000000000000000000000000000000100000000000000000000000000000000000000000000000000000000000000000000000000000000000000000000000000000000000000000000000040000000000000000000000000000000000000000000000000000000000000000000000000000000000000000000000000000000000000000000000000000000000000000200000000000000000008000000000000000000000000000000000000000000000080000000000000000000100000000000000000000000000000000000000000000020040000800000000000000000000000000000000000000000000000000000000000000000000000",
      "type": "0x2",
      "transactionHash": "0x361c06dea05031ad22f43e7c1db974d28d35f02f8f5dd336cba9c418979952d3",
      "transactionIndex": "0x2",
      "blockHash": "0x551e6b1dc63284ff8635b0b4417e629afddd1150a54a4fd67a921211526a97f5",
      "blockNumber": "0xec7d7b0",
      "gasUsed": "0x30944",
      "effectiveGasPrice": "0x1312d00",
      "from": "0x7ecb39c481487f9826e2a4457599ba2f86af0342",
      "to": "0x615715d5cc81c67eee64490a863c97c04af02c43",
      "contractAddress": null,
      "gasUsedForL1": "0xbf",
      "l1BlockNumber": "0x9ec760",
      "timeboosted": false
    },
    {
      "status": "0x1",
      "cumulativeGasUsed": "0x2b08d",
      "logs": [
        {
          "address": "0x615715d5cc81c67eee64490a863c97c04af02c43",
          "topics": [
            "0x55bd16033ae8e80a1af8547b62c6fd40fbffbf5d4470d72387ea1872f854587b",
            "0x0000000000000000000000000000000000000000000000000000000000000019"
          ],
          "data": "0x00000000000000000000000000000000000000000000000000000000000000a00000000000000000000000000000000000000000000000000000000001312d0000000000000000000000000000000000000000000000000000000000000000500000000000000000000000000000000000000000000000000000000069c87d0a000000000000000000000000df2c71acf78172cd32c6e4ba6d80d09e87f299ef0000000000000000000000000000000000000000000000000000000000000020466f696c20262050617263686d656e7420466f6f64205772617020526f6c6c73",
          "blockHash": "0x2d736077bdab55f6ce7f31ecdae499a84d8e6bc9ab95915c25d4bc40f58a6232",
          "blockNumber": "0xec7d7b8",
          "blockTimestamp": "0x69accdcf",
          "transactionHash": "0x042bc9bc1641f8ac900e55124ea1cb50ccfe33c5bd22eda17dbac823c0ccea99",
          "transactionIndex": "0x1",
          "logIndex": "0x0",
          "removed": false
        }
      ],
      "logsBloom": "0x00000000000000000000000000000000000000000100000000000000000000000000000000000000000000000000000000000000000000800000000000000000000000000000000000000000000000000000000000000000000000000000000000000000000000000000000000000000000000000000020000000000000000000000000000000000000000000000000000000000000200000000000000000008000000000000000000000000000000000000000000000080000000000000000000000000000000000000000000000000000000000000000000040000800000000000000000000000000000000000000000000000000000000000008000000000",
      "type": "0x2",
      "transactionHash": "0x042bc9bc1641f8ac900e55124ea1cb50ccfe33c5bd22eda17dbac823c0ccea99",
      "transactionIndex": "0x1",
      "blockHash": "0x2d736077bdab55f6ce7f31ecdae499a84d8e6bc9ab95915c25d4bc40f58a6232",
      "blockNumber": "0xec7d7b8",
      "gasUsed": "0x2b08d",
      "effectiveGasPrice": "0x1312d00",
      "from": "0x7ecb39c481487f9826e2a4457599ba2f86af0342",
      "to": "0x615715d5cc81c67eee64490a863c97c04af02c43",
      "contractAddress": null,
      "gasUsedForL1": "0xbb",
      "l1BlockNumber": "0x9ec760",
      "timeboosted": false
    }
  ],
  "libraries": [],
  "pending": [],
  "returns": {},
  "timestamp": 1772932561007,
  "chain": 421614,
  "commit": "3efe02b"
}