{
  "transactions": [
    {
      "hash": "0xf578f95828bc3dfd2cb032acb607a01920c6f867f837cc9744b52821fde1379c",
      "transactionType": "CALL",
      "contractName": null,
      "contractAddress": "0x3b0cb807778cb900caec181c1ce1b0133dcf8cb8",
      "function": "createPool(string,uint256[],uint256[],bool[],uint256,address)",
      "arguments": [
        "Arabica House Blend Coffee Beans",
        "[1, 75, 300]",
        "[10000000, 8500000, 7500000]",
        "[false, true, true]",
        "1775527780",
        "0xc646150D1995414f846CF19E7497e3E187Ea49d0"
      ],
      "transaction": {
        "from": "0x7ecb39c481487f9826e2a4457599ba2f86af0342",
        "to": "0x3b0cb807778cb900caec181c1ce1b0133dcf8cb8",
        "gas": "0x824e1",
        "value": "0x0",
        "input": "0xe3f1828100000000000000000000000000000000000000000000000000000000000000c00000000000000000000000000000000000000000000000000000000000000100000000000000000000000000000000000000000000000000000000000000018000000000000000000000000000000000000000000000000000000000000002000000000000000000000000000000000000000000000000000000000069d46764000000000000000000000000c646150d1995414f846cf19e7497e3e187ea49d000000000000000000000000000000000000000000000000000000000000000204172616269636120486f75736520426c656e6420436f66666565204265616e7300000000000000000000000000000000000000000000000000000000000000030000000000000000000000000000000000000000000000000000000000000001000000000000000000000000000000000000000000000000000000000000004b000000000000000000000000000000000000000000000000000000000000012c00000000000000000000000000000000000000000000000000000000000000030000000000000000000000000000000000000000000000000000000000989680000000000000000000000000000000000000000000000000000000000081b32000000000000000000000000000000000000000000000000000000000007270e00000000000000000000000000000000000000000000000000000000000000003000000000000000000000000000000000000000000000000000000000000000000000000000000000000000000000000000000000000000000000000000000010000000000000000000000000000000000000000000000000000000000000001",
        "nonce": "0x4c",
        "chainId": "0x66eee"
      },
      "additionalContracts": [],
      "isFixedGasLimit": false
    },
    {
      "hash": "0xefcaee783645193e60d4c8a161621429c0b0f70f93f97488ea9a1ddc9a231d23",
      "transactionType": "CALL",
      "contractName": null,
      "contractAddress": "0x3b0cb807778cb900caec181c1ce1b0133dcf8cb8",
      "function": "createPool(string,uint256[],uint256[],bool[],uint256,address)",
      "arguments": [
        "Arabica Espresso Blend Coffee Beans",
        "[1, 60, 250]",
        "[11000000, 9350000, 8250000]",
        "[false, true, true]",
        "1775527780",
        "0xc646150D1995414f846CF19E7497e3E187Ea49d0"
      ],
      "transaction": {
        "from": "0x7ecb39c481487f9826e2a4457599ba2f86af0342",
        "to": "0x3b0cb807778cb900caec181c1ce1b0133dcf8cb8",
        "gas": "0x898b7",
        "value": "0x0",
        "input": "0xe3f1828100000000000000000000000000000000000000000000000000000000000000c0000000000000000000000000000000000000000000000000000000000000012000000000000000000000000000000000000000000000000000000000000001a000000000000000000000000000000000000000000000000000000000000002200000000000000000000000000000000000000000000000000000000069d46764000000000000000000000000c646150d1995414f846cf19e7497e3e187ea49d000000000000000000000000000000000000000000000000000000000000000234172616269636120457370726573736f20426c656e6420436f66666565204265616e73000000000000000000000000000000000000000000000000000000000000000000000000000000000000000000000000000000000000000000000000030000000000000000000000000000000000000000000000000000000000000001000000000000000000000000000000000000000000000000000000000000003c00000000000000000000000000000000000000000000000000000000000000fa00000000000000000000000000000000000000000000000000000000000000030000000000000000000000000000000000000000000000000000000000a7d8c000000000000000000000000000000000000000000000000000000000008eab7000000000000000000000000000000000000000000000000000000000007de2900000000000000000000000000000000000000000000000000000000000000003000000000000000000000000000000000000000000000000000000000000000000000000000000000000000000000000000000000000000000000000000000010000000000000000000000000000000000000000000000000000000000000001",
        "nonce": "0x4d",
        "chainId": "0x66eee"
      },
      "additionalContracts": [],
      "isFixedGasLimit": false
    },
    {
      "hash": "0xa47d43869586cbaf2cb09d5af0730b261b3d264afe7221b4a37bdfa3bde7f007",
      "transactionType": "CALL",
      "contractName": null,
      "contractAddress": "0x3b0cb807778cb900caec181c1ce1b0133dcf8cb8",
      "function": "createPool(string,uint256[],uint256[],bool[],uint256,address)",
      "arguments": [
        "Ethiopian Single-Origin Coffee Beans",
        "[1, 80, 400]",
        "[10800000, 8980000, 8080000]",
        "[false, true, true]",
        "1775527780",
        "0xc646150D1995414f846CF19E7497e3E187Ea49d0"
      ],
      "transaction": {
        "from": "0x7ecb39c481487f9826e2a4457599ba2f86af0342",
        "to": "0x3b0cb807778cb900caec181c1ce1b0133dcf8cb8",
        "gas": "0x89928",
        "value": "0x0",
        "input": "0xe3f1828100000000000000000000000000000000000000000000000000000000000000c0000000000000000000000000000000000000000000000000000000000000012000000000000000000000000000000000000000000000000000000000000001a000000000000000000000000000000000000000000000000000000000000002200000000000000000000000000000000000000000000000000000000069d46764000000000000000000000000c646150d1995414f846cf19e7497e3e187ea49d00000000000000000000000000000000000000000000000000000000000000024457468696f7069616e2053696e676c652d4f726967696e20436f66666565204265616e7300000000000000000000000000000000000000000000000000000000000000000000000000000000000000000000000000000000000000000000000300000000000000000000000000000000000000000000000000000000000000010000000000000000000000000000000000000000000000000000000000000050000000000000000000000000000000000000000000000000000000000000019000000000000000000000000000000000000000000000000000000000000000030000000000000000000000000000000000000000000000000000000000a4cb80000000000000000000000000000000000000000000000000000000000089062000000000000000000000000000000000000000000000000000000000007b4a800000000000000000000000000000000000000000000000000000000000000003000000000000000000000000000000000000000000000000000000000000000000000000000000000000000000000000000000000000000000000000000000010000000000000000000000000000000000000000000000000000000000000001",
        "nonce": "0x4e",
        "chainId": "0x66eee"
      },
      "additionalContracts": [],
      "isFixedGasLimit": false
    },
    {
      "hash": "0xf45b9901f0efa6d99c1cf4d3890fc9360dde8b8a8b14b68fa94ed71947d2551a",
      "transactionType": "CALL",
      "contractName": null,
      "contractAddress": "0x3b0cb807778cb900caec181c1ce1b0133dcf8cb8",
      "function": "createPool(string,uint256[],uint256[],bool[],uint256,address)",
      "arguments": [
        "Colombian Single-Origin Coffee Beans",
        "[1, 60, 250]",
        "[8400000, 7140000, 6300000]",
        "[false, true, true]",
        "1775527780",
        "0xc646150D1995414f846CF19E7497e3E187Ea49d0"
      ],
      "transaction": {
        "from": "0x7ecb39c481487f9826e2a4457599ba2f86af0342",
        "to": "0x3b0cb807778cb900caec181c1ce1b0133dcf8cb8",
        "gas": "0x8990a",
        "value": "0x0",
        "input": "0xe3f1828100000000000000000000000000000000000000000000000000000000000000c0000000000000000000000000000000000000000000000000000000000000012000000000000000000000000000000000000000000000000000000000000001a000000000000000000000000000000000000000000000000000000000000002200000000000000000000000000000000000000000000000000000000069d46764000000000000000000000000c646150d1995414f846cf19e7497e3e187ea49d00000000000000000000000000000000000000000000000000000000000000024436f6c6f6d6269616e2053696e676c652d4f726967696e20436f66666565204265616e730000000000000000000000000000000000000000000000000000000000000000000000000000000000000000000000000000000000000000000000030000000000000000000000000000000000000000000000000000000000000001000000000000000000000000000000000000000000000000000000000000003c00000000000000000000000000000000000000000000000000000000000000fa00000000000000000000000000000000000000000000000000000000000000030000000000000000000000000000000000000000000000000000000000802c8000000000000000000000000000000000000000000000000000000000006cf2a000000000000000000000000000000000000000000000000000000000006021600000000000000000000000000000000000000000000000000000000000000003000000000000000000000000000000000000000000000000000000000000000000000000000000000000000000000000000000000000000000000000000000010000000000000000000000000000000000000000000000000000000000000001",
        "nonce": "0x4f",
        "chainId": "0x66eee"
      },
      "additionalContracts": [],
      "isFixedGasLimit": false
    },
    {
      "hash": "0xa10844f0df20aeeba0f6c3d636f43cb032dd7bfeb1133ae99fa3cf8389f0030c",
      "transactionType": "CALL",
      "contractName": null,
      "contractAddress": "0x3b0cb807778cb900caec181c1ce1b0133dcf8cb8",
      "function": "createPool(string,uint256[],uint256[],bool[],uint256,address)",
      "arguments": [
        "Guatemalan Single-Origin Coffee Beans",
        "[1, 60, 250]",
        "[13000000, 11050000, 9750000]",
        "[false, true, true]",
        "1775527780",
        "0xc646150D1995414f846CF19E7497e3E187Ea49d0"
      ],
      "transaction": {
        "from": "0x7ecb39c481487f9826e2a4457599ba2f86af0342",
        "to": "0x3b0cb807778cb900caec181c1ce1b0133dcf8cb8",
        "gas": "0x898e5",
        "value": "0x0",
        "input": "0xe3f1828100000000000000000000000000000000000000000000000000000000000000c0000000000000000000000000000000000000000000000000000000000000012000000000000000000000000000000000000000000000000000000000000001a000000000000000000000000000000000000000000000000000000000000002200000000000000000000000000000000000000000000000000000000069d46764000000000000000000000000c646150d1995414f846cf19e7497e3e187ea49d0000000000000000000000000000000000000000000000000000000000000002547756174656d616c616e2053696e676c652d4f726967696e20436f66666565204265616e7300000000000000000000000000000000000000000000000000000000000000000000000000000000000000000000000000000000000000000000030000000000000000000000000000000000000000000000000000000000000001000000000000000000000000000000000000000000000000000000000000003c00000000000000000000000000000000000000000000000000000000000000fa00000000000000000000000000000000000000000000000000000000000000030000000000000000000000000000000000000000000000000000000000c65d400000000000000000000000000000000000000000000000000000000000a89c10000000000000000000000000000000000000000000000000000000000094c5f00000000000000000000000000000000000000000000000000000000000000003000000000000000000000000000000000000000000000000000000000000000000000000000000000000000000000000000000000000000000000000000000010000000000000000000000000000000000000000000000000000000000000001",
        "nonce": "0x50",
        "chainId": "0x66eee"
      },
      "additionalContracts": [],
      "isFixedGasLimit": false
    },
    {
      "hash": "0xcf91f14ec0b7901e786c10cdf2495c8fb8af25bdee13b7244cba33c746b753e0",
      "transactionType": "CALL",
      "contractName": null,
      "contractAddress": "0x3b0cb807778cb900caec181c1ce1b0133dcf8cb8",
      "function": "createPool(string,uint256[],uint256[],bool[],uint256,address)",
      "arguments": [
        "Kenyan Single-Origin Coffee Beans",
        "[1, 50, 200]",
        "[10800000, 9180000, 8100000]",
        "[false, true, true]",
        "1775527780",
        "0xc646150D1995414f846CF19E7497e3E187Ea49d0"
      ],
      "transaction": {
        "from": "0x7ecb39c481487f9826e2a4457599ba2f86af0342",
        "to": "0x3b0cb807778cb900caec181c1ce1b0133dcf8cb8",
        "gas": "0x898a5",
        "value": "0x0",
        "input": "0xe3f1828100000000000000000000000000000000000000000000000000000000000000c0000000000000000000000000000000000000000000000000000000000000012000000000000000000000000000000000000000000000000000000000000001a000000000000000000000000000000000000000000000000000000000000002200000000000000000000000000000000000000000000000000000000069d46764000000000000000000000000c646150d1995414f846cf19e7497e3e187ea49d000000000000000000000000000000000000000000000000000000000000000214b656e79616e2053696e676c652d4f726967696e20436f66666565204265616e730000000000000000000000000000000000000000000000000000000000000000000000000000000000000000000000000000000000000000000000000000030000000000000000000000000000000000000000000000000000000000000001000000000000000000000000000000000000000000000000000000000000003200000000000000000000000000000000000000000000000000000000000000c800000000000000000000000000000000000000000000000000000000000000030000000000000000000000000000000000000000000000000000000000a4cb8000000000000000000000000000000000000000000000000000000000008c136000000000000000000000000000000000000000000000000000000000007b98a00000000000000000000000000000000000000000000000000000000000000003000000000000000000000000000000000000000000000000000000000000000000000000000000000000000000000000000000000000000000000000000000010000000000000000000000000000000000000000000000000000000000000001",
        "nonce": "0x51",
        "chainId": "0x66eee"
      },
      "additionalContracts": [],
      "isFixedGasLimit": false
    },
    {
      "hash": "0x108e7efd8c5cb0cca63b26bdf71da37f6ece8ae4a3e011630386967a359d9977",
      "transactionType": "CALL",
      "contractName": null,
      "contractAddress": "0x3b0cb807778cb900caec181c1ce1b0133dcf8cb8",
      "function": "createPool(string,uint256[],uint256[],bool[],uint256,address)",
      "arguments": [
        "Costa Rican Single-Origin Coffee Beans",
        "[1, 50, 200]",
        "[16000000, 13600000, 12000000]",
        "[false, true, true]",
        "1775527780",
        "0xc646150D1995414f846CF19E7497e3E187Ea49d0"
      ],
      "transaction": {
        "from": "0x7ecb39c481487f9826e2a4457599ba2f86af0342",
        "to": "0x3b0cb807778cb900caec181c1ce1b0133dcf8cb8",
        "gas": "0x898fb",
        "value": "0x0",
        "input": "0xe3f1828100000000000000000000000000000000000000000000000000000000000000c0000000000000000000000000000000000000000000000000000000000000012000000000000000000000000000000000000000000000000000000000000001a000000000000000000000000000000000000000000000000000000000000002200000000000000000000000000000000000000000000000000000000069d46764000000000000000000000000c646150d1995414f846cf19e7497e3e187ea49d00000000000000000000000000000000000000000000000000000000000000026436f73746120526963616e2053696e676c652d4f726967696e20436f66666565204265616e73000000000000000000000000000000000000000000000000000000000000000000000000000000000000000000000000000000000000000000030000000000000000000000000000000000000000000000000000000000000001000000000000000000000000000000000000000000000000000000000000003200000000000000000000000000000000000000000000000000000000000000c800000000000000000000000000000000000000000000000000000000000000030000000000000000000000000000000000000000000000000000000000f424000000000000000000000000000000000000000000000000000000000000cf85000000000000000000000000000000000000000000000000000000000000b71b000000000000000000000000000000000000000000000000000000000000000003000000000000000000000000000000000000000000000000000000000000000000000000000000000000000000000000000000000000000000000000000000010000000000000000000000000000000000000000000000000000000000000001",
        "nonce": "0x52",
        "chainId": "0x66eee"
      },
      "additionalContracts": [],
      "isFixedGasLimit": false
    },
    {
      "hash": "0xa92686afd58dc442687cf96a4401035a0aac378c31f025fd45806bc2a8f80015",
      "transactionType": "CALL",
      "contractName": null,
      "contractAddress": "0x3b0cb807778cb900caec181c1ce1b0133dcf8cb8",
      "function": "createPool(string,uint256[],uint256[],bool[],uint256,address)",
      "arguments": [
        "Light Roast Coffee Beans",
        "[1, 75, 300]",
        "[12000000, 10200000, 9000000]",
        "[false, true, true]",
        "1775527780",
        "0xc646150D1995414f846CF19E7497e3E187Ea49d0"
      ],
      "transaction": {
        "from": "0x7ecb39c481487f9826e2a4457599ba2f86af0342",
        "to": "0x3b0cb807778cb900caec181c1ce1b0133dcf8cb8",
        "gas": "0x7b2a8",
        "value": "0x0",
        "input": "0xe3f1828100000000000000000000000000000000000000000000000000000000000000c00000000000000000000000000000000000000000000000000000000000000100000000000000000000000000000000000000000000000000000000000000018000000000000000000000000000000000000000000000000000000000000002000000000000000000000000000000000000000000000000000000000069d46764000000000000000000000000c646150d1995414f846cf19e7497e3e187ea49d000000000000000000000000000000000000000000000000000000000000000184c6967687420526f61737420436f66666565204265616e73000000000000000000000000000000000000000000000000000000000000000000000000000000030000000000000000000000000000000000000000000000000000000000000001000000000000000000000000000000000000000000000000000000000000004b000000000000000000000000000000000000000000000000000000000000012c00000000000000000000000000000000000000000000000000000000000000030000000000000000000000000000000000000000000000000000000000b71b0000000000000000000000000000000000000000000000000000000000009ba3c000000000000000000000000000000000000000000000000000000000008954400000000000000000000000000000000000000000000000000000000000000003000000000000000000000000000000000000000000000000000000000000000000000000000000000000000000000000000000000000000000000000000000010000000000000000000000000000000000000000000000000000000000000001",
        "nonce": "0x53",
        "chainId": "0x66eee"
      },
      "additionalContracts": [],
      "isFixedGasLimit": false
    },
    {
      "hash": "0x56640d9fa3a9cd2f6cde9475dc65ce07a718f37ec318813dd5b0efe5bfa31248",
      "transactionType": "CALL",
      "contractName": null,
      "contractAddress": "0x3b0cb807778cb900caec181c1ce1b0133dcf8cb8",
      "function": "createPool(string,uint256[],uint256[],bool[],uint256,address)",
      "arguments": [
        "Medium Roast Coffee Beans",
        "[1, 100, 400]",
        "[10000000, 8500000, 7500000]",
        "[false, true, true]",
        "1775527780",
        "0xc646150D1995414f846CF19E7497e3E187Ea49d0"
      ],
      "transaction": {
        "from": "0x7ecb39c481487f9826e2a4457599ba2f86af0342",
        "to": "0x3b0cb807778cb900caec181c1ce1b0133dcf8cb8",
        "gas": "0x7b2c7",
        "value": "0x0",
        "input": "0xe3f1828100000000000000000000000000000000000000000000000000000000000000c00000000000000000000000000000000000000000000000000000000000000100000000000000000000000000000000000000000000000000000000000000018000000000000000000000000000000000000000000000000000000000000002000000000000000000000000000000000000000000000000000000000069d46764000000000000000000000000c646150d1995414f846cf19e7497e3e187ea49d000000000000000000000000000000000000000000000000000000000000000194d656469756d20526f61737420436f66666565204265616e7300000000000000000000000000000000000000000000000000000000000000000000000000000300000000000000000000000000000000000000000000000000000000000000010000000000000000000000000000000000000000000000000000000000000064000000000000000000000000000000000000000000000000000000000000019000000000000000000000000000000000000000000000000000000000000000030000000000000000000000000000000000000000000000000000000000989680000000000000000000000000000000000000000000000000000000000081b32000000000000000000000000000000000000000000000000000000000007270e00000000000000000000000000000000000000000000000000000000000000003000000000000000000000000000000000000000000000000000000000000000000000000000000000000000000000000000000000000000000000000000000010000000000000000000000000000000000000000000000000000000000000001",
        "nonce": "0x54",
        "chainId": "0x66eee"
      },
      "additionalContracts": [],
      "isFixedGasLimit": false
    },
    {
      "hash": "0x9d088c3fed5b5b6786066aa225430beaec08cc2fdf5457646ce1765c119ff886",
      "transactionType": "CALL",
      "contractName": null,
      "contractAddress": "0x3b0cb807778cb900caec181c1ce1b0133dcf8cb8",
      "function": "createPool(string,uint256[],uint256[],bool[],uint256,address)",
      "arguments": [
        "Dark / French Roast Coffee Beans",
        "[1, 100, 400]",
        "[10000000, 8500000, 7500000]",
        "[false, true, true]",
        "1775527780",
        "0xc646150D1995414f846CF19E7497e3E187Ea49d0"
      ],
      "transaction": {
        "from": "0x7ecb39c481487f9826e2a4457599ba2f86af0342",
        "to": "0x3b0cb807778cb900caec181c1ce1b0133dcf8cb8",
        "gas": "0x824c6",
        "value": "0x0",
        "input": "0xe3f1828100000000000000000000000000000000000000000000000000000000000000c00000000000000000000000000000000000000000000000000000000000000100000000000000000000000000000000000000000000000000000000000000018000000000000000000000000000000000000000000000000000000000000002000000000000000000000000000000000000000000000000000000000069d46764000000000000000000000000c646150d1995414f846cf19e7497e3e187ea49d000000000000000000000000000000000000000000000000000000000000000204461726b202f204672656e636820526f61737420436f66666565204265616e73000000000000000000000000000000000000000000000000000000000000000300000000000000000000000000000000000000000000000000000000000000010000000000000000000000000000000000000000000000000000000000000064000000000000000000000000000000000000000000000000000000000000019000000000000000000000000000000000000000000000000000000000000000030000000000000000000000000000000000000000000000000000000000989680000000000000000000000000000000000000000000000000000000000081b32000000000000000000000000000000000000000000000000000000000007270e00000000000000000000000000000000000000000000000000000000000000003000000000000000000000000000000000000000000000000000000000000000000000000000000000000000000000000000000000000000000000000000000010000000000000000000000000000000000000000000000000000000000000001",
        "nonce": "0x55",
        "chainId": "0x66eee"
      },
      "additionalContracts": [],
      "isFixedGasLimit": false
    },
    {
      "hash": "0x6e8d59a32e4a8ca93b8b196d7b65e5409dedf01055ee1fce28e6c64be15824bb",
      "transactionType": "CALL",
      "contractName": null,
      "contractAddress": "0x3b0cb807778cb900caec181c1ce1b0133dcf8cb8",
      "function": "createPool(string,uint256[],uint256[],bool[],uint256,address)",
      "arguments": [
        "Decaf Swiss Water Process Coffee Beans",
        "[1, 50, 200]",
        "[9600000, 8160000, 7200000]",
        "[false, true, true]",
        "1775527780",
        "0xc646150D1995414f846CF19E7497e3E187Ea49d0"
      ],
      "transaction": {
        "from": "0x7ecb39c481487f9826e2a4457599ba2f86af0342",
        "to": "0x3b0cb807778cb900caec181c1ce1b0133dcf8cb8",
        "gas": "0x898c5",
        "value": "0x0",
        "input": "0xe3f1828100000000000000000000000000000000000000000000000000000000000000c0000000000000000000000000000000000000000000000000000000000000012000000000000000000000000000000000000000000000000000000000000001a000000000000000000000000000000000000000000000000000000000000002200000000000000000000000000000000000000000000000000000000069d46764000000000000000000000000c646150d1995414f846cf19e7497e3e187ea49d0000000000000000000000000000000000000000000000000000000000000002644656361662053776973732057617465722050726f6365737320436f66666565204265616e73000000000000000000000000000000000000000000000000000000000000000000000000000000000000000000000000000000000000000000030000000000000000000000000000000000000000000000000000000000000001000000000000000000000000000000000000000000000000000000000000003200000000000000000000000000000000000000000000000000000000000000c800000000000000000000000000000000000000000000000000000000000000030000000000000000000000000000000000000000000000000000000000927c0000000000000000000000000000000000000000000000000000000000007c830000000000000000000000000000000000000000000000000000000000006ddd000000000000000000000000000000000000000000000000000000000000000003000000000000000000000000000000000000000000000000000000000000000000000000000000000000000000000000000000000000000000000000000000010000000000000000000000000000000000000000000000000000000000000001",
        "nonce": "0x56",
        "chainId": "0x66eee"
      },
      "additionalContracts": [],
      "isFixedGasLimit": false
    },
    {
      "hash": "0x3137df89536c50610c51eb754feea5951ca1cc683b51fe97db804f766851ef2e",
      "transactionType": "CALL",
      "contractName": null,
      "contractAddress": "0x3b0cb807778cb900caec181c1ce1b0133dcf8cb8",
      "function": "createPool(string,uint256[],uint256[],bool[],uint256,address)",
      "arguments": [
        "Green Unroasted Coffee Beans",
        "[1, 100, 400]",
        "[6000000, 5100000, 4500000]",
        "[false, true, true]",
        "1775527780",
        "0xc646150D1995414f846CF19E7497e3E187Ea49d0"
      ],
      "transaction": {
        "from": "0x7ecb39c481487f9826e2a4457599ba2f86af0342",
        "to": "0x3b0cb807778cb900caec181c1ce1b0133dcf8cb8",
        "gas": "0x7b31e",
        "value": "0x0",
        "input": "0xe3f1828100000000000000000000000000000000000000000000000000000000000000c00000000000000000000000000000000000000000000000000000000000000100000000000000000000000000000000000000000000000000000000000000018000000000000000000000000000000000000000000000000000000000000002000000000000000000000000000000000000000000000000000000000069d46764000000000000000000000000c646150d1995414f846cf19e7497e3e187ea49d0000000000000000000000000000000000000000000000000000000000000001c477265656e20556e726f617374656420436f66666565204265616e73000000000000000000000000000000000000000000000000000000000000000000000003000000000000000000000000000000000000000000000000000000000000000100000000000000000000000000000000000000000000000000000000000000640000000000000000000000000000000000000000000000000000000000000190000000000000000000000000000000000000000000000000000000000000000300000000000000000000000000000000000000000000000000000000005b8d8000000000000000000000000000000000000000000000000000000000004dd1e0000000000000000000000000000000000000000000000000000000000044aa200000000000000000000000000000000000000000000000000000000000000003000000000000000000000000000000000000000000000000000000000000000000000000000000000000000000000000000000000000000000000000000000010000000000000000000000000000000000000000000000000000000000000001",
        "nonce": "0x57",
        "chainId": "0x66eee"
      },
      "additionalContracts": [],
      "isFixedGasLimit": false
    },
    {
      "hash": "0x3983a808a271fd884d2ee0499f6612ba54b2ababcb0875bd7d6a31d6e122296e",
      "transactionType": "CALL",
      "contractName": null,
      "contractAddress": "0x3b0cb807778cb900caec181c1ce1b0133dcf8cb8",
      "function": "createPool(string,uint256[],uint256[],bool[],uint256,address)",
      "arguments": [
        "Hot Paper Cups 12oz (1000/case)",
        "[1, 25, 100]",
        "[48000000, 40000000, 36000000]",
        "[false, true, true]",
        "1774750180",
        "0xc646150D1995414f846CF19E7497e3E187Ea49d0"
      ],
      "transaction": {
        "from": "0x7ecb39c481487f9826e2a4457599ba2f86af0342",
        "to": "0x3b0cb807778cb900caec181c1ce1b0133dcf8cb8",
        "gas": "0x7b3c3",
        "value": "0x0",
        "input": "0xe3f1828100000000000000000000000000000000000000000000000000000000000000c00000000000000000000000000000000000000000000000000000000000000100000000000000000000000000000000000000000000000000000000000000018000000000000000000000000000000000000000000000000000000000000002000000000000000000000000000000000000000000000000000000000069c889e4000000000000000000000000c646150d1995414f846cf19e7497e3e187ea49d0000000000000000000000000000000000000000000000000000000000000001f486f7420506170657220437570732031326f7a2028313030302f636173652900000000000000000000000000000000000000000000000000000000000000000300000000000000000000000000000000000000000000000000000000000000010000000000000000000000000000000000000000000000000000000000000019000000000000000000000000000000000000000000000000000000000000006400000000000000000000000000000000000000000000000000000000000000030000000000000000000000000000000000000000000000000000000002dc6c000000000000000000000000000000000000000000000000000000000002625a0000000000000000000000000000000000000000000000000000000000022551000000000000000000000000000000000000000000000000000000000000000003000000000000000000000000000000000000000000000000000000000000000000000000000000000000000000000000000000000000000000000000000000010000000000000000000000000000000000000000000000000000000000000001",
        "nonce": "0x58",
        "chainId": "0x66eee"
      },
      "additionalContracts": [],
      "isFixedGasLimit": false
    },
    {
      "hash": "0x485a1c986356891ba7753136020388aa71a011e1004ea67fca1cb549f9807c17",
      "transactionType": "CALL",
      "contractName": null,
      "contractAddress": "0x3b0cb807778cb900caec181c1ce1b0133dcf8cb8",
      "function": "createPool(string,uint256[],uint256[],bool[],uint256,address)",
      "arguments": [
        "Hot Paper Cups 16oz (1000/case)",
        "[1, 20, 80]",
        "[57000000, 47500000, 42750000]",
        "[false, true, true]",
        "1774750180",
        "0xc646150D1995414f846CF19E7497e3E187Ea49d0"
      ],
      "transaction": {
        "from": "0x7ecb39c481487f9826e2a4457599ba2f86af0342",
        "to": "0x3b0cb807778cb900caec181c1ce1b0133dcf8cb8",
        "gas": "0x7b3bd",
        "value": "0x0",
        "input": "0xe3f1828100000000000000000000000000000000000000000000000000000000000000c00000000000000000000000000000000000000000000000000000000000000100000000000000000000000000000000000000000000000000000000000000018000000000000000000000000000000000000000000000000000000000000002000000000000000000000000000000000000000000000000000000000069c889e4000000000000000000000000c646150d1995414f846cf19e7497e3e187ea49d0000000000000000000000000000000000000000000000000000000000000001f486f7420506170657220437570732031366f7a2028313030302f63617365290000000000000000000000000000000000000000000000000000000000000000030000000000000000000000000000000000000000000000000000000000000001000000000000000000000000000000000000000000000000000000000000001400000000000000000000000000000000000000000000000000000000000000500000000000000000000000000000000000000000000000000000000000000003000000000000000000000000000000000000000000000000000000000365c0400000000000000000000000000000000000000000000000000000000002d4cae000000000000000000000000000000000000000000000000000000000028c50300000000000000000000000000000000000000000000000000000000000000003000000000000000000000000000000000000000000000000000000000000000000000000000000000000000000000000000000000000000000000000000000010000000000000000000000000000000000000000000000000000000000000001",
        "nonce": "0x59",
        "chainId": "0x66eee"
      },
      "additionalContracts": [],
      "isFixedGasLimit": false
    },
    {
      "hash": "0xe848467a986cab80c8002f338d308a043fc22a313f59387276d568d5db2cebdb",
      "transactionType": "CALL",
      "contractName": null,
      "contractAddress": "0x3b0cb807778cb900caec181c1ce1b0133dcf8cb8",
      "function": "createPool(string,uint256[],uint256[],bool[],uint256,address)",
      "arguments": [
        "Cold Clear Cups 16oz (1000/case)",
        "[1, 25, 100]",
        "[70000000, 59500000, 52500000]",
        "[false, true, true]",
        "1774750180",
        "0xc646150D1995414f846CF19E7497e3E187Ea49d0"
      ],
      "transaction": {
        "from": "0x7ecb39c481487f9826e2a4457599ba2f86af0342",
        "to": "0x3b0cb807778cb900caec181c1ce1b0133dcf8cb8",
        "gas": "0x82542",
        "value": "0x0",
        "input": "0xe3f1828100000000000000000000000000000000000000000000000000000000000000c00000000000000000000000000000000000000000000000000000000000000100000000000000000000000000000000000000000000000000000000000000018000000000000000000000000000000000000000000000000000000000000002000000000000000000000000000000000000000000000000000000000069c889e4000000000000000000000000c646150d1995414f846cf19e7497e3e187ea49d00000000000000000000000000000000000000000000000000000000000000020436f6c6420436c65617220437570732031366f7a2028313030302f63617365290000000000000000000000000000000000000000000000000000000000000003000000000000000000000000000000000000000000000000000000000000000100000000000000000000000000000000000000000000000000000000000000190000000000000000000000000000000000000000000000000000000000000064000000000000000000000000000000000000000000000000000000000000000300000000000000000000000000000000000000000000000000000000042c1d8000000000000000000000000000000000000000000000000000000000038be5e000000000000000000000000000000000000000000000000000000000032116200000000000000000000000000000000000000000000000000000000000000003000000000000000000000000000000000000000000000000000000000000000000000000000000000000000000000000000000000000000000000000000000010000000000000000000000000000000000000000000000000000000000000001",
        "nonce": "0x5a",
        "chainId": "0x66eee"
      },
      "additionalContracts": [],
      "isFixedGasLimit": false
    },
    {
      "hash": "0x72b61e9254c6a5d96144d6dfaf9d6208ae2621a1e945be5fe02e97065ec06d92",
      "transactionType": "CALL",
      "contractName": null,
      "contractAddress": "0x3b0cb807778cb900caec181c1ce1b0133dcf8cb8",
      "function": "createPool(string,uint256[],uint256[],bool[],uint256,address)",
      "arguments": [
        "Compostable Hot Cups 12oz (500/case)",
        "[1, 20, 80]",
        "[90000000, 76500000, 67500000]",
        "[false, true, true]",
        "1774750180",
        "0xc646150D1995414f846CF19E7497e3E187Ea49d0"
      ],
      "transaction": {
        "from": "0x7ecb39c481487f9826e2a4457599ba2f86af0342",
        "to": "0x3b0cb807778cb900caec181c1ce1b0133dcf8cb8",
        "gas": "0x899a5",
        "value": "0x0",
        "input": "0xe3f1828100000000000000000000000000000000000000000000000000000000000000c0000000000000000000000000000000000000000000000000000000000000012000000000000000000000000000000000000000000000000000000000000001a000000000000000000000000000000000000000000000000000000000000002200000000000000000000000000000000000000000000000000000000069c889e4000000000000000000000000c646150d1995414f846cf19e7497e3e187ea49d00000000000000000000000000000000000000000000000000000000000000024436f6d706f737461626c6520486f7420437570732031326f7a20283530302f6361736529000000000000000000000000000000000000000000000000000000000000000000000000000000000000000000000000000000000000000000000003000000000000000000000000000000000000000000000000000000000000000100000000000000000000000000000000000000000000000000000000000000140000000000000000000000000000000000000000000000000000000000000050000000000000000000000000000000000000000000000000000000000000000300000000000000000000000000000000000000000000000000000000055d4a8000000000000000000000000000000000000000000000000000000000048f4c20000000000000000000000000000000000000000000000000000000000405f7e00000000000000000000000000000000000000000000000000000000000000003000000000000000000000000000000000000000000000000000000000000000000000000000000000000000000000000000000000000000000000000000000010000000000000000000000000000000000000000000000000000000000000001",
        "nonce": "0x5b",
        "chainId": "0x66eee"
      },
      "additionalContracts": [],
      "isFixedGasLimit": false
    },
    {
      "hash": "0x0fb10a2ef9c182f525ec4b7345d905b62a882c617dfafece883eb389997bbcaf",
      "transactionType": "CALL",
      "contractName": null,
      "contractAddress": "0x3b0cb807778cb900caec181c1ce1b0133dcf8cb8",
      "function": "createPool(string,uint256[],uint256[],bool[],uint256,address)",
      "arguments": [
        "Flat Lids for 12-16oz Cups (1000/case)",
        "[1, 40, 150]",
        "[40000000, 34000000, 30000000]",
        "[false, true, true]",
        "1774750180",
        "0xc646150D1995414f846CF19E7497e3E187Ea49d0"
      ],
      "transaction": {
        "from": "0x7ecb39c481487f9826e2a4457599ba2f86af0342",
        "to": "0x3b0cb807778cb900caec181c1ce1b0133dcf8cb8",
        "gas": "0x899b5",
        "value": "0x0",
        "input": "0xe3f1828100000000000000000000000000000000000000000000000000000000000000c0000000000000000000000000000000000000000000000000000000000000012000000000000000000000000000000000000000000000000000000000000001a000000000000000000000000000000000000000000000000000000000000002200000000000000000000000000000000000000000000000000000000069c889e4000000000000000000000000c646150d1995414f846cf19e7497e3e187ea49d00000000000000000000000000000000000000000000000000000000000000026466c6174204c69647320666f722031322d31366f7a20437570732028313030302f63617365290000000000000000000000000000000000000000000000000000000000000000000000000000000000000000000000000000000000000000000300000000000000000000000000000000000000000000000000000000000000010000000000000000000000000000000000000000000000000000000000000028000000000000000000000000000000000000000000000000000000000000009600000000000000000000000000000000000000000000000000000000000000030000000000000000000000000000000000000000000000000000000002625a00000000000000000000000000000000000000000000000000000000000206cc800000000000000000000000000000000000000000000000000000000001c9c3800000000000000000000000000000000000000000000000000000000000000003000000000000000000000000000000000000000000000000000000000000000000000000000000000000000000000000000000000000000000000000000000010000000000000000000000000000000000000000000000000000000000000001",
        "nonce": "0x5c",
        "chainId": "0x66eee"
      },
      "additionalContracts": [],
      "isFixedGasLimit": false
    },
    {
      "hash": "0x65bb637c00a23b65bc8af44e7ad3ead019aa439ce23c4389fbd35e8170ade47b",
      "transactionType": "CALL",
      "contractName": null,
      "contractAddress": "0x3b0cb807778cb900caec181c1ce1b0133dcf8cb8",
      "function": "createPool(string,uint256[],uint256[],bool[],uint256,address)",
      "arguments": [
        "3-Compartment Clamshell Boxes (200/case)",
        "[1, 50, 200]",
        "[21000000, 17500000, 15750000]",
        "[false, true, true]",
        "1774750180",
        "0xc646150D1995414f846CF19E7497e3E187Ea49d0"
      ],
      "transaction": {
        "from": "0x7ecb39c481487f9826e2a4457599ba2f86af0342",
        "to": "0x3b0cb807778cb900caec181c1ce1b0133dcf8cb8",
        "gas": "0x899ad",
        "value": "0x0",
        "input": "0xe3f1828100000000000000000000000000000000000000000000000000000000000000c0000000000000000000000000000000000000000000000000000000000000012000000000000000000000000000000000000000000000000000000000000001a000000000000000000000000000000000000000000000000000000000000002200000000000000000000000000000000000000000000000000000000069c889e4000000000000000000000000c646150d1995414f846cf19e7497e3e187ea49d00000000000000000000000000000000000000000000000000000000000000028332d436f6d706172746d656e7420436c616d7368656c6c20426f78657320283230302f636173652900000000000000000000000000000000000000000000000000000000000000000000000000000000000000000000000000000000000000030000000000000000000000000000000000000000000000000000000000000001000000000000000000000000000000000000000000000000000000000000003200000000000000000000000000000000000000000000000000000000000000c800000000000000000000000000000000000000000000000000000000000000030000000000000000000000000000000000000000000000000000000001406f4000000000000000000000000000000000000000000000000000000000010b07600000000000000000000000000000000000000000000000000000000000f053700000000000000000000000000000000000000000000000000000000000000003000000000000000000000000000000000000000000000000000000000000000000000000000000000000000000000000000000000000000000000000000000010000000000000000000000000000000000000000000000000000000000000001",
        "nonce": "0x5d",
        "chainId": "0x66eee"
      },
      "additionalContracts": [],
      "isFixedGasLimit": false
    },
    {
      "hash": "0x6e1f5235b686cfd5941630887a65e49928ffbbd4c9f9c88a3a4f1063b6046f0e",
      "transactionType": "CALL",
      "contractName": null,
      "contractAddress": "0x3b0cb807778cb900caec181c1ce1b0133dcf8cb8",
      "function": "createPool(string,uint256[],uint256[],bool[],uint256,address)",
      "arguments": [
        "Deli Soup Containers 32oz w/Lids (250/case)",
        "[1, 50, 200]",
        "[30000000, 25500000, 22500000]",
        "[false, true, true]",
        "1774750180",
        "0xc646150D1995414f846CF19E7497e3E187Ea49d0"
      ],
      "transaction": {
        "from": "0x7ecb39c481487f9826e2a4457599ba2f86af0342",
        "to": "0x3b0cb807778cb900caec181c1ce1b0133dcf8cb8",
        "gas": "0x89a3c",
        "value": "0x0",
        "input": "0xe3f1828100000000000000000000000000000000000000000000000000000000000000c0000000000000000000000000000000000000000000000000000000000000012000000000000000000000000000000000000000000000000000000000000001a000000000000000000000000000000000000000000000000000000000000002200000000000000000000000000000000000000000000000000000000069c889e4000000000000000000000000c646150d1995414f846cf19e7497e3e187ea49d0000000000000000000000000000000000000000000000000000000000000002b44656c6920536f757020436f6e7461696e6572732033326f7a20772f4c69647320283235302f636173652900000000000000000000000000000000000000000000000000000000000000000000000000000000000000000000000000000000030000000000000000000000000000000000000000000000000000000000000001000000000000000000000000000000000000000000000000000000000000003200000000000000000000000000000000000000000000000000000000000000c800000000000000000000000000000000000000000000000000000000000000030000000000000000000000000000000000000000000000000000000001c9c380000000000000000000000000000000000000000000000000000000000185196000000000000000000000000000000000000000000000000000000000015752a00000000000000000000000000000000000000000000000000000000000000003000000000000000000000000000000000000000000000000000000000000000000000000000000000000000000000000000000000000000000000000000000010000000000000000000000000000000000000000000000000000000000000001",
        "nonce": "0x5e",
        "chainId": "0x66eee"
      },
      "additionalContracts": [],
      "isFixedGasLimit": false
    },
    {
      "hash": "0x64c62f12da0e8fb27e45aa62203f4d163b2c1e664a4ad03b7b1fe80837a324a2",
      "transactionType": "CALL",
      "contractName": null,
      "contractAddress": "0x3b0cb807778cb900caec181c1ce1b0133dcf8cb8",
      "function": "createPool(string,uint256[],uint256[],bool[],uint256,address)",
      "arguments": [
        "Aluminum Foil Pans Half-Size (100/case)",
        "[1, 60, 250]",
        "[25000000, 21250000, 18750000]",
        "[false, true, true]",
        "1774750180",
        "0xc646150D1995414f846CF19E7497e3E187Ea49d0"
      ],
      "transaction": {
        "from": "0x7ecb39c481487f9826e2a4457599ba2f86af0342",
        "to": "0x3b0cb807778cb900caec181c1ce1b0133dcf8cb8",
        "gas": "0x899c7",
        "value": "0x0",
        "input": "0xe3f1828100000000000000000000000000000000000000000000000000000000000000c0000000000000000000000000000000000000000000000000000000000000012000000000000000000000000000000000000000000000000000000000000001a000000000000000000000000000000000000000000000000000000000000002200000000000000000000000000000000000000000000000000000000069c889e4000000000000000000000000c646150d1995414f846cf19e7497e3e187ea49d00000000000000000000000000000000000000000000000000000000000000027416c756d696e756d20466f696c2050616e732048616c662d53697a6520283130302f63617365290000000000000000000000000000000000000000000000000000000000000000000000000000000000000000000000000000000000000000030000000000000000000000000000000000000000000000000000000000000001000000000000000000000000000000000000000000000000000000000000003c00000000000000000000000000000000000000000000000000000000000000fa000000000000000000000000000000000000000000000000000000000000000300000000000000000000000000000000000000000000000000000000017d78400000000000000000000000000000000000000000000000000000000001443fd000000000000000000000000000000000000000000000000000000000011e1a300000000000000000000000000000000000000000000000000000000000000003000000000000000000000000000000000000000000000000000000000000000000000000000000000000000000000000000000000000000000000000000000010000000000000000000000000000000000000000000000000000000000000001",
        "nonce": "0x5f",
        "chainId": "0x66eee"
      },
      "additionalContracts": [],
      "isFixedGasLimit": false
    },
    {
      "hash": "0x954e5e2cb068f1e061b5e50fea2f7c63865adf8c4a80cf32689f4f169206d894",
      "transactionType": "CALL",
      "contractName": null,
      "contractAddress": "0x3b0cb807778cb900caec181c1ce1b0133dcf8cb8",
      "function": "createPool(string,uint256[],uint256[],bool[],uint256,address)",
      "arguments": [
        "Compostable Cutlery Kits (250/case)",
        "[1, 75, 300]",
        "[12000000, 9600000, 8400000]",
        "[false, true, true]",
        "1774750180",
        "0xc646150D1995414f846CF19E7497e3E187Ea49d0"
      ],
      "transaction": {
        "from": "0x7ecb39c481487f9826e2a4457599ba2f86af0342",
        "to": "0x3b0cb807778cb900caec181c1ce1b0133dcf8cb8",
        "gas": "0x898f9",
        "value": "0x0",
        "input": "0xe3f1828100000000000000000000000000000000000000000000000000000000000000c0000000000000000000000000000000000000000000000000000000000000012000000000000000000000000000000000000000000000000000000000000001a000000000000000000000000000000000000000000000000000000000000002200000000000000000000000000000000000000000000000000000000069c889e4000000000000000000000000c646150d1995414f846cf19e7497e3e187ea49d00000000000000000000000000000000000000000000000000000000000000023436f6d706f737461626c65204375746c657279204b69747320283235302f6361736529000000000000000000000000000000000000000000000000000000000000000000000000000000000000000000000000000000000000000000000000030000000000000000000000000000000000000000000000000000000000000001000000000000000000000000000000000000000000000000000000000000004b000000000000000000000000000000000000000000000000000000000000012c00000000000000000000000000000000000000000000000000000000000000030000000000000000000000000000000000000000000000000000000000b71b000000000000000000000000000000000000000000000000000000000000927c000000000000000000000000000000000000000000000000000000000000802c800000000000000000000000000000000000000000000000000000000000000003000000000000000000000000000000000000000000000000000000000000000000000000000000000000000000000000000000000000000000000000000000010000000000000000000000000000000000000000000000000000000000000001",
        "nonce": "0x60",
        "chainId": "0x66eee"
      },
      "additionalContracts": [],
      "isFixedGasLimit": false
    },
    {
      "hash": "0x0400fae8ca5ebc6dc93e837e60c634ed6c65b23982794dc930207efe632bbf2c",
      "transactionType": "CALL",
      "contractName": null,
      "contractAddress": "0x3b0cb807778cb900caec181c1ce1b0133dcf8cb8",
      "function": "createPool(string,uint256[],uint256[],bool[],uint256,address)",
      "arguments": [
        "Bulk Napkins (8000/case)",
        "[1, 50, 200]",
        "[35000000, 29750000, 26250000]",
        "[false, true, true]",
        "1774750180",
        "0xc646150D1995414f846CF19E7497e3E187Ea49d0"
      ],
      "transaction": {
        "from": "0x7ecb39c481487f9826e2a4457599ba2f86af0342",
        "to": "0x3b0cb807778cb900caec181c1ce1b0133dcf8cb8",
        "gas": "0x7b2bd",
        "value": "0x0",
        "input": "0xe3f1828100000000000000000000000000000000000000000000000000000000000000c00000000000000000000000000000000000000000000000000000000000000100000000000000000000000000000000000000000000000000000000000000018000000000000000000000000000000000000000000000000000000000000002000000000000000000000000000000000000000000000000000000000069c889e4000000000000000000000000c646150d1995414f846cf19e7497e3e187ea49d0000000000000000000000000000000000000000000000000000000000000001842756c6b204e61706b696e732028383030302f6361736529000000000000000000000000000000000000000000000000000000000000000000000000000000030000000000000000000000000000000000000000000000000000000000000001000000000000000000000000000000000000000000000000000000000000003200000000000000000000000000000000000000000000000000000000000000c800000000000000000000000000000000000000000000000000000000000000030000000000000000000000000000000000000000000000000000000002160ec00000000000000000000000000000000000000000000000000000000001c5f2f00000000000000000000000000000000000000000000000000000000001908b100000000000000000000000000000000000000000000000000000000000000003000000000000000000000000000000000000000000000000000000000000000000000000000000000000000000000000000000000000000000000000000000010000000000000000000000000000000000000000000000000000000000000001",
        "nonce": "0x61",
        "chainId": "0x66eee"
      },
      "additionalContracts": [],
      "isFixedGasLimit": false
    },
    {
      "hash": "0x1bc24c6512d91f470f13498d62d8133f3a063164ec0877baf8c6ff913dee619a",
      "transactionType": "CALL",
      "contractName": null,
      "contractAddress": "0x3b0cb807778cb900caec181c1ce1b0133dcf8cb8",
      "function": "createPool(string,uint256[],uint256[],bool[],uint256,address)",
      "arguments": [
        "Eco Paper Straws (500/case)",
        "[1, 100, 400]",
        "[15000000, 12750000, 11250000]",
        "[false, true, true]",
        "1774750180",
        "0xc646150D1995414f846CF19E7497e3E187Ea49d0"
      ],
      "transaction": {
        "from": "0x7ecb39c481487f9826e2a4457599ba2f86af0342",
        "to": "0x3b0cb807778cb900caec181c1ce1b0133dcf8cb8",
        "gas": "0x7b2e6",
        "value": "0x0",
        "input": "0xe3f1828100000000000000000000000000000000000000000000000000000000000000c00000000000000000000000000000000000000000000000000000000000000100000000000000000000000000000000000000000000000000000000000000018000000000000000000000000000000000000000000000000000000000000002000000000000000000000000000000000000000000000000000000000069c889e4000000000000000000000000c646150d1995414f846cf19e7497e3e187ea49d0000000000000000000000000000000000000000000000000000000000000001b45636f2050617065722053747261777320283530302f63617365290000000000000000000000000000000000000000000000000000000000000000000000000300000000000000000000000000000000000000000000000000000000000000010000000000000000000000000000000000000000000000000000000000000064000000000000000000000000000000000000000000000000000000000000019000000000000000000000000000000000000000000000000000000000000000030000000000000000000000000000000000000000000000000000000000e4e1c00000000000000000000000000000000000000000000000000000000000c28cb00000000000000000000000000000000000000000000000000000000000aba9500000000000000000000000000000000000000000000000000000000000000003000000000000000000000000000000000000000000000000000000000000000000000000000000000000000000000000000000000000000000000000000000010000000000000000000000000000000000000000000000000000000000000001",
        "nonce": "0x62",
        "chainId": "0x66eee"
      },
      "additionalContracts": [],
      "isFixedGasLimit": false
    },
    {
      "hash": "0xada4474bb6578ab534017a23eb4e73e83fe34c654a180cb839cc74531f920f9b",
      "transactionType": "CALL",
      "contractName": null,
      "contractAddress": "0x3b0cb807778cb900caec181c1ce1b0133dcf8cb8",
      "function": "createPool(string,uint256[],uint256[],bool[],uint256,address)",
      "arguments": [
        "Kraft Paper Carry-Out Bags (500/case)",
        "[1, 40, 150]",
        "[40000000, 34000000, 30000000]",
        "[false, true, true]",
        "1774750180",
        "0xc646150D1995414f846CF19E7497e3E187Ea49d0"
      ],
      "transaction": {
        "from": "0x7ecb39c481487f9826e2a4457599ba2f86af0342",
        "to": "0x3b0cb807778cb900caec181c1ce1b0133dcf8cb8",
        "gas": "0x89961",
        "value": "0x0",
        "input": "0xe3f1828100000000000000000000000000000000000000000000000000000000000000c0000000000000000000000000000000000000000000000000000000000000012000000000000000000000000000000000000000000000000000000000000001a000000000000000000000000000000000000000000000000000000000000002200000000000000000000000000000000000000000000000000000000069c889e4000000000000000000000000c646150d1995414f846cf19e7497e3e187ea49d000000000000000000000000000000000000000000000000000000000000000254b726166742050617065722043617272792d4f7574204261677320283530302f6361736529000000000000000000000000000000000000000000000000000000000000000000000000000000000000000000000000000000000000000000000300000000000000000000000000000000000000000000000000000000000000010000000000000000000000000000000000000000000000000000000000000028000000000000000000000000000000000000000000000000000000000000009600000000000000000000000000000000000000000000000000000000000000030000000000000000000000000000000000000000000000000000000002625a00000000000000000000000000000000000000000000000000000000000206cc800000000000000000000000000000000000000000000000000000000001c9c3800000000000000000000000000000000000000000000000000000000000000003000000000000000000000000000000000000000000000000000000000000000000000000000000000000000000000000000000000000000000000000000000010000000000000000000000000000000000000000000000000000000000000001",
        "nonce": "0x63",
        "chainId": "0x66eee"
      },
      "additionalContracts": [],
      "isFixedGasLimit": false
    },
    {
      "hash": "0xd7f381ee4e6b6af0111d173e6a33eed38c6f928d2ed21904006a5506221e84c6",
      "transactionType": "CALL",
      "contractName": null,
      "contractAddress": "0x3b0cb807778cb900caec181c1ce1b0133dcf8cb8",
      "function": "createPool(string,uint256[],uint256[],bool[],uint256,address)",
      "arguments": [
        "Takeout Bags with Handles (250/case)",
        "[1, 60, 250]",
        "[25000000, 21250000, 18750000]",
        "[false, true, true]",
        "1774750180",
        "0xc646150D1995414f846CF19E7497e3E187Ea49d0"
      ],
      "transaction": {
        "from": "0x7ecb39c481487f9826e2a4457599ba2f86af0342",
        "to": "0x3b0cb807778cb900caec181c1ce1b0133dcf8cb8",
        "gas": "0x89970",
        "value": "0x0",
        "input": "0xe3f1828100000000000000000000000000000000000000000000000000000000000000c0000000000000000000000000000000000000000000000000000000000000012000000000000000000000000000000000000000000000000000000000000001a000000000000000000000000000000000000000000000000000000000000002200000000000000000000000000000000000000000000000000000000069c889e4000000000000000000000000c646150d1995414f846cf19e7497e3e187ea49d0000000000000000000000000000000000000000000000000000000000000002454616b656f7574204261677320776974682048616e646c657320283235302f63617365290000000000000000000000000000000000000000000000000000000000000000000000000000000000000000000000000000000000000000000000030000000000000000000000000000000000000000000000000000000000000001000000000000000000000000000000000000000000000000000000000000003c00000000000000000000000000000000000000000000000000000000000000fa000000000000000000000000000000000000000000000000000000000000000300000000000000000000000000000000000000000000000000000000017d78400000000000000000000000000000000000000000000000000000000001443fd000000000000000000000000000000000000000000000000000000000011e1a300000000000000000000000000000000000000000000000000000000000000003000000000000000000000000000000000000000000000000000000000000000000000000000000000000000000000000000000000000000000000000000000010000000000000000000000000000000000000000000000000000000000000001",
        "nonce": "0x64",
        "chainId": "0x66eee"
      },
      "additionalContracts": [],
      "isFixedGasLimit": false
    },
    {
      "hash": "0xbcdbfe61e89ef788906c6839537abba667afd22f33ef22f61969ad1500023835",
      "transactionType": "CALL",
      "contractName": null,
      "contractAddress": "0x3b0cb807778cb900caec181c1ce1b0133dcf8cb8",
      "function": "createPool(string,uint256[],uint256[],bool[],uint256,address)",
      "arguments": [
        "Foil & Parchment Food Wrap Rolls",
        "[1, 80, 300]",
        "[20000000, 17000000, 15000000]",
        "[false, true, true]",
        "1774750180",
        "0xc646150D1995414f846CF19E7497e3E187Ea49d0"
      ],
      "transaction": {
        "from": "0x7ecb39c481487f9826e2a4457599ba2f86af0342",
        "to": "0x3b0cb807778cb900caec181c1ce1b0133dcf8cb8",
        "gas": "0x82526",
        "value": "0x0",
        "input": "0xe3f1828100000000000000000000000000000000000000000000000000000000000000c00000000000000000000000000000000000000000000000000000000000000100000000000000000000000000000000000000000000000000000000000000018000000000000000000000000000000000000000000000000000000000000002000000000000000000000000000000000000000000000000000000000069c889e4000000000000000000000000c646150d1995414f846cf19e7497e3e187ea49d00000000000000000000000000000000000000000000000000000000000000020466f696c20262050617263686d656e7420466f6f64205772617020526f6c6c73000000000000000000000000000000000000000000000000000000000000000300000000000000000000000000000000000000000000000000000000000000010000000000000000000000000000000000000000000000000000000000000050000000000000000000000000000000000000000000000000000000000000012c00000000000000000000000000000000000000000000000000000000000000030000000000000000000000000000000000000000000000000000000001312d0000000000000000000000000000000000000000000000000000000000010366400000000000000000000000000000000000000000000000000000000000e4e1c00000000000000000000000000000000000000000000000000000000000000003000000000000000000000000000000000000000000000000000000000000000000000000000000000000000000000000000000000000000000000000000000010000000000000000000000000000000000000000000000000000000000000001",
        "nonce": "0x65",
        "chainId": "0x66eee"
      },
      "additionalContracts": [],
      "isFixedGasLimit": false
    }
  ],
  "receipts": [
    {
      "status": "0x1",
      "cumulativeGasUsed": "0x6302f",
      "logs": [
        {
          "address": "0x3b0cb807778cb900caec181c1ce1b0133dcf8cb8",
          "topics": [
            "0x7e013e17b6cd5fbe25667b6b6848b412bb921918e367afa2f1b5a54519c04db1",
            "0x0000000000000000000000000000000000000000000000000000000000000000"
          ],
          "data": "0x00000000000000000000000000000000000000000000000000000000000000c00000000000000000000000000000000000000000000000000000000000989680000000000000000000000000000000000000000000000000000000000000004b0000000000000000000000000000000000000000000000000000000069d46764000000000000000000000000c646150d1995414f846cf19e7497e3e187ea49d0000000000000000000000000000000000000000000000000000000000000000300000000000000000000000000000000000000000000000000000000000000204172616269636120486f75736520426c656e6420436f66666565204265616e73",
          "blockHash": "0xd088f8a1cca1f963c88f131d76c0dcb4ff7025ec37d8ea1f45d4065ac481a70f",
          "blockNumber": "0xec80594",
          "blockTimestamp": "0x69acda77",
          "transactionHash": "0xf578f95828bc3dfd2cb032acb607a01920c6f867f837cc9744b52821fde1379c",
          "transactionIndex": "0x1",
          "logIndex": "0x0",
          "removed": false
        }
      ],
      "logsBloom": "0x00000000000000000000000000040000000000000000000000000000020000000000000000000000000000000000000000000000000000000000000000000000000000000000000000000000000000000000000000000000000000000000000000000000020000000000000000000800000000000000000000000000000000000000000000000000000400000000000000000000000000000000000000000000000000000000000000000000400000000004000000000000000000000000000000000000000000000000000000000000000000000000000000000000000020100000000000000000000000000000000000000000000000000000000000000000",
      "type": "0x2",
      "transactionHash": "0xf578f95828bc3dfd2cb032acb607a01920c6f867f837cc9744b52821fde1379c",
      "transactionIndex": "0x1",
      "blockHash": "0xd088f8a1cca1f963c88f131d76c0dcb4ff7025ec37d8ea1f45d4065ac481a70f",
      "blockNumber": "0xec80594",
      "gasUsed": "0x6302f",
      "effectiveGasPrice": "0x1312d00",
      "from": "0x7ecb39c481487f9826e2a4457599ba2f86af0342",
      "to": "0x3b0cb807778cb900caec181c1ce1b0133dcf8cb8",
      "contractAddress": null,
      "gasUsedForL1": "0xc70",
      "l1BlockNumber": "0x9ec842",
      "timeboosted": false
    },
    {
      "status": "0x1",
      "cumulativeGasUsed": "0x645f4",
      "logs": [
        {
          "address": "0x3b0cb807778cb900caec181c1ce1b0133dcf8cb8",
          "topics": [
            "0x7e013e17b6cd5fbe25667b6b6848b412bb921918e367afa2f1b5a54519c04db1",
            "0x0000000000000000000000000000000000000000000000000000000000000001"
          ],
          "data": "0x00000000000000000000000000000000000000000000000000000000000000c00000000000000000000000000000000000000000000000000000000000a7d8c0000000000000000000000000000000000000000000000000000000000000003c0000000000000000000000000000000000000000000000000000000069d46764000000000000000000000000c646150d1995414f846cf19e7497e3e187ea49d0000000000000000000000000000000000000000000000000000000000000000300000000000000000000000000000000000000000000000000000000000000234172616269636120457370726573736f20426c656e6420436f66666565204265616e730000000000000000000000000000000000000000000000000000000000",
          "blockHash": "0x12090d6b1ed9cbe192ee7b06d72bd74c6f133582bc7320726f91fbcf69113935",
          "blockNumber": "0xec80596",
          "blockTimestamp": "0x69acda77",
          "transactionHash": "0xefcaee783645193e60d4c8a161621429c0b0f70f93f97488ea9a1ddc9a231d23",
          "transactionIndex": "0x1",
          "logIndex": "0x0",
          "removed": false
        }
      ],
      "logsBloom": "0x00000000000000000000000000040000000000000000000000000000020000000000000000000000000000000000000000000000000000000000000000040000000000000000000000000000000000000000000000040000000000000000000000000000000000000000000000000000000000000000000000000000000000000000000000000000000400000000000000000000000000000000000000000000000000000000000000000000400000000004000000000000000000000000000000000000000000000000000000000000000000000000000000000000000040100000000000000000000000000000000000000000000000000000000000000000",
      "type": "0x2",
      "transactionHash": "0xefcaee783645193e60d4c8a161621429c0b0f70f93f97488ea9a1ddc9a231d23",
      "transactionIndex": "0x1",
      "blockHash": "0x12090d6b1ed9cbe192ee7b06d72bd74c6f133582bc7320726f91fbcf69113935",
      "blockNumber": "0xec80596",
      "gasUsed": "0x645f4",
      "effectiveGasPrice": "0x1317b20",
      "from": "0x7ecb39c481487f9826e2a4457599ba2f86af0342",
      "to": "0x3b0cb807778cb900caec181c1ce1b0133dcf8cb8",
      "contractAddress": null,
      "gasUsedForL1": "0xc5b",
      "l1BlockNumber": "0x9ec842",
      "timeboosted": false
    },
    {
      "status": "0x1",
      "cumulativeGasUsed": "0x7135f",
      "logs": [
        {
          "address": "0x3b0cb807778cb900caec181c1ce1b0133dcf8cb8",
          "topics": [
            "0x7e013e17b6cd5fbe25667b6b6848b412bb921918e367afa2f1b5a54519c04db1",
            "0x0000000000000000000000000000000000000000000000000000000000000002"
          ],
          "data": "0x00000000000000000000000000000000000000000000000000000000000000c00000000000000000000000000000000000000000000000000000000000a4cb8000000000000000000000000000000000000000000000000000000000000000500000000000000000000000000000000000000000000000000000000069d46764000000000000000000000000c646150d1995414f846cf19e7497e3e187ea49d000000000000000000000000000000000000000000000000000000000000000030000000000000000000000000000000000000000000000000000000000000024457468696f7069616e2053696e676c652d4f726967696e20436f66666565204265616e7300000000000000000000000000000000000000000000000000000000",
          "blockHash": "0xf11413f78607f33d18488be06a7c5c1a9ba7911ae0545cfd50445e1b7662fa7f",
          "blockNumber": "0xec80597",
          "blockTimestamp": "0x69acda78",
          "transactionHash": "0xa47d43869586cbaf2cb09d5af0730b261b3d264afe7221b4a37bdfa3bde7f007",
          "transactionIndex": "0x2",
          "logIndex": "0x1",
          "removed": false
        }
      ],
      "logsBloom": "0x04000000000000000000000000040000000000000000000000000000020000000000000000000000000000000000000000000000000000000000000000000000000000000000000000000000000000000000000000000000000000000000000000000000000000000000000000000000000000000000000000000000000000000000000000000000000400000000000000000000000000000000000000000000000000000000000000000100400000000004000000000000000000000000000000000000000000000000000000000000000000000000000000000000000000100000000000000000000000000000000000000000008000000000000000000000",
      "type": "0x2",
      "transactionHash": "0xa47d43869586cbaf2cb09d5af0730b261b3d264afe7221b4a37bdfa3bde7f007",
      "transactionIndex": "0x2",
      "blockHash": "0xf11413f78607f33d18488be06a7c5c1a9ba7911ae0545cfd50445e1b7662fa7f",
      "blockNumber": "0xec80597",
      "gasUsed": "0x645e7",
      "effectiveGasPrice": "0x1317b20",
      "from": "0x7ecb39c481487f9826e2a4457599ba2f86af0342",
      "to": "0x3b0cb807778cb900caec181c1ce1b0133dcf8cb8",
      "contractAddress": null,
      "gasUsedForL1": "0xc36",
      "l1BlockNumber": "0x9ec842",
      "timeboosted": false
    },
    {
      "status": "0x1",
      "cumulativeGasUsed": "0x7ecd1",
      "logs": [
        {
          "address": "0x3b0cb807778cb900caec181c1ce1b0133dcf8cb8",
          "topics": [
            "0x7e013e17b6cd5fbe25667b6b6848b412bb921918e367afa2f1b5a54519c04db1",
            "0x0000000000000000000000000000000000000000000000000000000000000003"
          ],
          "data": "0x00000000000000000000000000000000000000000000000000000000000000c00000000000000000000000000000000000000000000000000000000000802c80000000000000000000000000000000000000000000000000000000000000003c0000000000000000000000000000000000000000000000000000000069d46764000000000000000000000000c646150d1995414f846cf19e7497e3e187ea49d000000000000000000000000000000000000000000000000000000000000000030000000000000000000000000000000000000000000000000000000000000024436f6c6f6d6269616e2053696e676c652d4f726967696e20436f66666565204265616e7300000000000000000000000000000000000000000000000000000000",
          "blockHash": "0xbdbf72688e6ae087fcfda6c0916d07b62ed9b38aa8e21f03e583786693ae5f6c",
          "blockNumber": "0xec80598",
          "blockTimestamp": "0x69acda78",
          "transactionHash": "0xf45b9901f0efa6d99c1cf4d3890fc9360dde8b8a8b14b68fa94ed71947d2551a",
          "transactionIndex": "0x2",
          "logIndex": "0x3",
          "removed": false
        }
      ],
      "logsBloom": "0x00000000000000000000000000040000000000000000000000000000020000000000000000000000000000000000000000000000020000000000000000000000000000000000000000000000000000000000000000000000000000000000000000000000000000000000000000000000000000000000000000000000000000000000000000000000000400000000000000000000000000000000000000000000000000000000000000000000400000000004000000800000000000000000400000000000000000000000000000000000000000000000000000000000000000100000000000000000000000000000000000000000000000000000000000000000",
      "type": "0x2",
      "transactionHash": "0xf45b9901f0efa6d99c1cf4d3890fc9360dde8b8a8b14b68fa94ed71947d2551a",
      "transactionIndex": "0x2",
      "blockHash": "0xbdbf72688e6ae087fcfda6c0916d07b62ed9b38aa8e21f03e583786693ae5f6c",
      "blockNumber": "0xec80598",
      "gasUsed": "0x6460c",
      "effectiveGasPrice": "0x1312d00",
      "from": "0x7ecb39c481487f9826e2a4457599ba2f86af0342",
      "to": "0x3b0cb807778cb900caec181c1ce1b0133dcf8cb8",
      "contractAddress": null,
      "gasUsedForL1": "0xc67",
      "l1BlockNumber": "0x9ec842",
      "timeboosted": false
    },
    {
      "status": "0x1",
      "cumulativeGasUsed": "0x645f3",
      "logs": [
        {
          "address": "0x3b0cb807778cb900caec181c1ce1b0133dcf8cb8",
          "topics": [
            "0x7e013e17b6cd5fbe25667b6b6848b412bb921918e367afa2f1b5a54519c04db1",
            "0x0000000000000000000000000000000000000000000000000000000000000004"
          ],
          "data": "0x00000000000000000000000000000000000000000000000000000000000000c00000000000000000000000000000000000000000000000000000000000c65d40000000000000000000000000000000000000000000000000000000000000003c0000000000000000000000000000000000000000000000000000000069d46764000000000000000000000000c646150d1995414f846cf19e7497e3e187ea49d00000000000000000000000000000000000000000000000000000000000000003000000000000000000000000000000000000000000000000000000000000002547756174656d616c616e2053696e676c652d4f726967696e20436f66666565204265616e73000000000000000000000000000000000000000000000000000000",
          "blockHash": "0x064908c898ea236c5229d179d1dc33b6fee7cfa5e10729138e13bb57efe4707a",
          "blockNumber": "0xec8059e",
          "blockTimestamp": "0x69acda7a",
          "transactionHash": "0xa10844f0df20aeeba0f6c3d636f43cb032dd7bfeb1133ae99fa3cf8389f0030c",
          "transactionIndex": "0x1",
          "logIndex": "0x0",
          "removed": false
        }
      ],
      "logsBloom": "0x00000000000000000000000000040000000000000000000000000000020000000000000000000000000000000000000000000000000000000000000000000000000000000000000000000000000000000000000000000000000000000000000008000000000000000000000000000000000000000000000000000000000000000000000000000000000400000000000000000000000000000000000000000000000000000000000000000000400000000004000000000000002000000000000000000000000000000000000000000000000000008000000000000000000000100000000000000000000000000000000000000000000000000000000000000000",
      "type": "0x2",
      "transactionHash": "0xa10844f0df20aeeba0f6c3d636f43cb032dd7bfeb1133ae99fa3cf8389f0030c",
      "transactionIndex": "0x1",
      "blockHash": "0x064908c898ea236c5229d179d1dc33b6fee7cfa5e10729138e13bb57efe4707a",
      "blockNumber": "0xec8059e",
      "gasUsed": "0x645f3",
      "effectiveGasPrice": "0x13134d0",
      "from": "0x7ecb39c481487f9826e2a4457599ba2f86af0342",
      "to": "0x3b0cb807778cb900caec181c1ce1b0133dcf8cb8",
      "contractAddress": null,
      "gasUsedForL1": "0xc42",
      "l1BlockNumber": "0x9ec842",
      "timeboosted": false
    },
    {
      "status": "0x1",
      "cumulativeGasUsed": "0x6456e",
      "logs": [
        {
          "address": "0x3b0cb807778cb900caec181c1ce1b0133dcf8cb8",
          "topics": [
            "0x7e013e17b6cd5fbe25667b6b6848b412bb921918e367afa2f1b5a54519c04db1",
            "0x0000000000000000000000000000000000000000000000000000000000000005"
          ],
          "data": "0x00000000000000000000000000000000000000000000000000000000000000c00000000000000000000000000000000000000000000000000000000000a4cb8000000000000000000000000000000000000000000000000000000000000000320000000000000000000000000000000000000000000000000000000069d46764000000000000000000000000c646150d1995414f846cf19e7497e3e187ea49d0000000000000000000000000000000000000000000000000000000000000000300000000000000000000000000000000000000000000000000000000000000214b656e79616e2053696e676c652d4f726967696e20436f66666565204265616e7300000000000000000000000000000000000000000000000000000000000000",
          "blockHash": "0x2c658d28413a32f5f18077509be4a99a7c856044cde874bef0412b6f55436338",
          "blockNumber": "0xec805a0",
          "blockTimestamp": "0x69acda7a",
          "transactionHash": "0xcf91f14ec0b7901e786c10cdf2495c8fb8af25bdee13b7244cba33c746b753e0",
          "transactionIndex": "0x1",
          "logIndex": "0x0",
          "removed": false
        }
      ],
      "logsBloom": "0x00000000000000000000000000040000000000000000000000000000020000000000000000000000000000000000000000000000000000000000000000000000000010000000000000000000000000000000000000000000000000000000000000000000000000000000000000000000000000000000000000000000000000000000000000000000000400000000001000000800000000000000000000000000000000000000000000000000400000000004000000000000000000000000000000000000000000000000000000000000000000000000000000000000000000100000000000000000000000000000000000000000000000000000000000000000",
      "type": "0x2",
      "transactionHash": "0xcf91f14ec0b7901e786c10cdf2495c8fb8af25bdee13b7244cba33c746b753e0",
      "transactionIndex": "0x1",
      "blockHash": "0x2c658d28413a32f5f18077509be4a99a7c856044cde874bef0412b6f55436338",
      "blockNumber": "0xec805a0",
      "gasUsed": "0x6456e",
      "effectiveGasPrice": "0x1316b80",
      "from": "0x7ecb39c481487f9826e2a4457599ba2f86af0342",
      "to": "0x3b0cb807778cb900caec181c1ce1b0133dcf8cb8",
      "contractAddress": null,
      "gasUsedForL1": "0xbed",
      "l1BlockNumber": "0x9ec842",
      "timeboosted": false
    },
    {
      "status": "0x1",
      "cumulativeGasUsed": "0x131140",
      "logs": [
        {
          "address": "0x3b0cb807778cb900caec181c1ce1b0133dcf8cb8",
          "topics": [
            "0x7e013e17b6cd5fbe25667b6b6848b412bb921918e367afa2f1b5a54519c04db1",
            "0x0000000000000000000000000000000000000000000000000000000000000006"
          ],
          "data": "0x00000000000000000000000000000000000000000000000000000000000000c00000000000000000000000000000000000000000000000000000000000f4240000000000000000000000000000000000000000000000000000000000000000320000000000000000000000000000000000000000000000000000000069d46764000000000000000000000000c646150d1995414f846cf19e7497e3e187ea49d000000000000000000000000000000000000000000000000000000000000000030000000000000000000000000000000000000000000000000000000000000026436f73746120526963616e2053696e676c652d4f726967696e20436f66666565204265616e730000000000000000000000000000000000000000000000000000",
          "blockHash": "0x6dd087db2e2a29e76a99b4e9f16e3d64299733fed909c5f6a20120b56a5ff45e",
          "blockNumber": "0xec805a2",
          "blockTimestamp": "0x69acda7b",
          "transactionHash": "0x108e7efd8c5cb0cca63b26bdf71da37f6ece8ae4a3e011630386967a359d9977",
          "transactionIndex": "0x3",
          "logIndex": "0x2",
          "removed": false
        }
      ],
      "logsBloom": "0x00000000000000000000000000040000000000000000000000000000020000000000000000000000000000000000000000000000000400000000000000000000000000000000000000000000000000000000000000000000000000000000000000000000000000000000000000000000000000000000000000000000000000000000000400000000000400000000000000000000000000000000000000000000000000000000000000000000400000000004000000000000000000080000000000000000000000000000000000000000000000000000000000000000000000100000000000000000000000000000000000000000000000000000000000000000",
      "type": "0x2",
      "transactionHash": "0x108e7efd8c5cb0cca63b26bdf71da37f6ece8ae4a3e011630386967a359d9977",
      "transactionIndex": "0x3",
      "blockHash": "0x6dd087db2e2a29e76a99b4e9f16e3d64299733fed909c5f6a20120b56a5ff45e",
      "blockNumber": "0xec805a2",
      "gasUsed": "0x645c8",
      "effectiveGasPrice": "0x1331160",
      "from": "0x7ecb39c481487f9826e2a4457599ba2f86af0342",
      "to": "0x3b0cb807778cb900caec181c1ce1b0133dcf8cb8",
      "contractAddress": null,
      "gasUsedForL1": "0xc2f",
      "l1BlockNumber": "0x9ec842",
      "timeboosted": false
    },
    {
      "status": "0x1",
      "cumulativeGasUsed": "0x7c767",
      "logs": [
        {
          "address": "0x3b0cb807778cb900caec181c1ce1b0133dcf8cb8",
          "topics": [
            "0x7e013e17b6cd5fbe25667b6b6848b412bb921918e367afa2f1b5a54519c04db1",
            "0x0000000000000000000000000000000000000000000000000000000000000007"
          ],
          "data": "0x00000000000000000000000000000000000000000000000000000000000000c00000000000000000000000000000000000000000000000000000000000b71b00000000000000000000000000000000000000000000000000000000000000004b0000000000000000000000000000000000000000000000000000000069d46764000000000000000000000000c646150d1995414f846cf19e7497e3e187ea49d0000000000000000000000000000000000000000000000000000000000000000300000000000000000000000000000000000000000000000000000000000000184c6967687420526f61737420436f66666565204265616e730000000000000000",
          "blockHash": "0xf91e1cb8bd0e584b2314e49fa02ecc9cb4d33bbc6bcdcbeefcf6465045b1bb7e",
          "blockNumber": "0xec805a7",
          "blockTimestamp": "0x69acda7c",
          "transactionHash": "0xa92686afd58dc442687cf96a4401035a0aac378c31f025fd45806bc2a8f80015",
          "transactionIndex": "0x3",
          "logIndex": "0x4",
          "removed": false
        }
      ],
      "logsBloom": "0x00000000000000000000000000040000000000000000000000000000020000000000000000000000000000000000000000001000000000000000000000000000000020000000000000000000000000000000000000000000000000000000000000000000000000000000000000000000000000000000000000000000000000000000000000000000000400000000000000000000000000000000000000000000000000000000000000000000400000000004000000000000000000000000000000000000000000000000000000000000000000000000000000000100000000100000000000000000000000000000000000000000000000000000000000000000",
      "type": "0x2",
      "transactionHash": "0xa92686afd58dc442687cf96a4401035a0aac378c31f025fd45806bc2a8f80015",
      "transactionIndex": "0x3",
      "blockHash": "0xf91e1cb8bd0e584b2314e49fa02ecc9cb4d33bbc6bcdcbeefcf6465045b1bb7e",
      "blockNumber": "0xec805a7",
      "gasUsed": "0x595ec",
      "effectiveGasPrice": "0x1312d00",
      "from": "0x7ecb39c481487f9826e2a4457599ba2f86af0342",
      "to": "0x3b0cb807778cb900caec181c1ce1b0133dcf8cb8",
      "contractAddress": null,
      "gasUsedForL1": "0xbdd",
      "l1BlockNumber": "0x9ec842",
      "timeboosted": false
    },
    {
      "status": "0x1",
      "cumulativeGasUsed": "0x2b250d",
      "logs": [
        {
          "address": "0x3b0cb807778cb900caec181c1ce1b0133dcf8cb8",
          "topics": [
            "0x7e013e17b6cd5fbe25667b6b6848b412bb921918e367afa2f1b5a54519c04db1",
            "0x0000000000000000000000000000000000000000000000000000000000000008"
          ],
          "data": "0x00000000000000000000000000000000000000000000000000000000000000c0000000000000000000000000000000000000000000000000000000000098968000000000000000000000000000000000000000000000000000000000000000640000000000000000000000000000000000000000000000000000000069d46764000000000000000000000000c646150d1995414f846cf19e7497e3e187ea49d0000000000000000000000000000000000000000000000000000000000000000300000000000000000000000000000000000000000000000000000000000000194d656469756d20526f61737420436f66666565204265616e7300000000000000",
          "blockHash": "0x93232d3c1a6a768fd5e884e211aa732569019e0308c618d4de3f161396e0dc2d",
          "blockNumber": "0xec805a8",
          "blockTimestamp": "0x69acda7c",
          "transactionHash": "0x56640d9fa3a9cd2f6cde9475dc65ce07a718f37ec318813dd5b0efe5bfa31248",
          "transactionIndex": "0x2",
          "logIndex": "0x0",
          "removed": false
        }
      ],
      "logsBloom": "0x00000000000000000000000000040000000000000000000000000000020000000000000000000000000000000000000000000000000080000000000000000000000000000000000000000000000000000000000000000000000000000000000000000000000000000000000000000000000000000000000000000000000000000080000000000000000400000000000000000000000000000000000000000000000000000000000000000000400000000004000000000000000000000000000040000000000000000000000000000000000000000000000000000000000000100000000000000000000000000000000000000000000000000000000000000000",
      "type": "0x2",
      "transactionHash": "0x56640d9fa3a9cd2f6cde9475dc65ce07a718f37ec318813dd5b0efe5bfa31248",
      "transactionIndex": "0x2",
      "blockHash": "0x93232d3c1a6a768fd5e884e211aa732569019e0308c618d4de3f161396e0dc2d",
      "blockNumber": "0xec805a8",
      "gasUsed": "0x59637",
      "effectiveGasPrice": "0x131aa00",
      "from": "0x7ecb39c481487f9826e2a4457599ba2f86af0342",
      "to": "0x3b0cb807778cb900caec181c1ce1b0133dcf8cb8",
      "contractAddress": null,
      "gasUsedForL1": "0xc10",
      "l1BlockNumber": "0x9ec844",
      "timeboosted": false
    },
    {
      "status": "0x1",
      "cumulativeGasUsed": "0x8b569",
      "logs": [
        {
          "address": "0x3b0cb807778cb900caec181c1ce1b0133dcf8cb8",
          "topics": [
            "0x7e013e17b6cd5fbe25667b6b6848b412bb921918e367afa2f1b5a54519c04db1",
            "0x0000000000000000000000000000000000000000000000000000000000000009"
          ],
          "data": "0x00000000000000000000000000000000000000000000000000000000000000c0000000000000000000000000000000000000000000000000000000000098968000000000000000000000000000000000000000000000000000000000000000640000000000000000000000000000000000000000000000000000000069d46764000000000000000000000000c646150d1995414f846cf19e7497e3e187ea49d0000000000000000000000000000000000000000000000000000000000000000300000000000000000000000000000000000000000000000000000000000000204461726b202f204672656e636820526f61737420436f66666565204265616e73",
          "blockHash": "0x18737c5bd6f1768ddc74501b8ce886143b939544449463e25c6314d596b49fdf",
          "blockNumber": "0xec805af",
          "blockTimestamp": "0x69acda7d",
          "transactionHash": "0x9d088c3fed5b5b6786066aa225430beaec08cc2fdf5457646ce1765c119ff886",
          "transactionIndex": "0x4",
          "logIndex": "0x4",
          "removed": false
        }
      ],
      "logsBloom": "0x00000000000000000000000000040000000000000000000000000000020000000000000000000000000000000000000000000000000000000000000000200000000000000000000000000000000000000000000000000000000000000000000000000000000000000000000000000000000000000000000000000000000000000000000000000000000400000000000000001000000000000000000000000000000000000000000000000000400000000004000000000000000000000000000000000000000000000000000000000000000000000000000000000000000000100000000000000000000000000000000000000000000000000000000000800000",
      "type": "0x2",
      "transactionHash": "0x9d088c3fed5b5b6786066aa225430beaec08cc2fdf5457646ce1765c119ff886",
      "transactionIndex": "0x4",
      "blockHash": "0x18737c5bd6f1768ddc74501b8ce886143b939544449463e25c6314d596b49fdf",
      "blockNumber": "0xec805af",
      "gasUsed": "0x5ed54",
      "effectiveGasPrice": "0x131d110",
      "from": "0x7ecb39c481487f9826e2a4457599ba2f86af0342",
      "to": "0x3b0cb807778cb900caec181c1ce1b0133dcf8cb8",
      "contractAddress": null,
      "gasUsedForL1": "0xc61",
      "l1BlockNumber": "0x9ec844",
      "timeboosted": false
    },
    {
      "status": "0x1",
      "cumulativeGasUsed": "0x7ecb0",
      "logs": [
        {
          "address": "0x3b0cb807778cb900caec181c1ce1b0133dcf8cb8",
          "topics": [
            "0x7e013e17b6cd5fbe25667b6b6848b412bb921918e367afa2f1b5a54519c04db1",
            "0x000000000000000000000000000000000000000000000000000000000000000a"
          ],
          "data": "0x00000000000000000000000000000000000000000000000000000000000000c00000000000000000000000000000000000000000000000000000000000927c0000000000000000000000000000000000000000000000000000000000000000320000000000000000000000000000000000000000000000000000000069d46764000000000000000000000000c646150d1995414f846cf19e7497e3e187ea49d00000000000000000000000000000000000000000000000000000000000000003000000000000000000000000000000000000000000000000000000000000002644656361662053776973732057617465722050726f6365737320436f66666565204265616e730000000000000000000000000000000000000000000000000000",
          "blockHash": "0x7978158066752b2e5cdaee9a5b36fb3a266c805b1d547687d8fcfd5ed4925800",
          "blockNumber": "0xec805b0",
          "blockTimestamp": "0x69acda7e",
          "transactionHash": "0x6e8d59a32e4a8ca93b8b196d7b65e5409dedf01055ee1fce28e6c64be15824bb",
          "transactionIndex": "0x2",
          "logIndex": "0x3",
          "removed": false
        }
      ],
      "logsBloom": "0x00000000000000000000000000040000000000000000000000000000020000000000000000000000000000000000000000000000040000000020000000000000000000000000000000000000000000000000000000000000000000000000000000000000000000000000000000000000000000000000000000000000000000000000000000000000010400000000000000000000000000000000000000000000000000000000000000000000400000000004000000000000000000000000000000000000000000000000000000000000000000000000000000000000000000100000000000000000000000000000000000000000000000000000000000000000",
      "type": "0x2",
      "transactionHash": "0x6e8d59a32e4a8ca93b8b196d7b65e5409dedf01055ee1fce28e6c64be15824bb",
      "transactionIndex": "0x2",
      "blockHash": "0x7978158066752b2e5cdaee9a5b36fb3a266c805b1d547687d8fcfd5ed4925800",
      "blockNumber": "0xec805b0",
      "gasUsed": "0x645e8",
      "effectiveGasPrice": "0x131d110",
      "from": "0x7ecb39c481487f9826e2a4457599ba2f86af0342",
      "to": "0x3b0cb807778cb900caec181c1ce1b0133dcf8cb8",
      "contractAddress": null,
      "gasUsedForL1": "0xc4f",
      "l1BlockNumber": "0x9ec844",
      "timeboosted": false
    },
    {
      "status": "0x1",
      "cumulativeGasUsed": "0x2cf6be",
      "logs": [
        {
          "address": "0x3b0cb807778cb900caec181c1ce1b0133dcf8cb8",
          "topics": [
            "0x7e013e17b6cd5fbe25667b6b6848b412bb921918e367afa2f1b5a54519c04db1",
            "0x000000000000000000000000000000000000000000000000000000000000000b"
          ],
          "data": "0x00000000000000000000000000000000000000000000000000000000000000c000000000000000000000000000000000000000000000000000000000005b8d8000000000000000000000000000000000000000000000000000000000000000640000000000000000000000000000000000000000000000000000000069d46764000000000000000000000000c646150d1995414f846cf19e7497e3e187ea49d00000000000000000000000000000000000000000000000000000000000000003000000000000000000000000000000000000000000000000000000000000001c477265656e20556e726f617374656420436f66666565204265616e7300000000",
          "blockHash": "0xc2a8a66901f20f1d6d87634405bb72b4c48e49aaad4e3e6de00f684239e9fdcd",
          "blockNumber": "0xec805b5",
          "blockTimestamp": "0x69acda7f",
          "transactionHash": "0x3137df89536c50610c51eb754feea5951ca1cc683b51fe97db804f766851ef2e",
          "transactionIndex": "0x3",
          "logIndex": "0x36",
          "removed": false
        }
      ],
      "logsBloom": "0x00000000000000000000004000040000000000000000000000000000020000000000000000000000000000000000000000000000000000000000000000000000000000000000000000000000000000000000000000000000000000000000000000000000000000000000000000000000000000000000000000000000000000000000000000000000000400000000000000000000000000000000000000000000000000000000000000000000400000000004000000000000000000000000000000000000000000000000000000000000002000000000000000000000000000100000000000000000000000000000000000000000000000040000000000000000",
      "type": "0x2",
      "transactionHash": "0x3137df89536c50610c51eb754feea5951ca1cc683b51fe97db804f766851ef2e",
      "transactionIndex": "0x3",
      "blockHash": "0xc2a8a66901f20f1d6d87634405bb72b4c48e49aaad4e3e6de00f684239e9fdcd",
      "blockNumber": "0xec805b5",
      "gasUsed": "0x5968e",
      "effectiveGasPrice": "0x1312d00",
      "from": "0x7ecb39c481487f9826e2a4457599ba2f86af0342",
      "to": "0x3b0cb807778cb900caec181c1ce1b0133dcf8cb8",
      "contractAddress": null,
      "gasUsedForL1": "0xc43",
      "l1BlockNumber": "0x9ec844",
      "timeboosted": false
    },
    {
      "status": "0x1",
      "cumulativeGasUsed": "0x596f7",
      "logs": [
        {
          "address": "0x3b0cb807778cb900caec181c1ce1b0133dcf8cb8",
          "topics": [
            "0x7e013e17b6cd5fbe25667b6b6848b412bb921918e367afa2f1b5a54519c04db1",
            "0x000000000000000000000000000000000000000000000000000000000000000c"
          ],
          "data": "0x00000000000000000000000000000000000000000000000000000000000000c00000000000000000000000000000000000000000000000000000000002dc6c0000000000000000000000000000000000000000000000000000000000000000190000000000000000000000000000000000000000000000000000000069c889e4000000000000000000000000c646150d1995414f846cf19e7497e3e187ea49d00000000000000000000000000000000000000000000000000000000000000003000000000000000000000000000000000000000000000000000000000000001f486f7420506170657220437570732031326f7a2028313030302f636173652900",
          "blockHash": "0xdcbeef5eafc41d6753214eba6c7854dd293e5cb67819c57a13c75d3ec30ac785",
          "blockNumber": "0xec805bb",
          "blockTimestamp": "0x69acda80",
          "transactionHash": "0x3983a808a271fd884d2ee0499f6612ba54b2ababcb0875bd7d6a31d6e122296e",
          "transactionIndex": "0x1",
          "logIndex": "0x0",
          "removed": false
        }
      ],
      "logsBloom": "0x00000000000000000000000000040000000002000000000000000000020000000000000000000200000000000000000000000000000000000000000000000000000000000000000000000000000000000000000000000000000000000000000000000000000000000000000000000000000000000000000000000000000000000000000000000000000400000000000000000000000000000000000000000000000000000000000000000000400000000004000000000000000000000000000000000000000000000000000000000000000000000000000000000000000000300000000000000000000000000000000000000000000000000000000000000000",
      "type": "0x2",
      "transactionHash": "0x3983a808a271fd884d2ee0499f6612ba54b2ababcb0875bd7d6a31d6e122296e",
      "transactionIndex": "0x1",
      "blockHash": "0xdcbeef5eafc41d6753214eba6c7854dd293e5cb67819c57a13c75d3ec30ac785",
      "blockNumber": "0xec805bb",
      "gasUsed": "0x596f7",
      "effectiveGasPrice": "0x1331930",
      "from": "0x7ecb39c481487f9826e2a4457599ba2f86af0342",
      "to": "0x3b0cb807778cb900caec181c1ce1b0133dcf8cb8",
      "contractAddress": null,
      "gasUsedForL1": "0xc94",
      "l1BlockNumber": "0x9ec844",
      "timeboosted": false
    },
    {
      "status": "0x1",
      "cumulativeGasUsed": "0x596b3",
      "logs": [
        {
          "address": "0x3b0cb807778cb900caec181c1ce1b0133dcf8cb8",
          "topics": [
            "0x7e013e17b6cd5fbe25667b6b6848b412bb921918e367afa2f1b5a54519c04db1",
            "0x000000000000000000000000000000000000000000000000000000000000000d"
          ],
          "data": "0x00000000000000000000000000000000000000000000000000000000000000c0000000000000000000000000000000000000000000000000000000000365c04000000000000000000000000000000000000000000000000000000000000000140000000000000000000000000000000000000000000000000000000069c889e4000000000000000000000000c646150d1995414f846cf19e7497e3e187ea49d00000000000000000000000000000000000000000000000000000000000000003000000000000000000000000000000000000000000000000000000000000001f486f7420506170657220437570732031366f7a2028313030302f636173652900",
          "blockHash": "0xbfe75d916fb7845e4174d90bb58c576688c49385802a6efd7cf5886e1c8eff25",
          "blockNumber": "0xec805c0",
          "blockTimestamp": "0x69acda82",
          "transactionHash": "0x485a1c986356891ba7753136020388aa71a011e1004ea67fca1cb549f9807c17",
          "transactionIndex": "0x1",
          "logIndex": "0x0",
          "removed": false
        }
      ],
      "logsBloom": "0x00000000000000000040000000040000000000000000000000000000020000000000000000000000000000000000000000000000000000000000000000000000000000000000000000000000000000000002000000000000000000000000000000000000000000000000000000000000000000000000000000000000000000000000000000000000000400000000000000000000000000000000000000000000000000000000000000000000400000000004000000000000000000000000000000000000000000000000000000000000000000000000000000000000000000120000000000000000000000000000000000000000000000000000000000000000",
      "type": "0x2",
      "transactionHash": "0x485a1c986356891ba7753136020388aa71a011e1004ea67fca1cb549f9807c17",
      "transactionIndex": "0x1",
      "blockHash": "0xbfe75d916fb7845e4174d90bb58c576688c49385802a6efd7cf5886e1c8eff25",
      "blockNumber": "0xec805c0",
      "gasUsed": "0x596b3",
      "effectiveGasPrice": "0x131a230",
      "from": "0x7ecb39c481487f9826e2a4457599ba2f86af0342",
      "to": "0x3b0cb807778cb900caec181c1ce1b0133dcf8cb8",
      "contractAddress": null,
      "gasUsedForL1": "0xc2c",
      "l1BlockNumber": "0x9ec844",
      "timeboosted": false
    },
    {
      "status": "0x1",
      "cumulativeGasUsed": "0x7abb2",
      "logs": [
        {
          "address": "0x3b0cb807778cb900caec181c1ce1b0133dcf8cb8",
          "topics": [
            "0x7e013e17b6cd5fbe25667b6b6848b412bb921918e367afa2f1b5a54519c04db1",
            "0x000000000000000000000000000000000000000000000000000000000000000e"
          ],
          "data": "0x00000000000000000000000000000000000000000000000000000000000000c000000000000000000000000000000000000000000000000000000000042c1d8000000000000000000000000000000000000000000000000000000000000000190000000000000000000000000000000000000000000000000000000069c889e4000000000000000000000000c646150d1995414f846cf19e7497e3e187ea49d000000000000000000000000000000000000000000000000000000000000000030000000000000000000000000000000000000000000000000000000000000020436f6c6420436c65617220437570732031366f7a2028313030302f6361736529",
          "blockHash": "0x961367b1937e99a35f5964afc530cb002be040196f766175c4d47e1c96fe14ea",
          "blockNumber": "0xec805c1",
          "blockTimestamp": "0x69acda82",
          "transactionHash": "0xe848467a986cab80c8002f338d308a043fc22a313f59387276d568d5db2cebdb",
          "transactionIndex": "0x4",
          "logIndex": "0x1",
          "removed": false
        }
      ],
      "logsBloom": "0x00000000000000000000000000040000000000000000000000000000020000000000000000000000000000000000000000000000000000000000000000000000000000000000000800000000000000000000000000000000000000000000000000000000000000000000000000000000000000000000000000000000000000000000000000000000000400000000000008000000000000000000000000000000000000000000000000000000400000000004000000000020000000000000000000000000000000000000000000000000000000000000000000000000000000100000000000000000000000000000000000000000000000000000000000000000",
      "type": "0x2",
      "transactionHash": "0xe848467a986cab80c8002f338d308a043fc22a313f59387276d568d5db2cebdb",
      "transactionIndex": "0x4",
      "blockHash": "0x961367b1937e99a35f5964afc530cb002be040196f766175c4d47e1c96fe14ea",
      "blockNumber": "0xec805c1",
      "gasUsed": "0x5ed3c",
      "effectiveGasPrice": "0x1312d00",
      "from": "0x7ecb39c481487f9826e2a4457599ba2f86af0342",
      "to": "0x3b0cb807778cb900caec181c1ce1b0133dcf8cb8",
      "contractAddress": null,
      "gasUsedForL1": "0xc31",
      "l1BlockNumber": "0x9ec844",
      "timeboosted": false
    },
    {
      "status": "0x1",
      "cumulativeGasUsed": "0x7ecf4",
      "logs": [
        {
          "address": "0x3b0cb807778cb900caec181c1ce1b0133dcf8cb8",
          "topics": [
            "0x7e013e17b6cd5fbe25667b6b6848b412bb921918e367afa2f1b5a54519c04db1",
            "0x000000000000000000000000000000000000000000000000000000000000000f"
          ],
          "data": "0x00000000000000000000000000000000000000000000000000000000000000c000000000000000000000000000000000000000000000000000000000055d4a8000000000000000000000000000000000000000000000000000000000000000140000000000000000000000000000000000000000000000000000000069c889e4000000000000000000000000c646150d1995414f846cf19e7497e3e187ea49d000000000000000000000000000000000000000000000000000000000000000030000000000000000000000000000000000000000000000000000000000000024436f6d706f737461626c6520486f7420437570732031326f7a20283530302f636173652900000000000000000000000000000000000000000000000000000000",
          "blockHash": "0xbb88e7e45763a3a24f09f45102be6bd98c32a3033bbaeb5d2b9580f46bd8c4db",
          "blockNumber": "0xec805c6",
          "blockTimestamp": "0x69acda83",
          "transactionHash": "0x72b61e9254c6a5d96144d6dfaf9d6208ae2621a1e945be5fe02e97065ec06d92",
          "transactionIndex": "0x2",
          "logIndex": "0x3",
          "removed": false
        }
      ],
      "logsBloom": "0x00000000000000000000000000040000000000000000000000000000020000000000000000000000000000000000000000000000000000000000000000000000000000000000000000000000000000000000000000000000000000000002000000000000000000000000000000000000000000000000000000000000000000000000000000000800000400000000000000000000000000000000000000000000000000000000000000000000400000000004000000000000000000000000000000000000000000000000000000000000000000000000000000000000000000100000000200000000000000000000000000000000000000000000000000000000",
      "type": "0x2",
      "transactionHash": "0x72b61e9254c6a5d96144d6dfaf9d6208ae2621a1e945be5fe02e97065ec06d92",
      "transactionIndex": "0x2",
      "blockHash": "0xbb88e7e45763a3a24f09f45102be6bd98c32a3033bbaeb5d2b9580f46bd8c4db",
      "blockNumber": "0xec805c6",
      "gasUsed": "0x64679",
      "effectiveGasPrice": "0x1315410",
      "from": "0x7ecb39c481487f9826e2a4457599ba2f86af0342",
      "to": "0x3b0cb807778cb900caec181c1ce1b0133dcf8cb8",
      "contractAddress": null,
      "gasUsedForL1": "0xcb0",
      "l1BlockNumber": "0x9ec844",
      "timeboosted": false
    },
    {
      "status": "0x1",
      "cumulativeGasUsed": "0x6467b",
      "logs": [
        {
          "address": "0x3b0cb807778cb900caec181c1ce1b0133dcf8cb8",
          "topics": [
            "0x7e013e17b6cd5fbe25667b6b6848b412bb921918e367afa2f1b5a54519c04db1",
            "0x0000000000000000000000000000000000000000000000000000000000000010"
          ],
          "data": "0x00000000000000000000000000000000000000000000000000000000000000c00000000000000000000000000000000000000000000000000000000002625a0000000000000000000000000000000000000000000000000000000000000000280000000000000000000000000000000000000000000000000000000069c889e4000000000000000000000000c646150d1995414f846cf19e7497e3e187ea49d000000000000000000000000000000000000000000000000000000000000000030000000000000000000000000000000000000000000000000000000000000026466c6174204c69647320666f722031322d31366f7a20437570732028313030302f63617365290000000000000000000000000000000000000000000000000000",
          "blockHash": "0x6294000f8eaa446e1e08e377a73be5c811bae4edf0616e40af52477e5ee02fac",
          "blockNumber": "0xec805c7",
          "blockTimestamp": "0x69acda83",
          "transactionHash": "0x0fb10a2ef9c182f525ec4b7345d905b62a882c617dfafece883eb389997bbcaf",
          "transactionIndex": "0x1",
          "logIndex": "0x0",
          "removed": false
        }
      ],
      "logsBloom": "0x00000000100000000000000000040000000000000000000000000000020000000000000000000000000000000000000000000000000000000000000000000000000000000000000000000000000000000000000000000000000000000000000000000000000000000000000000000000000000000000000000000000040000000000000000000000000400000000000000000100000000000000000000000000000000000000000000000000400000000004000000000000000000000000000000000000000000000000000000000000000000000000000000000000000000100000000000000000000000000000000000000000000000000000000000000000",
      "type": "0x2",
      "transactionHash": "0x0fb10a2ef9c182f525ec4b7345d905b62a882c617dfafece883eb389997bbcaf",
      "transactionIndex": "0x1",
      "blockHash": "0x6294000f8eaa446e1e08e377a73be5c811bae4edf0616e40af52477e5ee02fac",
      "blockNumber": "0xec805c7",
      "gasUsed": "0x6467b",
      "effectiveGasPrice": "0x13163b0",
      "from": "0x7ecb39c481487f9826e2a4457599ba2f86af0342",
      "to": "0x3b0cb807778cb900caec181c1ce1b0133dcf8cb8",
      "contractAddress": null,
      "gasUsedForL1": "0xca6",
      "l1BlockNumber": "0x9ec844",
      "timeboosted": false
    },
    {
      "status": "0x1",
      "cumulativeGasUsed": "0x7ecde",
      "logs": [
        {
          "address": "0x3b0cb807778cb900caec181c1ce1b0133dcf8cb8",
          "topics": [
            "0x7e013e17b6cd5fbe25667b6b6848b412bb921918e367afa2f1b5a54519c04db1",
            "0x0000000000000000000000000000000000000000000000000000000000000011"
          ],
          "data": "0x00000000000000000000000000000000000000000000000000000000000000c00000000000000000000000000000000000000000000000000000000001406f4000000000000000000000000000000000000000000000000000000000000000320000000000000000000000000000000000000000000000000000000069c889e4000000000000000000000000c646150d1995414f846cf19e7497e3e187ea49d000000000000000000000000000000000000000000000000000000000000000030000000000000000000000000000000000000000000000000000000000000028332d436f6d706172746d656e7420436c616d7368656c6c20426f78657320283230302f6361736529000000000000000000000000000000000000000000000000",
          "blockHash": "0x15dbbe0537adb9bd61b4a2a0a5f6bb6a0ea664a93ab85a8ed689b4863ba299fa",
          "blockNumber": "0xec805c8",
          "blockTimestamp": "0x69acda84",
          "transactionHash": "0x65bb637c00a23b65bc8af44e7ad3ead019aa439ce23c4389fbd35e8170ade47b",
          "transactionIndex": "0x2",
          "logIndex": "0x3",
          "removed": false
        }
      ],
      "logsBloom": "0x00000000000000000000000000040000000000000000000000000000020000000000000000000000000000000000000000000000000000000000000000000000000000000000000000000000000000000000000000000000000000000000000000000000000000000000000000000000000000004000000000000000000000000000000000000000000400000000000000000000000000000000000000000000000000000000000000000000400000000004000000000000000000000400000000001000000000000000000000000000000000000000000000000000000000100000000000000000000000000000000000000000000000000000000000000000",
      "type": "0x2",
      "transactionHash": "0x65bb637c00a23b65bc8af44e7ad3ead019aa439ce23c4389fbd35e8170ade47b",
      "transactionIndex": "0x2",
      "blockHash": "0x15dbbe0537adb9bd61b4a2a0a5f6bb6a0ea664a93ab85a8ed689b4863ba299fa",
      "blockNumber": "0xec805c8",
      "gasUsed": "0x64660",
      "effectiveGasPrice": "0x131e0b0",
      "from": "0x7ecb39c481487f9826e2a4457599ba2f86af0342",
      "to": "0x3b0cb807778cb900caec181c1ce1b0133dcf8cb8",
      "contractAddress": null,
      "gasUsedForL1": "0xc73",
      "l1BlockNumber": "0x9ec844",
      "timeboosted": false
    },
    {
      "status": "0x1",
      "cumulativeGasUsed": "0x646ce",
      "logs": [
        {
          "address": "0x3b0cb807778cb900caec181c1ce1b0133dcf8cb8",
          "topics": [
            "0x7e013e17b6cd5fbe25667b6b6848b412bb921918e367afa2f1b5a54519c04db1",
            "0x0000000000000000000000000000000000000000000000000000000000000012"
          ],
          "data": "0x00000000000000000000000000000000000000000000000000000000000000c00000000000000000000000000000000000000000000000000000000001c9c38000000000000000000000000000000000000000000000000000000000000000320000000000000000000000000000000000000000000000000000000069c889e4000000000000000000000000c646150d1995414f846cf19e7497e3e187ea49d00000000000000000000000000000000000000000000000000000000000000003000000000000000000000000000000000000000000000000000000000000002b44656c6920536f757020436f6e7461696e6572732033326f7a20772f4c69647320283235302f6361736529000000000000000000000000000000000000000000",
          "blockHash": "0x81e36ea0947415af10296929a0507328998e3a36119b447c7eb4c217c9a9cb4f",
          "blockNumber": "0xec805c9",
          "blockTimestamp": "0x69acda84",
          "transactionHash": "0x6e1f5235b686cfd5941630887a65e49928ffbbd4c9f9c88a3a4f1063b6046f0e",
          "transactionIndex": "0x1",
          "logIndex": "0x0",
          "removed": false
        }
      ],
      "logsBloom": "0x00000000000000000000000000040000000000000000000000000000020000000000000000000000000000000000000000000000000000000000000000000000000000000000000000000000000000000000000000000000000000000000000000000000000000000000000000000000000000000000000000000000000000000000000000000000000400000000040000000000000000000000000000000000000000000000000000000000400000000004000000000040000000000000000000000000000000000400000000000000000000000000000000000000000000100000000000000000000000000000000000000000000000000000000000000000",
      "type": "0x2",
      "transactionHash": "0x6e1f5235b686cfd5941630887a65e49928ffbbd4c9f9c88a3a4f1063b6046f0e",
      "transactionIndex": "0x1",
      "blockHash": "0x81e36ea0947415af10296929a0507328998e3a36119b447c7eb4c217c9a9cb4f",
      "blockNumber": "0xec805c9",
      "gasUsed": "0x646ce",
      "effectiveGasPrice": "0x1312d00",
      "from": "0x7ecb39c481487f9826e2a4457599ba2f86af0342",
      "to": "0x3b0cb807778cb900caec181c1ce1b0133dcf8cb8",
      "contractAddress": null,
      "gasUsedForL1": "0xcb1",
      "l1BlockNumber": "0x9ec844",
      "timeboosted": false
    },
    {
      "status": "0x1",
      "cumulativeGasUsed": "0x7ed4f",
      "logs": [
        {
          "address": "0x3b0cb807778cb900caec181c1ce1b0133dcf8cb8",
          "topics": [
            "0x7e013e17b6cd5fbe25667b6b6848b412bb921918e367afa2f1b5a54519c04db1",
            "0x0000000000000000000000000000000000000000000000000000000000000013"
          ],
          "data": "0x00000000000000000000000000000000000000000000000000000000000000c000000000000000000000000000000000000000000000000000000000017d7840000000000000000000000000000000000000000000000000000000000000003c0000000000000000000000000000000000000000000000000000000069c889e4000000000000000000000000c646150d1995414f846cf19e7497e3e187ea49d000000000000000000000000000000000000000000000000000000000000000030000000000000000000000000000000000000000000000000000000000000027416c756d696e756d20466f696c2050616e732048616c662d53697a6520283130302f636173652900000000000000000000000000000000000000000000000000",
          "blockHash": "0x36bebf19c3b55cb757460050f4e6af2f418f2506ba0c29882b2cb29a07845d5b",
          "blockNumber": "0xec805ca",
          "blockTimestamp": "0x69acda84",
          "transactionHash": "0x64c62f12da0e8fb27e45aa62203f4d163b2c1e664a4ad03b7b1fe80837a324a2",
          "transactionIndex": "0x2",
          "logIndex": "0x3",
          "removed": false
        }
      ],
      "logsBloom": "0x20000000000000000000000000840000000000000000000000000000020000000000000040000000000000000000000000000000000000000000000000000000000000000000000000000000000000000000000000000000000000000000000000000000000000000000000000000000000000000000000000000000000000000000000000000000000400000000000000000000000000000000000000000000000000000000000000000000400000000004000000000000000000000000000000000000000000000000000000000000000000000000000000000000000000100000000000000000000000000000000000000000000000000000000000000000",
      "type": "0x2",
      "transactionHash": "0x64c62f12da0e8fb27e45aa62203f4d163b2c1e664a4ad03b7b1fe80837a324a2",
      "transactionIndex": "0x2",
      "blockHash": "0x36bebf19c3b55cb757460050f4e6af2f418f2506ba0c29882b2cb29a07845d5b",
      "blockNumber": "0xec805ca",
      "gasUsed": "0x646b5",
      "effectiveGasPrice": "0x1319a60",
      "from": "0x7ecb39c481487f9826e2a4457599ba2f86af0342",
      "to": "0x3b0cb807778cb900caec181c1ce1b0133dcf8cb8",
      "contractAddress": null,
      "gasUsedForL1": "0xcc8",
      "l1BlockNumber": "0x9ec844",
      "timeboosted": false
    },
    {
      "status": "0x1",
      "cumulativeGasUsed": "0x645e8",
      "logs": [
        {
          "address": "0x3b0cb807778cb900caec181c1ce1b0133dcf8cb8",
          "topics": [
            "0x7e013e17b6cd5fbe25667b6b6848b412bb921918e367afa2f1b5a54519c04db1",
            "0x0000000000000000000000000000000000000000000000000000000000000014"
          ],
          "data": "0x00000000000000000000000000000000000000000000000000000000000000c00000000000000000000000000000000000000000000000000000000000b71b00000000000000000000000000000000000000000000000000000000000000004b0000000000000000000000000000000000000000000000000000000069c889e4000000000000000000000000c646150d1995414f846cf19e7497e3e187ea49d000000000000000000000000000000000000000000000000000000000000000030000000000000000000000000000000000000000000000000000000000000023436f6d706f737461626c65204375746c657279204b69747320283235302f63617365290000000000000000000000000000000000000000000000000000000000",
          "blockHash": "0xbe1a289e74f93ebb76abc5666a0f5a5462b68baac936fcdebd2b3173494c4f53",
          "blockNumber": "0xec805cc",
          "blockTimestamp": "0x69acda85",
          "transactionHash": "0x954e5e2cb068f1e061b5e50fea2f7c63865adf8c4a80cf32689f4f169206d894",
          "transactionIndex": "0x1",
          "logIndex": "0x0",
          "removed": false
        }
      ],
      "logsBloom": "0x00000000000000000000000000040000000000000000000000000000020000000000000000000000000000000000000000002000000000000000000000000000000000000000000000000000000000000000000000000000000000000000000000000000000000000000000000000000000000000000000000000000000000000000000000000000000400000000000000000000000400000000000000000000000000000000000020000000400000000004000000000000000000000000000000000000000000000000000000000000000000000000000000000000000000100000000000000000000000000000000000000000000000000000000000000000",
      "type": "0x2",
      "transactionHash": "0x954e5e2cb068f1e061b5e50fea2f7c63865adf8c4a80cf32689f4f169206d894",
      "transactionIndex": "0x1",
      "blockHash": "0xbe1a289e74f93ebb76abc5666a0f5a5462b68baac936fcdebd2b3173494c4f53",
      "blockNumber": "0xec805cc",
      "gasUsed": "0x645e8",
      "effectiveGasPrice": "0x1326d50",
      "from": "0x7ecb39c481487f9826e2a4457599ba2f86af0342",
      "to": "0x3b0cb807778cb900caec181c1ce1b0133dcf8cb8",
      "contractAddress": null,
      "gasUsedForL1": "0xc5b",
      "l1BlockNumber": "0x9ec844",
      "timeboosted": false
    },
    {
      "status": "0x1",
      "cumulativeGasUsed": "0x73cce",
      "logs": [
        {
          "address": "0x3b0cb807778cb900caec181c1ce1b0133dcf8cb8",
          "topics": [
            "0x7e013e17b6cd5fbe25667b6b6848b412bb921918e367afa2f1b5a54519c04db1",
            "0x0000000000000000000000000000000000000000000000000000000000000015"
          ],
          "data": "0x00000000000000000000000000000000000000000000000000000000000000c00000000000000000000000000000000000000000000000000000000002160ec000000000000000000000000000000000000000000000000000000000000000320000000000000000000000000000000000000000000000000000000069c889e4000000000000000000000000c646150d1995414f846cf19e7497e3e187ea49d00000000000000000000000000000000000000000000000000000000000000003000000000000000000000000000000000000000000000000000000000000001842756c6b204e61706b696e732028383030302f63617365290000000000000000",
          "blockHash": "0x458cc60f272d034423154e5d9c0bd4c10be9ce2634e8de404614cb0436de3030",
          "blockNumber": "0xec805d2",
          "blockTimestamp": "0x69acda86",
          "transactionHash": "0x0400fae8ca5ebc6dc93e837e60c634ed6c65b23982794dc930207efe632bbf2c",
          "transactionIndex": "0x2",
          "logIndex": "0x3",
          "removed": false
        }
      ],
      "logsBloom": "0x00000000000000000000000000040000000000000000000000000000020000000000000000000000000000000000000000000000000000000000000000000000001000000000000000000000000000000000000000000000000000000000000000000000000000000000000000000000000000000000000000000000000000000000000000000000000400000000000000000000000000000000000000000000000000000000000000000000410000000004000000000000000000000000000000000000000000000000000000000000000000000000000000000000000000102000000000000000000000000000000000000000000000000000000000000000",
      "type": "0x2",
      "transactionHash": "0x0400fae8ca5ebc6dc93e837e60c634ed6c65b23982794dc930207efe632bbf2c",
      "transactionIndex": "0x2",
      "blockHash": "0x458cc60f272d034423154e5d9c0bd4c10be9ce2634e8de404614cb0436de3030",
      "blockNumber": "0xec805d2",
      "gasUsed": "0x5963f",
      "effectiveGasPrice": "0x1312d00",
      "from": "0x7ecb39c481487f9826e2a4457599ba2f86af0342",
      "to": "0x3b0cb807778cb900caec181c1ce1b0133dcf8cb8",
      "contractAddress": null,
      "gasUsedForL1": "0xc0c",
      "l1BlockNumber": "0x9ec844",
      "timeboosted": false
    },
    {
      "status": "0x1",
      "cumulativeGasUsed": "0x5964b",
      "logs": [
        {
          "address": "0x3b0cb807778cb900caec181c1ce1b0133dcf8cb8",
          "topics": [
            "0x7e013e17b6cd5fbe25667b6b6848b412bb921918e367afa2f1b5a54519c04db1",
            "0x0000000000000000000000000000000000000000000000000000000000000016"
          ],
          "data": "0x00000000000000000000000000000000000000000000000000000000000000c00000000000000000000000000000000000000000000000000000000000e4e1c000000000000000000000000000000000000000000000000000000000000000640000000000000000000000000000000000000000000000000000000069c889e4000000000000000000000000c646150d1995414f846cf19e7497e3e187ea49d00000000000000000000000000000000000000000000000000000000000000003000000000000000000000000000000000000000000000000000000000000001b45636f2050617065722053747261777320283530302f63617365290000000000",
          "blockHash": "0xb3f17b465b0b2772353f29cb1f78cff5dea54f4d6ae1c2a53353d0a4e36e2cd4",
          "blockNumber": "0xec805d7",
          "blockTimestamp": "0x69acda87",
          "transactionHash": "0x1bc24c6512d91f470f13498d62d8133f3a063164ec0877baf8c6ff913dee619a",
          "transactionIndex": "0x1",
          "logIndex": "0x0",
          "removed": false
        }
      ],
      "logsBloom": "0x00000000000000000000000000040000000000000000000000000000020000000000000000000000000000000000000000000000000000000000000000000000000000000000000800000000000000000000000000000000000000000000000000000000000000000000000000000000200000000000000000000000000000000000000000000000000400000000000000000000000000000000000000000000000000000000000000000000400000000004000000000000000000000000000000000000000000000000000000000000000000000000000000000000000000100000000000000000000000000000000000000000000000000008000000000000",
      "type": "0x2",
      "transactionHash": "0x1bc24c6512d91f470f13498d62d8133f3a063164ec0877baf8c6ff913dee619a",
      "transactionIndex": "0x1",
      "blockHash": "0xb3f17b465b0b2772353f29cb1f78cff5dea54f4d6ae1c2a53353d0a4e36e2cd4",
      "blockNumber": "0xec805d7",
      "gasUsed": "0x5964b",
      "effectiveGasPrice": "0x1313ca0",
      "from": "0x7ecb39c481487f9826e2a4457599ba2f86af0342",
      "to": "0x3b0cb807778cb900caec181c1ce1b0133dcf8cb8",
      "contractAddress": null,
      "gasUsedForL1": "0xc0c",
      "l1BlockNumber": "0x9ec844",
      "timeboosted": false
    },
    {
      "status": "0x1",
      "cumulativeGasUsed": "0x64682",
      "logs": [
        {
          "address": "0x3b0cb807778cb900caec181c1ce1b0133dcf8cb8",
          "topics": [
            "0x7e013e17b6cd5fbe25667b6b6848b412bb921918e367afa2f1b5a54519c04db1",
            "0x0000000000000000000000000000000000000000000000000000000000000017"
          ],
          "data": "0x00000000000000000000000000000000000000000000000000000000000000c00000000000000000000000000000000000000000000000000000000002625a0000000000000000000000000000000000000000000000000000000000000000280000000000000000000000000000000000000000000000000000000069c889e4000000000000000000000000c646150d1995414f846cf19e7497e3e187ea49d0000000000000000000000000000000000000000000000000000000000000000300000000000000000000000000000000000000000000000000000000000000254b726166742050617065722043617272792d4f7574204261677320283530302f6361736529000000000000000000000000000000000000000000000000000000",
          "blockHash": "0xb83a3b8bf7dc3d7f0c711c3b7e5ffd7d1b015f51736a1a81d92c44f06de02d7c",
          "blockNumber": "0xec805d8",
          "blockTimestamp": "0x69acda88",
          "transactionHash": "0xada4474bb6578ab534017a23eb4e73e83fe34c654a180cb839cc74531f920f9b",
          "transactionIndex": "0x1",
          "logIndex": "0x0",
          "removed": false
        }
      ],
      "logsBloom": "0x00000000000000000000000000040000000000000000000000000000020000000000000000000000000000000000000000001000000000000000001000000000000000000000000000000000000000000000000000000000000000000000000000000000000000000000000000000000000000000000000000000000000000000000000000000000000400000000000000000000000000000000000000000000000000000000000000000000400000000004000000000000000000000000000000000000000000000000000000000000000000000000000000000000000000100000000000000000000000000000000000000000000000000000000000080000",
      "type": "0x2",
      "transactionHash": "0xada4474bb6578ab534017a23eb4e73e83fe34c654a180cb839cc74531f920f9b",
      "transactionIndex": "0x1",
      "blockHash": "0xb83a3b8bf7dc3d7f0c711c3b7e5ffd7d1b015f51736a1a81d92c44f06de02d7c",
      "blockNumber": "0xec805d8",
      "gasUsed": "0x64682",
      "effectiveGasPrice": "0x1315410",
      "from": "0x7ecb39c481487f9826e2a4457599ba2f86af0342",
      "to": "0x3b0cb807778cb900caec181c1ce1b0133dcf8cb8",
      "contractAddress": null,
      "gasUsedForL1": "0xcb9",
      "l1BlockNumber": "0x9ec844",
      "timeboosted": false
    },
    {
      "status": "0x1",
      "cumulativeGasUsed": "0x7ec98",
      "logs": [
        {
          "address": "0x3b0cb807778cb900caec181c1ce1b0133dcf8cb8",
          "topics": [
            "0x7e013e17b6cd5fbe25667b6b6848b412bb921918e367afa2f1b5a54519c04db1",
            "0x0000000000000000000000000000000000000000000000000000000000000018"
          ],
          "data": "0x00000000000000000000000000000000000000000000000000000000000000c000000000000000000000000000000000000000000000000000000000017d7840000000000000000000000000000000000000000000000000000000000000003c0000000000000000000000000000000000000000000000000000000069c889e4000000000000000000000000c646150d1995414f846cf19e7497e3e187ea49d00000000000000000000000000000000000000000000000000000000000000003000000000000000000000000000000000000000000000000000000000000002454616b656f7574204261677320776974682048616e646c657320283235302f636173652900000000000000000000000000000000000000000000000000000000",
          "blockHash": "0xdc9df3751c63e98006ee46f14d01f2877d16a676f4cdce98261a01451561971a",
          "blockNumber": "0xec805d9",
          "blockTimestamp": "0x69acda88",
          "transactionHash": "0xd7f381ee4e6b6af0111d173e6a33eed38c6f928d2ed21904006a5506221e84c6",
          "transactionIndex": "0x2",
          "logIndex": "0x3",
          "removed": false
        }
      ],
      "logsBloom": "0x00000000000000000000000000040000000000000000000000000000020000000000000000000000000000000000000000000000000000000000000000000000000000000000000000000000000000000040000000000000000000000000000000000000000000000000000000000000000000000000000000000000000000000000000000000000000400000000000000000000000000000000000000000000000000000000000000000000400000000004000000000000000000000000000000100000000000000000000000000000000000000000000020000000000000100000000000000000000000000000000000000000000000000000000000000000",
      "type": "0x2",
      "transactionHash": "0xd7f381ee4e6b6af0111d173e6a33eed38c6f928d2ed21904006a5506221e84c6",
      "transactionIndex": "0x2",
      "blockHash": "0xdc9df3751c63e98006ee46f14d01f2877d16a676f4cdce98261a01451561971a",
      "blockNumber": "0xec805d9",
      "gasUsed": "0x6463a",
      "effectiveGasPrice": "0x1312d00",
      "from": "0x7ecb39c481487f9826e2a4457599ba2f86af0342",
      "to": "0x3b0cb807778cb900caec181c1ce1b0133dcf8cb8",
      "contractAddress": null,
      "gasUsedForL1": "0xc71",
      "l1BlockNumber": "0x9ec844",
      "timeboosted": false
    },
    {
      "status": "0x1",
      "cumulativeGasUsed": "0x5ed73",
      "logs": [
        {
          "address": "0x3b0cb807778cb900caec181c1ce1b0133dcf8cb8",
          "topics": [
            "0x7e013e17b6cd5fbe25667b6b6848b412bb921918e367afa2f1b5a54519c04db1",
            "0x0000000000000000000000000000000000000000000000000000000000000019"
          ],
          "data": "0x00000000000000000000000000000000000000000000000000000000000000c00000000000000000000000000000000000000000000000000000000001312d0000000000000000000000000000000000000000000000000000000000000000500000000000000000000000000000000000000000000000000000000069c889e4000000000000000000000000c646150d1995414f846cf19e7497e3e187ea49d000000000000000000000000000000000000000000000000000000000000000030000000000000000000000000000000000000000000000000000000000000020466f696c20262050617263686d656e7420466f6f64205772617020526f6c6c73",
          "blockHash": "0x531f55e596a2fb0e01f109317c178cb9081ff93e5e8986f6b1cab4c011a83318",
          "blockNumber": "0xec805db",
          "blockTimestamp": "0x69acda88",
          "transactionHash": "0xbcdbfe61e89ef788906c6839537abba667afd22f33ef22f61969ad1500023835",
          "transactionIndex": "0x1",
          "logIndex": "0x0",
          "removed": false
        }
      ],
      "logsBloom": "0x00000000000000000000000000040000000000000000000000000000020000000000000000000000000000000000000000000000000000800000000000000000000000000000000000000000000000000000000000000000000000000000000000000000000000000000000000000000000000000000020000000000000000000000000000000000000400000000000000000000000000000000000000000000000000000000000000000000400000000004000000000000000000000000000000000000000000000000000000000000000000000000000000000000000000100000000000000000000000000000000000000000000000000000008000000000",
      "type": "0x2",
      "transactionHash": "0xbcdbfe61e89ef788906c6839537abba667afd22f33ef22f61969ad1500023835",
      "transactionIndex": "0x1",
      "blockHash": "0x531f55e596a2fb0e01f109317c178cb9081ff93e5e8986f6b1cab4c011a83318",
      "blockNumber": "0xec805db",
      "gasUsed": "0x5ed73",
      "effectiveGasPrice": "0x131d110",
      "from": "0x7ecb39c481487f9826e2a4457599ba2f86af0342",
      "to": "0x3b0cb807778cb900caec181c1ce1b0133dcf8cb8",
      "contractAddress": null,
      "gasUsedForL1": "0xc74",
      "l1BlockNumber": "0x9ec844",
      "timeboosted": false
    }
  ],
  "libraries": [],
  "pending": [],
  "returns": {},
  "timestamp": 1772935817034,
  "chain": 421614,
  "commit": "2cebbf6"
}