{
  "transactions": [
    {
      "hash": "0x30b42912ad38aef100303d397e3d82b4cf733332b1101229d3d6d0c3f91584b5",
      "transactionType": "CALL",
      "contractName": null,
      "contractAddress": "0x04e7e8e929c80d4262ce7dc8077d4f080b90288f",
      "function": "createPool(string,uint256,uint256,uint256,address)",
      "arguments": [
        "Espresso Blend Coffee Beans",
        "15000000",
        "50",
        "1774041657",
        "0xbc9C188330a7536147375Acb6A1e0c7C6897b302"
      ],
      "transaction": {
        "from": "0x7ecb39c481487f9826e2a4457599ba2f86af0342",
        "to": "0x04e7e8e929c80d4262ce7dc8077d4f080b90288f",
        "gas": "0x370fe",
        "value": "0x0",
        "input": "0x8ed4f90c00000000000000000000000000000000000000000000000000000000000000a00000000000000000000000000000000000000000000000000000000000e4e1c000000000000000000000000000000000000000000000000000000000000000320000000000000000000000000000000000000000000000000000000069bdba39000000000000000000000000bc9c188330a7536147375acb6a1e0c7c6897b302000000000000000000000000000000000000000000000000000000000000001b457370726573736f20426c656e6420436f66666565204265616e730000000000",
        "nonce": "0x2",
        "chainId": "0x66eee"
      },
      "additionalContracts": [],
      "isFixedGasLimit": false
    },
    {
      "hash": "0xa76caf2252ee8a94f5e4ecac9e7c44333541362d9336e7107eb0520a5ae78fae",
      "transactionType": "CALL",
      "contractName": null,
      "contractAddress": "0x04e7e8e929c80d4262ce7dc8077d4f080b90288f",
      "function": "createPool(string,uint256,uint256,uint256,address)",
      "arguments": [
        "Ethiopian Single-Origin Beans",
        "18000000",
        "40",
        "1774041657",
        "0xbc9C188330a7536147375Acb6A1e0c7C6897b302"
      ],
      "transaction": {
        "from": "0x7ecb39c481487f9826e2a4457599ba2f86af0342",
        "to": "0x04e7e8e929c80d4262ce7dc8077d4f080b90288f",
        "gas": "0x3712d",
        "value": "0x0",
        "input": "0x8ed4f90c00000000000000000000000000000000000000000000000000000000000000a0000000000000000000000000000000000000000000000000000000000112a88000000000000000000000000000000000000000000000000000000000000000280000000000000000000000000000000000000000000000000000000069bdba39000000000000000000000000bc9c188330a7536147375acb6a1e0c7c6897b302000000000000000000000000000000000000000000000000000000000000001d457468696f7069616e2053696e676c652d4f726967696e204265616e73000000",
        "nonce": "0x3",
        "chainId": "0x66eee"
      },
      "additionalContracts": [],
      "isFixedGasLimit": false
    },
    {
      "hash": "0x26d8f8e53d573e882e93f6532e71720cbd2049619eb1edb5401631cb10080d32",
      "transactionType": "CALL",
      "contractName": null,
      "contractAddress": "0x04e7e8e929c80d4262ce7dc8077d4f080b90288f",
      "function": "createPool(string,uint256,uint256,uint256,address)",
      "arguments": [
        "All-Purpose Flour",
        "5000000",
        "200",
        "1774041657",
        "0xbc9C188330a7536147375Acb6A1e0c7C6897b302"
      ],
      "transaction": {
        "from": "0x7ecb39c481487f9826e2a4457599ba2f86af0342",
        "to": "0x04e7e8e929c80d4262ce7dc8077d4f080b90288f",
        "gas": "0x37061",
        "value": "0x0",
        "input": "0x8ed4f90c00000000000000000000000000000000000000000000000000000000000000a000000000000000000000000000000000000000000000000000000000004c4b4000000000000000000000000000000000000000000000000000000000000000c80000000000000000000000000000000000000000000000000000000069bdba39000000000000000000000000bc9c188330a7536147375acb6a1e0c7c6897b3020000000000000000000000000000000000000000000000000000000000000011416c6c2d507572706f736520466c6f7572000000000000000000000000000000",
        "nonce": "0x4",
        "chainId": "0x66eee"
      },
      "additionalContracts": [],
      "isFixedGasLimit": false
    },
    {
      "hash": "0x92d21b77a6c2cb1f7fca348c43055e627b541efe19aef2ba98be3f16266c1790",
      "transactionType": "CALL",
      "contractName": null,
      "contractAddress": "0x04e7e8e929c80d4262ce7dc8077d4f080b90288f",
      "function": "createPool(string,uint256,uint256,uint256,address)",
      "arguments": [
        "Olive Oil",
        "12000000",
        "80",
        "1774041657",
        "0xbc9C188330a7536147375Acb6A1e0c7C6897b302"
      ],
      "transaction": {
        "from": "0x7ecb39c481487f9826e2a4457599ba2f86af0342",
        "to": "0x04e7e8e929c80d4262ce7dc8077d4f080b90288f",
        "gas": "0x36fd3",
        "value": "0x0",
        "input": "0x8ed4f90c00000000000000000000000000000000000000000000000000000000000000a00000000000000000000000000000000000000000000000000000000000b71b0000000000000000000000000000000000000000000000000000000000000000500000000000000000000000000000000000000000000000000000000069bdba39000000000000000000000000bc9c188330a7536147375acb6a1e0c7c6897b30200000000000000000000000000000000000000000000000000000000000000094f6c697665204f696c0000000000000000000000000000000000000000000000",
        "nonce": "0x5",
        "chainId": "0x66eee"
      },
      "additionalContracts": [],
      "isFixedGasLimit": false
    },
    {
      "hash": "0xd1dd12c54b2c7cd06e023562cfbfa1a511459c59b6bdab1cf539c16dad432a1d",
      "transactionType": "CALL",
      "contractName": null,
      "contractAddress": "0x04e7e8e929c80d4262ce7dc8077d4f080b90288f",
      "function": "createPool(string,uint256,uint256,uint256,address)",
      "arguments": [
        "Basmati Rice",
        "8000000",
        "150",
        "1774041657",
        "0xbc9C188330a7536147375Acb6A1e0c7C6897b302"
      ],
      "transaction": {
        "from": "0x7ecb39c481487f9826e2a4457599ba2f86af0342",
        "to": "0x04e7e8e929c80d4262ce7dc8077d4f080b90288f",
        "gas": "0x37003",
        "value": "0x0",
        "input": "0x8ed4f90c00000000000000000000000000000000000000000000000000000000000000a000000000000000000000000000000000000000000000000000000000007a120000000000000000000000000000000000000000000000000000000000000000960000000000000000000000000000000000000000000000000000000069bdba39000000000000000000000000bc9c188330a7536147375acb6a1e0c7c6897b302000000000000000000000000000000000000000000000000000000000000000c4261736d61746920526963650000000000000000000000000000000000000000",
        "nonce": "0x6",
        "chainId": "0x66eee"
      },
      "additionalContracts": [],
      "isFixedGasLimit": false
    },
    {
      "hash": "0x3086cb71f1b34a1b45d439bfe4f7299118096d7f252177764557debb4d3c17d8",
      "transactionType": "CALL",
      "contractName": null,
      "contractAddress": "0x04e7e8e929c80d4262ce7dc8077d4f080b90288f",
      "function": "createPool(string,uint256,uint256,uint256,address)",
      "arguments": [
        "Hot Cups",
        "2000000",
        "500",
        "1774041657",
        "0xbc9C188330a7536147375Acb6A1e0c7C6897b302"
      ],
      "transaction": {
        "from": "0x7ecb39c481487f9826e2a4457599ba2f86af0342",
        "to": "0x04e7e8e929c80d4262ce7dc8077d4f080b90288f",
        "gas": "0x36fe3",
        "value": "0x0",
        "input": "0x8ed4f90c00000000000000000000000000000000000000000000000000000000000000a000000000000000000000000000000000000000000000000000000000001e848000000000000000000000000000000000000000000000000000000000000001f40000000000000000000000000000000000000000000000000000000069bdba39000000000000000000000000bc9c188330a7536147375acb6a1e0c7c6897b3020000000000000000000000000000000000000000000000000000000000000008486f742043757073000000000000000000000000000000000000000000000000",
        "nonce": "0x7",
        "chainId": "0x66eee"
      },
      "additionalContracts": [],
      "isFixedGasLimit": false
    },
    {
      "hash": "0x4b2ba62553ac800fbc6dd9f9b38dd6c040f04e0822b5005ffefd0f451c12e475",
      "transactionType": "CALL",
      "contractName": null,
      "contractAddress": "0x04e7e8e929c80d4262ce7dc8077d4f080b90288f",
      "function": "createPool(string,uint256,uint256,uint256,address)",
      "arguments": [
        "Lids",
        "1000000",
        "500",
        "1774041657",
        "0xbc9C188330a7536147375Acb6A1e0c7C6897b302"
      ],
      "transaction": {
        "from": "0x7ecb39c481487f9826e2a4457599ba2f86af0342",
        "to": "0x04e7e8e929c80d4262ce7dc8077d4f080b90288f",
        "gas": "0x36fa4",
        "value": "0x0",
        "input": "0x8ed4f90c00000000000000000000000000000000000000000000000000000000000000a000000000000000000000000000000000000000000000000000000000000f424000000000000000000000000000000000000000000000000000000000000001f40000000000000000000000000000000000000000000000000000000069bdba39000000000000000000000000bc9c188330a7536147375acb6a1e0c7c6897b30200000000000000000000000000000000000000000000000000000000000000044c69647300000000000000000000000000000000000000000000000000000000",
        "nonce": "0x8",
        "chainId": "0x66eee"
      },
      "additionalContracts": [],
      "isFixedGasLimit": false
    }
  ],
  "receipts": [
    {
      "status": "0x1",
      "cumulativeGasUsed": "0x29bd4",
      "logs": [
        {
          "address": "0x04e7e8e929c80d4262ce7dc8077d4f080b90288f",
          "topics": [
            "0x55bd16033ae8e80a1af8547b62c6fd40fbffbf5d4470d72387ea1872f854587b",
            "0x0000000000000000000000000000000000000000000000000000000000000000"
          ],
          "data": "0x00000000000000000000000000000000000000000000000000000000000000a00000000000000000000000000000000000000000000000000000000000e4e1c000000000000000000000000000000000000000000000000000000000000000320000000000000000000000000000000000000000000000000000000069bdba39000000000000000000000000bc9c188330a7536147375acb6a1e0c7c6897b302000000000000000000000000000000000000000000000000000000000000001b457370726573736f20426c656e6420436f66666565204265616e730000000000",
          "blockHash": "0x7ff1b5bc35b373a374ee708353489b2b2195d08363b8405af3396412c4014e86",
          "blockNumber": "0xec23fd0",
          "blockTimestamp": "0x69ab453e",
          "transactionHash": "0x30b42912ad38aef100303d397e3d82b4cf733332b1101229d3d6d0c3f91584b5",
          "transactionIndex": "0x1",
          "logIndex": "0x0",
          "removed": false
        }
      ],
      "logsBloom": "0x00000000000000000000008000000000000000000100000000000000000000000000000000000000000000000000000000000000000000000000000000000000000000000000000000000000000000000000000000000000000000000000000000000000020000000000000000000800000000000000000000000000000000000000000000000000000000000000000200000000000000000000000000000008000000000000010000000000000000000000000000000000000000000000000000000000000000000000000000000000000000000000000000000000800020000000000000000000000000000000000000000000000000000000000000000000",
      "type": "0x2",
      "transactionHash": "0x30b42912ad38aef100303d397e3d82b4cf733332b1101229d3d6d0c3f91584b5",
      "transactionIndex": "0x1",
      "blockHash": "0x7ff1b5bc35b373a374ee708353489b2b2195d08363b8405af3396412c4014e86",
      "blockNumber": "0xec23fd0",
      "gasUsed": "0x29bd4",
      "effectiveGasPrice": "0x1313ca0",
      "from": "0x7ecb39c481487f9826e2a4457599ba2f86af0342",
      "to": "0x04e7e8e929c80d4262ce7dc8077d4f080b90288f",
      "contractAddress": null,
      "gasUsedForL1": "0x0",
      "l1BlockNumber": "0x9eab4e",
      "timeboosted": false
    },
    {
      "status": "0x1",
      "cumulativeGasUsed": "0x2592c",
      "logs": [
        {
          "address": "0x04e7e8e929c80d4262ce7dc8077d4f080b90288f",
          "topics": [
            "0x55bd16033ae8e80a1af8547b62c6fd40fbffbf5d4470d72387ea1872f854587b",
            "0x0000000000000000000000000000000000000000000000000000000000000001"
          ],
          "data": "0x00000000000000000000000000000000000000000000000000000000000000a0000000000000000000000000000000000000000000000000000000000112a88000000000000000000000000000000000000000000000000000000000000000280000000000000000000000000000000000000000000000000000000069bdba39000000000000000000000000bc9c188330a7536147375acb6a1e0c7c6897b302000000000000000000000000000000000000000000000000000000000000001d457468696f7069616e2053696e676c652d4f726967696e204265616e73000000",
          "blockHash": "0x126e48740ccdc24304624d0fdd6754b234c4dc395b10a29c61135bef94c0adb9",
          "blockNumber": "0xec23fd2",
          "blockTimestamp": "0x69ab453f",
          "transactionHash": "0xa76caf2252ee8a94f5e4ecac9e7c44333541362d9336e7107eb0520a5ae78fae",
          "transactionIndex": "0x1",
          "logIndex": "0x0",
          "removed": false
        }
      ],
      "logsBloom": "0x00000000000000000000008000000000000000000100000000000000000000000000000000000000000000000000000000000000000000000000000000040000000000000000000000000000000000000000000000040000000000000000000000000000000000000000000000000000000000000000000000000000000000000000000000000000000000000000000200000000000000000000000000000008000000000000010000000000000000000000000000000000000000000000000000000000000000000000000000000000000000000000000000000000800040000000000000000000000000000000000000000000000000000000000000000000",
      "type": "0x2",
      "transactionHash": "0xa76caf2252ee8a94f5e4ecac9e7c44333541362d9336e7107eb0520a5ae78fae",
      "transactionIndex": "0x1",
      "blockHash": "0x126e48740ccdc24304624d0fdd6754b234c4dc395b10a29c61135bef94c0adb9",
      "blockNumber": "0xec23fd2",
      "gasUsed": "0x2592c",
      "effectiveGasPrice": "0x1312d00",
      "from": "0x7ecb39c481487f9826e2a4457599ba2f86af0342",
      "to": "0x04e7e8e929c80d4262ce7dc8077d4f080b90288f",
      "contractAddress": null,
      "gasUsedForL1": "0x0",
      "l1BlockNumber": "0x9eab4e",
      "timeboosted": false
    },
    {
      "status": "0x1",
      "cumulativeGasUsed": "0x25890",
      "logs": [
        {
          "address": "0x04e7e8e929c80d4262ce7dc8077d4f080b90288f",
          "topics": [
            "0x55bd16033ae8e80a1af8547b62c6fd40fbffbf5d4470d72387ea1872f854587b",
            "0x0000000000000000000000000000000000000000000000000000000000000002"
          ],
          "data": "0x00000000000000000000000000000000000000000000000000000000000000a000000000000000000000000000000000000000000000000000000000004c4b4000000000000000000000000000000000000000000000000000000000000000c80000000000000000000000000000000000000000000000000000000069bdba39000000000000000000000000bc9c188330a7536147375acb6a1e0c7c6897b3020000000000000000000000000000000000000000000000000000000000000011416c6c2d507572706f736520466c6f7572000000000000000000000000000000",
          "blockHash": "0x9d1d211dc75a205b90db35cd47d97c5ad58bf3066715e8ce062e1b6e76cba344",
          "blockNumber": "0xec23fd5",
          "blockTimestamp": "0x69ab4540",
          "transactionHash": "0x26d8f8e53d573e882e93f6532e71720cbd2049619eb1edb5401631cb10080d32",
          "transactionIndex": "0x1",
          "logIndex": "0x0",
          "removed": false
        }
      ],
      "logsBloom": "0x04000000000000000000008000000000000000000100000000000000000000000000000000000000000000000000000000000000000000000000000000000000000000000000000000000000000000000000000000000000000000000000000000000000000000000000000000000000000000000000000000000000000000000000000000000000000000000000000200000000000000000000000000000008000000000000010000000100000000000000000000000000000000000000000000000000000000000000000000000000000000000000000000000000800000000000000000000000000000000000000000000000008000000000000000000000",
      "type": "0x2",
      "transactionHash": "0x26d8f8e53d573e882e93f6532e71720cbd2049619eb1edb5401631cb10080d32",
      "transactionIndex": "0x1",
      "blockHash": "0x9d1d211dc75a205b90db35cd47d97c5ad58bf3066715e8ce062e1b6e76cba344",
      "blockNumber": "0xec23fd5",
      "gasUsed": "0x25890",
      "effectiveGasPrice": "0x131a230",
      "from": "0x7ecb39c481487f9826e2a4457599ba2f86af0342",
      "to": "0x04e7e8e929c80d4262ce7dc8077d4f080b90288f",
      "contractAddress": null,
      "gasUsedForL1": "0x0",
      "l1BlockNumber": "0x9eab4e",
      "timeboosted": false
    },
    {
      "status": "0x1",
      "cumulativeGasUsed": "0x25824",
      "logs": [
        {
          "address": "0x04e7e8e929c80d4262ce7dc8077d4f080b90288f",
          "topics": [
            "0x55bd16033ae8e80a1af8547b62c6fd40fbffbf5d4470d72387ea1872f854587b",
            "0x0000000000000000000000000000000000000000000000000000000000000003"
          ],
          "data": "0x00000000000000000000000000000000000000000000000000000000000000a00000000000000000000000000000000000000000000000000000000000b71b0000000000000000000000000000000000000000000000000000000000000000500000000000000000000000000000000000000000000000000000000069bdba39000000000000000000000000bc9c188330a7536147375acb6a1e0c7c6897b30200000000000000000000000000000000000000000000000000000000000000094f6c697665204f696c0000000000000000000000000000000000000000000000",
          "blockHash": "0xedab224ba05f5939c03816c77e834e5277ea8ecd402c8d0c0b51f41fe825d63e",
          "blockNumber": "0xec23fd7",
          "blockTimestamp": "0x69ab4540",
          "transactionHash": "0x92d21b77a6c2cb1f7fca348c43055e627b541efe19aef2ba98be3f16266c1790",
          "transactionIndex": "0x1",
          "logIndex": "0x0",
          "removed": false
        }
      ],
      "logsBloom": "0x00000000000000000000008000000000000000000100000000000000000000000000000000000000000000000000000000000000020000000000000000000000000000000000000000000000000000000000000000000000000000000000000000000000000000000000000000000000000000000000000000000000000000000000000000000000000000000000000200000000000000000000000000000008000000000000010000000000000000000000000000800000000000000000400000000000000000000000000000000000000000000000000000000000800000000000000000000000000000000000000000000000000000000000000000000000",
      "type": "0x2",
      "transactionHash": "0x92d21b77a6c2cb1f7fca348c43055e627b541efe19aef2ba98be3f16266c1790",
      "transactionIndex": "0x1",
      "blockHash": "0xedab224ba05f5939c03816c77e834e5277ea8ecd402c8d0c0b51f41fe825d63e",
      "blockNumber": "0xec23fd7",
      "gasUsed": "0x25824",
      "effectiveGasPrice": "0x13163b0",
      "from": "0x7ecb39c481487f9826e2a4457599ba2f86af0342",
      "to": "0x04e7e8e929c80d4262ce7dc8077d4f080b90288f",
      "contractAddress": null,
      "gasUsedForL1": "0x0",
      "l1BlockNumber": "0x9eab4e",
      "timeboosted": false
    },
    {
      "status": "0x1",
      "cumulativeGasUsed": "0x25848",
      "logs": [
        {
          "address": "0x04e7e8e929c80d4262ce7dc8077d4f080b90288f",
          "topics": [
            "0x55bd16033ae8e80a1af8547b62c6fd40fbffbf5d4470d72387ea1872f854587b",
            "0x0000000000000000000000000000000000000000000000000000000000000004"
          ],
          "data": "0x00000000000000000000000000000000000000000000000000000000000000a000000000000000000000000000000000000000000000000000000000007a120000000000000000000000000000000000000000000000000000000000000000960000000000000000000000000000000000000000000000000000000069bdba39000000000000000000000000bc9c188330a7536147375acb6a1e0c7c6897b302000000000000000000000000000000000000000000000000000000000000000c4261736d61746920526963650000000000000000000000000000000000000000",
          "blockHash": "0x6d04fa062c475dd746460fea7884aa67e69e52a5030bf6392deb832d4d925fb6",
          "blockNumber": "0xec23fd9",
          "blockTimestamp": "0x69ab4541",
          "transactionHash": "0xd1dd12c54b2c7cd06e023562cfbfa1a511459c59b6bdab1cf539c16dad432a1d",
          "transactionIndex": "0x1",
          "logIndex": "0x0",
          "removed": false
        }
      ],
      "logsBloom": "0x00000000000000000000008000000000000000000100000000000000000000000000000000000000000000000000000000000000000000000000000000000000000000000000000000000000000000000000000000000000000000000000000008000000000000000000000000000000000000000000000000000000000000000000000000000000000000000000000200000000000000000000000000000008000000000000010000000000000000000000000000000000002000000000000000000000000000000000000000000000000000008000000000000000800000000000000000000000000000000000000000000000000000000000000000000000",
      "type": "0x2",
      "transactionHash": "0xd1dd12c54b2c7cd06e023562cfbfa1a511459c59b6bdab1cf539c16dad432a1d",
      "transactionIndex": "0x1",
      "blockHash": "0x6d04fa062c475dd746460fea7884aa67e69e52a5030bf6392deb832d4d925fb6",
      "blockNumber": "0xec23fd9",
      "gasUsed": "0x25848",
      "effectiveGasPrice": "0x1318ac0",
      "from": "0x7ecb39c481487f9826e2a4457599ba2f86af0342",
      "to": "0x04e7e8e929c80d4262ce7dc8077d4f080b90288f",
      "contractAddress": null,
      "gasUsedForL1": "0x0",
      "l1BlockNumber": "0x9eab4e",
      "timeboosted": false
    },
    {
      "status": "0x1",
      "cumulativeGasUsed": "0x3f2a9",
      "logs": [
        {
          "address": "0x04e7e8e929c80d4262ce7dc8077d4f080b90288f",
          "topics": [
            "0x55bd16033ae8e80a1af8547b62c6fd40fbffbf5d4470d72387ea1872f854587b",
            "0x0000000000000000000000000000000000000000000000000000000000000005"
          ],
          "data": "0x00000000000000000000000000000000000000000000000000000000000000a000000000000000000000000000000000000000000000000000000000001e848000000000000000000000000000000000000000000000000000000000000001f40000000000000000000000000000000000000000000000000000000069bdba39000000000000000000000000bc9c188330a7536147375acb6a1e0c7c6897b3020000000000000000000000000000000000000000000000000000000000000008486f742043757073000000000000000000000000000000000000000000000000",
          "blockHash": "0xc3b046b38d9027c26d9322a9a782dd8e45ed6c6e1e14d00acebf8bbfc881c5d3",
          "blockNumber": "0xec23fdf",
          "blockTimestamp": "0x69ab4542",
          "transactionHash": "0x3086cb71f1b34a1b45d439bfe4f7299118096d7f252177764557debb4d3c17d8",
          "transactionIndex": "0x2",
          "logIndex": "0x3",
          "removed": false
        }
      ],
      "logsBloom": "0x00000000000000000000008000000000000000000100000000000000000000000000000000000000000000000000000000000000000000000000000000000000000010000000000000000000000000000000000000000000000000000000000000000000000000000000000000000000000000000000000000000000000000000000000000000000000000000000001200000800000000000000000000000008000000000000010000000000000000000000000000000000000000000000000000000000000000000000000000000000000000000000000000000000800000000000000000000000000000000000000000000000000000000000000000000000",
      "type": "0x2",
      "transactionHash": "0x3086cb71f1b34a1b45d439bfe4f7299118096d7f252177764557debb4d3c17d8",
      "transactionIndex": "0x2",
      "blockHash": "0xc3b046b38d9027c26d9322a9a782dd8e45ed6c6e1e14d00acebf8bbfc881c5d3",
      "blockNumber": "0xec23fdf",
      "gasUsed": "0x25830",
      "effectiveGasPrice": "0x1312d00",
      "from": "0x7ecb39c481487f9826e2a4457599ba2f86af0342",
      "to": "0x04e7e8e929c80d4262ce7dc8077d4f080b90288f",
      "contractAddress": null,
      "gasUsedForL1": "0x0",
      "l1BlockNumber": "0x9eab4e",
      "timeboosted": false
    },
    {
      "status": "0x1",
      "cumulativeGasUsed": "0x25800",
      "logs": [
        {
          "address": "0x04e7e8e929c80d4262ce7dc8077d4f080b90288f",
          "topics": [
            "0x55bd16033ae8e80a1af8547b62c6fd40fbffbf5d4470d72387ea1872f854587b",
            "0x0000000000000000000000000000000000000000000000000000000000000006"
          ],
          "data": "0x00000000000000000000000000000000000000000000000000000000000000a000000000000000000000000000000000000000000000000000000000000f424000000000000000000000000000000000000000000000000000000000000001f40000000000000000000000000000000000000000000000000000000069bdba39000000000000000000000000bc9c188330a7536147375acb6a1e0c7c6897b30200000000000000000000000000000000000000000000000000000000000000044c69647300000000000000000000000000000000000000000000000000000000",
          "blockHash": "0xa7d20fed37a1505eec4e93b2686d70a890d9ea2a608aa40a3a756c311201b158",
          "blockNumber": "0xec23fe3",
          "blockTimestamp": "0x69ab4544",
          "transactionHash": "0x4b2ba62553ac800fbc6dd9f9b38dd6c040f04e0822b5005ffefd0f451c12e475",
          "transactionIndex": "0x1",
          "logIndex": "0x0",
          "removed": false
        }
      ],
      "logsBloom": "0x00000000000000000000008000000000000000000100000000000000000000000000000000000000000000000000000000000000000400000000000000000000000000000000000000000000000000000000000000000000000000000000000000000000000000000000000000000000000000000000000000000000000000000000000400000000000000000000000200000000000000000000000000000008000000000000010000000000000000000000000000000000000000080000000000000000000000000000000000000000000000000000000000000000800000000000000000000000000000000000000000000000000000000000000000000000",
      "type": "0x2",
      "transactionHash": "0x4b2ba62553ac800fbc6dd9f9b38dd6c040f04e0822b5005ffefd0f451c12e475",
      "transactionIndex": "0x1",
      "blockHash": "0xa7d20fed37a1505eec4e93b2686d70a890d9ea2a608aa40a3a756c311201b158",
      "blockNumber": "0xec23fe3",
      "gasUsed": "0x25800",
      "effectiveGasPrice": "0x1314470",
      "from": "0x7ecb39c481487f9826e2a4457599ba2f86af0342",
      "to": "0x04e7e8e929c80d4262ce7dc8077d4f080b90288f",
      "contractAddress": null,
      "gasUsedForL1": "0x0",
      "l1BlockNumber": "0x9eab4e",
      "timeboosted": false
    }
  ],
  "libraries": [],
  "pending": [],
  "returns": {},
  "timestamp": 1772832068204,
  "chain": 421614,
  "commit": "15b2524"
}